{
  "address": "0x9fE46736679d2D9a65F0992F2272dE9f3c7fa6e0",
  "abi": [
    {
      "inputs": [
        {
          "internalType": "int256",
          "name": "value_pct_change",
          "type": "int256"
        }
      ],
      "name": "generateSVGFromPrice",
      "outputs": [
        {
          "internalType": "string",
          "name": "",
          "type": "string"
        }
      ],
      "stateMutability": "view",
      "type": "function"
    }
  ],
  "transactionHash": "0x96d2d287b7ebf95349aa68885ad3f22a3308d721a4f3b084900e651c63bf8c6c",
  "args": [],
  "numDeployments": 1,
  "solcInputHash": "7f20f727a8ca06fc303639fbc11d58c5",
  "bytecode": "0x61526e610053600b82828239805160001a607314610046577f4e487b7100000000000000000000000000000000000000000000000000000000600052600060045260246000fd5b30600052607381538281f3fe73000000000000000000000000000000000000000030146080604052600436106100355760003560e01c8063b01c08301461003a575b600080fd5b610054600480360381019061004f91906102be565b61006a565b6040516100619190610384565b60405180910390f35b6060600060405180610da00160405280610d6581526020016110f1610d6591399050600060405180610da00160405280610d628152602001611e56610d6291399050600060405180610ce00160405280610cae8152602001610443610cae913990506000604051806126c001604052806126818152602001612bb8612681913990506100f461025c565b8481600060038110610109576101086103a6565b5b6020020181905250600a87131561013857838160006003811061012f5761012e6103a6565b5b60200201819052505b602887131561015f578281600060038110610156576101556103a6565b5b60200201819052505b604687131561018657818160006003811061017d5761017c6103a6565b5b60200201819052505b60405180602001604052806000815250816001600381106101aa576101a96103a6565b5b602002018190525060405180602001604052806000815250816002600381106101d6576101d56103a6565b5b60200201819052506000816000600381106101f4576101f36103a6565b5b60200201518260016003811061020d5761020c6103a6565b5b602002015183600260038110610226576102256103a6565b5b602002015160405160200161023d93929190610411565b6040516020818303038152906040529050809650505050505050919050565b60405180606001604052806003905b606081526020019060019003908161026b5790505090565b600080fd5b6000819050919050565b61029b81610288565b81146102a657600080fd5b50565b6000813590506102b881610292565b92915050565b6000602082840312156102d4576102d3610283565b5b60006102e2848285016102a9565b91505092915050565b600081519050919050565b600082825260208201905092915050565b60005b8381101561032557808201518184015260208101905061030a565b83811115610334576000848401525b50505050565b6000601f19601f8301169050919050565b6000610356826102eb565b61036081856102f6565b9350610370818560208601610307565b6103798161033a565b840191505092915050565b6000602082019050818103600083015261039e818461034b565b905092915050565b7f4e487b7100000000000000000000000000000000000000000000000000000000600052603260045260246000fd5b600081905092915050565b60006103eb826102eb565b6103f581856103d5565b9350610405818560208601610307565b80840191505092915050565b600061041d82866103e0565b915061042982856103e0565b915061043582846103e0565b915081905094935050505056fe3c7376672077696474683d2233353022206865696768743d22333530222076696577426f783d223020302033353020333530222066696c6c3d226e6f6e652220786d6c6e733d22687474703a2f2f7777772e77332e6f72672f323030302f737667223e3c672069643d2270726963655f73776f7264223e3c706174682069643d22426c616465426173652220643d224d3331352e3738362037322e38343338433331362e3335362037322e32393334203331362e3736322037312e35393037203331362e3935382037302e383231374c3332342e37372033392e38323239433332352e3132312033382e343035203332342e3732332033362e39303637203332332e3731342033352e38353233433332322e3730352033342e37393738203332312e3231382033342e33333933203331392e3738392033342e363339344c3238382e352034312e31383331433238372e3732312034312e33343733203238372e3030352034312e37323433203238362e3433352034322e323734364c36382e36333536203235352e3634374336362e393438203235372e3237312036362e38393337203235392e3935322036382e35313431203236312e3634334c39312e393935203238362e3039384339322e37373334203238362e3930382039332e38343434203238372e3337372039342e39363733203238372e344339362e30393037203238372e3432322039372e31373636203238362e3939372039372e39383731203238362e3231394c3135332e363434203233322e3737344c3331352e3738362037322e383433385a222066696c6c3d2223434344314439222f3e3c706174682069643d22426c6164654564676522206f7061636974793d22302e322220643d224d3332332e3434342033362e30303835433332322e3433342033342e39353431203332302e3934382033342e34393536203331392e3531392033342e373935374c3330332e3837352033382e303637354c3238382e32332034312e33333933433238372e3435312034312e35303336203238362e3733352034312e38383035203238362e3136352034322e343330384c36382e36333536203235352e3634374336362e393438203235372e3237312036362e38393336203235392e3935322036382e35313431203236312e3634334c39312e393935203238362e3039384339322e37373333203238362e3930382039332e38343433203238372e3337372039342e39363733203238372e344339362e30393036203238372e3432322039372e31373635203238362e3939372039372e39383731203238362e3231394c3331352e353137203733433331362e3038372037322e34343936203331362e3439322037312e37343639203331362e3638382037302e3937384c3332342e352033392e39373932433332342e3835312033382e35363038203332342e3435332033372e30363236203332332e3434342033362e303038355a4d3332302e3338352033382e393432354c3331322e35382036392e393431344c39352e30353332203238332e3136314c37312e35363935203235382e3730354c3238392e3039362034352e343839334c3332302e3338352033382e393432355a222066696c6c3d227768697465222f3e3c706174682069643d22426c61646546756c6c65722220643d224d38302e32353239203237332e38374337382e36333234203237322e3137392037382e36383637203236392e3439382038302e33373433203236372e3837344c3139362e353131203135342e383534433139382e323031203135332e323333203230302e383833203135332e323838203230322e35203135342e393735433230342e313234203135362e363633203230342e303639203135392e333437203230322e333739203136302e3936384c38362e32343534203237332e3939314338342e35353739203237352e3630392038312e38373636203237352e3535352038302e32353239203237332e38375a222066696c6c3d2223414142324243222f3e3c672069643d2248696c74223e3c672069643d2248616e646c654465636f223e3c706174682069643d2248616e646c652220643d224d38342e32343932203238352e39344338342e323732203238342e3831372038332e383437203238332e3732382038332e30363836203238322e3931384c37312e33323638203237302e36394336392e37303633203236392036372e30323139203236382e3934352036352e33333433203237302e3536384c32362e34343438203330372e3931374332342e37353733203330392e3533342032342e373033203331322e3231362032362e33323334203331332e3930364c33382e30363533203332362e3133344333392e36383539203332372e3831382034322e33363939203332372e3837322034342e30353734203332362e3235354c38322e39343639203238382e3930374338332e37353738203238382e3132392038342e32323635203238372e3036342038342e32343932203238352e39345a222066696c6c3d2223454435353634222f3e3c706174682069643d22537472697065312220643d224d34322e36373131203239322e3333324c37382e36323232203239332e30364c38322e39343733203238382e3930374338332e37353738203238382e3132382038342e32323635203238372e3036342038342e32343932203238352e39344338342e32353739203238352e3531322038342e32303132203238352e3039352038342e30383831203238342e3639354c35312e33313735203238342e3033314c34322e36373131203239322e3333325a222066696c6c3d2223444134343533222f3e3c706174682069643d22537472697065322220643d224d36382e39333039203330322e33374c33322e39373636203330312e3634314c32362e34343438203330372e3931374332352e38343334203330382e3439342032352e343533203330392e3230372032352e32363733203330392e3936314c36302e32383435203331302e36374c36382e39333039203330322e33375a222066696c6c3d2223444134343533222f3e3c2f673e3c706174682069643d2243726f737347756172642220643d224d3131322e373835203239352e3530394c35392e39343837203234302e3438394335382e33323832203233382e3830312035352e36343639203233382e3734372035332e39353934203234302e3336374c34342e37383734203234392e3137324334332e30393937203235302e3739362034332e30343534203235332e3437372034342e363636203235352e3136314c39372e35303137203331302e3138334339382e3238203331302e3939332039392e33343738203331312e343632203130302e343731203331312e343835433130312e353938203331312e353038203130322e363834203331312e303832203130332e343934203331302e3330344c3131322e363633203330312e343939433131342e333531203239392e383831203131342e343035203239372e313934203131322e373835203239352e3530395a222066696c6c3d2223464643453534222f3e3c706174682069643d22506f6d6d656c2220643d224d34352e32333733203332342e3131324334352e333239203331392e3538372034332e36353234203331352e3239352034302e353138203331322e3032374333342e30343231203330352e3238332032332e32393235203330352e3036352031362e35343837203331312e3534314331332e32383432203331342e3637392031312e34333535203331382e3930312031312e33343338203332332e3432354331312e32353232203332372e39352031322e39323838203333322e3234332031362e30363331203333352e3531314331392e32303037203333382e3737382032332e34313936203334302e3632372032372e39343732203334302e3731394333322e34373437203334302e38312033362e37363531203333392e3133342034302e30333234203333352e3939364334332e32393639203333322e3835392034352e31343537203332382e3633362034352e32333733203332342e3131325a222066696c6c3d2223464643453534222f3e3c706174682069643d2248696c7444657461696c2220643d224d32382e32303437203332382e3030364333302e35343432203332382e3035332033322e34373931203332362e3139342033322e35323636203332332e3835334333322e353734203332312e3531322033302e37313539203331392e3537352032382e33373635203331392e3532384332362e303337203331392e3438312032342e313032203332312e33342032342e30353436203332332e3638314332342e30303732203332362e3032322032352e38363532203332372e3935382032382e32303437203332382e3030365a222066696c6c3d2223463642423432222f3e3c2f673e3c2f673e3c2f7376673e3c7376672077696474683d2233353022206865696768743d22333530222076696577426f783d223020302033353020333530222066696c6c3d226e6f6e652220786d6c6e733d22687474703a2f2f7777772e77332e6f72672f323030302f737667223e3c672069643d224672616d652031223e3c672069643d2270726963655f73776f72642220636c69702d706174683d2275726c2823636c6970305f315f3329223e3c706174682069643d22426c616465426173652220643d224d3133362e363339203235312e393931433133372e323039203235312e343431203133372e363134203235302e373338203133372e3831203234392e3936394c3134352e363232203231382e393731433134352e393733203231372e353533203134352e353735203231362e303534203134342e35363620323135433134332e353537203231332e393436203134322e3037203231332e343837203134302e363432203231332e3738374c3130392e333532203232302e333331433130382e353733203232302e343935203130372e383537203232302e383732203130372e323837203232312e3432324c36382e36333537203235352e3634374336362e39343831203235372e3237312036362e38393337203235392e3935322036382e35313432203236312e3634334c39312e39393531203238362e3039384339322e37373334203238362e3930382039332e38343434203238372e3337372039342e39363734203238372e344339362e30393037203238372e3432322039352e36383932203238362e3837362039362e34393937203238362e3039384c39342e39363734203238372e344c3133362e363339203235312e3939315a222066696c6c3d2223434344314439222f3e3c706174682069643d22426c6164654564676522206f7061636974793d22302e322220643d224d3134342e343434203231352e313232433134332e343334203231342e303637203134312e393438203231332e363039203134302e353139203231332e3930394c3130392e3233203232302e343533433130382e343531203232302e363137203130372e373335203232302e393934203130372e313635203232312e3534344c36382e36333537203235352e3634374336362e393438203235372e3237312036362e38393337203235392e3935322036382e35313432203236312e3634334c39312e393935203238362e3039384339322e37373334203238362e3930382039332e38343434203238372e3337372039342e39363733203238372e344339362e30393037203238372e3432322039372e31373636203238362e3939372039372e39383732203238362e3231394c3133362e353137203235322e313133433133372e303837203235312e353633203133372e343932203235302e3836203133372e363838203235302e3039314c3134352e35203231392e303933433134352e383531203231372e363734203134352e343533203231362e313736203134342e343434203231352e3132325a4d3134312e333835203231382e3035364c3133332e3538203234392e3035354c39352e30353332203238332e3136314c37312e35363936203235382e3730354c3131302e303936203232342e3630334c3134312e333835203231382e3035365a222066696c6c3d227768697465222f3e3c706174682069643d22426c61646546756c6c65722220643d224d38302e32353239203237332e38374337382e36333234203237322e3137392037382e36383637203236392e3439382038302e33373433203236372e3837344c3130312e3520323439433130332e313931203234372e3338203130352e383732203234372e343334203130372e343839203234392e313231433130392e313133203235302e383039203130392e303539203235332e343933203130372e333638203235352e3131344c38362e32343534203237332e3939314338342e35353739203237352e3630392038312e38373636203237352e3535352038302e32353239203237332e38375a222066696c6c3d2223414142324243222f3e3c672069643d2248696c74223e3c672069643d2248616e646c654465636f223e3c706174682069643d2248616e646c652220643d224d38342e32343932203238352e39344338342e323732203238342e3831372038332e383437203238332e3732382038332e30363836203238322e3931384c37312e33323638203237302e36394336392e37303633203236392036372e30323139203236382e3934352036352e33333433203237302e3536384c32362e34343438203330372e3931374332342e37353733203330392e3533342032342e373033203331322e3231362032362e33323334203331332e3930364c33382e30363533203332362e3133344333392e36383539203332372e3831382034322e33363939203332372e3837322034342e30353734203332362e3235354c38322e39343639203238382e3930374338332e37353738203238382e3132392038342e32323635203238372e3036342038342e32343932203238352e39345a222066696c6c3d2223454435353634222f3e3c706174682069643d22537472697065312220643d224d34322e36373131203239322e3333324c37382e36323232203239332e30364c38322e39343733203238382e3930374338332e37353738203238382e3132382038342e32323635203238372e3036342038342e32343932203238352e39344338342e32353739203238352e3531322038342e32303132203238352e3039352038342e30383831203238342e3639354c35312e33313735203238342e3033314c34322e36373131203239322e3333325a222066696c6c3d2223444134343533222f3e3c706174682069643d22537472697065322220643d224d36382e39333039203330322e33374c33322e39373636203330312e3634314c32362e34343438203330372e3931374332352e38343334203330382e3439342032352e343533203330392e3230372032352e32363733203330392e3936314c36302e32383435203331302e36374c36382e39333039203330322e33375a222066696c6c3d2223444134343533222f3e3c2f673e3c706174682069643d2243726f737347756172642220643d224d3131322e373835203239352e3530394c35392e39343837203234302e3438394335382e33323832203233382e3830312035352e36343639203233382e3734372035332e39353934203234302e3336374c34342e37383734203234392e3137324334332e30393937203235302e3739362034332e30343534203235332e3437372034342e363636203235352e3136314c39372e35303137203331302e3138334339382e3238203331302e3939332039392e33343738203331312e343632203130302e343731203331312e343835433130312e353938203331312e353038203130322e363834203331312e303832203130332e343934203331302e3330344c3131322e363633203330312e343939433131342e333531203239392e383831203131342e343035203239372e313934203131322e373835203239352e3530395a222066696c6c3d2223464643453534222f3e3c706174682069643d22506f6d6d656c2220643d224d34352e32333733203332342e3131324334352e333239203331392e3538372034332e36353234203331352e3239352034302e353138203331322e3032374333342e30343231203330352e3238332032332e32393235203330352e3036352031362e35343837203331312e3534314331332e32383432203331342e3637392031312e34333535203331382e3930312031312e33343338203332332e3432354331312e32353232203332372e39352031322e39323838203333322e3234332031362e30363331203333352e3531314331392e32303037203333382e3737382032332e34313936203334302e3632372032372e39343732203334302e3731394333322e34373437203334302e38312033362e37363531203333392e3133342034302e30333234203333352e3939364334332e32393639203333322e3835392034352e31343537203332382e3633362034352e32333733203332342e3131325a222066696c6c3d2223464643453534222f3e3c706174682069643d2248696c7444657461696c2220643d224d32382e32303437203332382e3030364333302e35343432203332382e3035332033322e34373931203332362e3139342033322e35323636203332332e3835334333322e353734203332312e3531322033302e37313539203331392e3537352032382e33373635203331392e3532384332362e303337203331392e3438312032342e313032203332312e33342032342e30353436203332332e3638314332342e30303732203332362e3032322032352e38363532203332372e3935382032382e32303437203332382e3030365a222066696c6c3d2223463642423432222f3e3c2f673e3c2f673e3c2f673e3c646566733e3c636c6970506174682069643d22636c6970305f315f33223e3c726563742077696474683d223230332e34313722206865696768743d223230332e343137222066696c6c3d22776869746522207472616e73666f726d3d227472616e736c6174652831352e31323034203133372920726f7461746528312e313630363629222f3e3c2f636c6970506174683e3c2f646566733e3c2f7376673e3c7376672077696474683d2233353022206865696768743d22333530222076696577426f783d223020302033353020333530222066696c6c3d226e6f6e652220786d6c6e733d22687474703a2f2f7777772e77332e6f72672f323030302f737667223e3c672069643d224672616d652031223e3c672069643d2273776f72642d7376677265706f2d636f6d20312220636c69702d706174683d2275726c2823636c6970305f315f3329223e3c706174682069643d22426c616465426173652220643d224d3230392e333032203137392e333238433230392e383732203137382e373738203231302e323737203137382e303735203231302e343733203137372e3330364c3231382e323835203134362e333038433231382e363336203134342e3839203231382e323338203134332e333931203231372e323239203134322e333337433231362e3232203134312e323833203231342e373333203134302e383234203231332e333035203134312e3132344c3138322e303135203134372e363638433138312e323336203134372e383332203138302e3532203134382e323039203137392e3935203134382e3735394c36382e36333537203235352e3634374336362e393438203235372e3237312036362e38393337203235392e3935322036382e35313432203236312e3634334c39312e39393531203238362e3039384339322e37373334203238362e3930382039332e38343434203238372e3337372039342e39363734203238372e344339362e30393037203238372e3432322039372e31373636203238362e3939372039372e39383732203238362e3231394c3230392e333032203137392e3332385a222066696c6c3d2223434344314439222f3e3c706174682069643d22426c6164654564676522206f7061636974793d22302e322220643d224d3231372e323239203134322e333337433231362e323139203134312e323833203231342e373333203134302e383234203231332e333034203134312e3132344c3138322e303135203134372e363638433138312e323335203134372e383332203138302e3532203134382e323039203137392e3935203134382e3735394c36382e36333537203235352e3634374336362e393438203235372e3237312036362e38393337203235392e3935322036382e35313432203236312e3634334c39312e39393531203238362e3039384339322e37373334203238362e3930382039332e38343434203238372e3337372039342e39363734203238372e344339362e30393037203238372e3432322039372e31373636203238362e3939372039372e39383732203238362e3231394c3230392e333032203137392e333238433230392e383732203137382e373738203231302e323737203137382e303735203231302e343733203137372e3330364c3231382e323835203134362e333038433231382e363336203134342e383839203231382e323338203134332e333931203231372e323239203134322e3333375a4d3231342e3137203134352e3237314c3230362e333635203137362e32374c39352e30353332203238332e3136314c37312e35363936203235382e3730354c3138322e383831203135312e3831384c3231342e3137203134352e3237315a222066696c6c3d227768697465222f3e3c706174682069643d22426c61646546756c6c65722220643d224d38302e32353239203237332e38374337382e36333234203237322e3137392037382e36383637203236392e3439382038302e33373433203236372e3837344c3135382e363838203139322e363736433136302e333739203139312e303536203136332e3036203139312e3131203136342e363737203139322e373938433136362e333031203139342e343835203136362e323437203139372e3137203136342e353536203139382e37394c38362e32343534203237332e3939314338342e35353739203237352e3630392038312e38373636203237352e3535352038302e32353239203237332e38375a222066696c6c3d2223414142324243222f3e3c672069643d2248696c74223e3c672069643d2248616e646c654465636f223e3c706174682069643d2248616e646c652220643d224d38342e32343932203238352e39344338342e323732203238342e3831372038332e383437203238332e3732382038332e30363836203238322e3931384c37312e33323638203237302e36394336392e37303633203236392036372e30323139203236382e3934352036352e33333433203237302e3536384c32362e34343438203330372e3931374332342e37353733203330392e3533342032342e373033203331322e3231362032362e33323334203331332e3930364c33382e30363533203332362e3133344333392e36383539203332372e3831382034322e33363939203332372e3837322034342e30353734203332362e3235354c38322e39343639203238382e3930374338332e37353738203238382e3132392038342e32323635203238372e3036342038342e32343932203238352e39345a222066696c6c3d2223454435353634222f3e3c706174682069643d22566563746f722220643d224d34322e36373131203239322e3333324c37382e36323232203239332e30364c38322e39343733203238382e3930374338332e37353738203238382e3132382038342e32323635203238372e3036342038342e32343932203238352e39344338342e32353739203238352e3531322038342e32303132203238352e3039352038342e30383831203238342e3639354c35312e33313735203238342e3033314c34322e36373131203239322e3333325a222066696c6c3d2223444134343533222f3e3c706174682069643d22566563746f725f322220643d224d36382e39333039203330322e33374c33322e39373636203330312e3634314c32362e34343438203330372e3931374332352e38343334203330382e3439342032352e343533203330392e3230372032352e32363733203330392e3936314c36302e32383435203331302e36374c36382e39333039203330322e33375a222066696c6c3d2223444134343533222f3e3c2f673e3c706174682069643d2243726f737347756172642220643d224d3131322e373835203239352e3530394c35392e39343837203234302e3438394335382e33323832203233382e3830312035352e36343639203233382e3734372035332e39353934203234302e3336374c34342e37383734203234392e3137324334332e30393937203235302e3739362034332e30343534203235332e3437372034342e363636203235352e3136314c39372e35303137203331302e3138334339382e3238203331302e3939332039392e33343738203331312e343632203130302e343731203331312e343835433130312e353938203331312e353038203130322e363834203331312e303832203130332e343934203331302e3330344c3131322e363633203330312e343939433131342e333531203239392e383831203131342e343035203239372e313934203131322e373835203239352e3530395a222066696c6c3d2223464643453534222f3e3c706174682069643d22506f6d6d656c2220643d224d34352e32333733203332342e3131324334352e333239203331392e3538372034332e36353234203331352e3239352034302e353138203331322e3032374333342e30343231203330352e3238332032332e32393235203330352e3036352031362e35343837203331312e3534314331332e32383432203331342e3637392031312e34333535203331382e3930312031312e33343338203332332e3432354331312e32353232203332372e39352031322e39323838203333322e3234332031362e30363331203333352e3531314331392e32303037203333382e3737382032332e34313936203334302e3632372032372e39343732203334302e3731394333322e34373437203334302e38312033362e37363531203333392e3133342034302e30333234203333352e3939364334332e32393639203333322e3835392034352e31343537203332382e3633362034352e32333733203332342e3131325a222066696c6c3d2223464643453534222f3e3c706174682069643d22566563746f725f332220643d224d32382e32303437203332382e3030364333302e35343432203332382e3035332033322e34373931203332362e3139342033322e35323636203332332e3835334333322e353734203332312e3531322033302e37313539203331392e3537352032382e33373635203331392e3532384332362e303337203331392e3438312032342e313032203332312e33342032342e30353436203332332e3638314332342e30303732203332362e3032322032352e38363532203332372e3935382032382e32303437203332382e3030365a222066696c6c3d2223463642423432222f3e3c2f673e3c2f673e3c2f673e3c646566733e3c636c6970506174682069643d22636c6970305f315f33223e3c726563742077696474683d223230332e34313722206865696768743d223230332e343137222066696c6c3d22776869746522207472616e73666f726d3d227472616e736c6174652831352e31323034203133372920726f7461746528312e313630363629222f3e3c2f636c6970506174683e3c2f646566733e3c2f7376673e3c7376672077696474683d2233353022206865696768743d22333530222076696577426f783d223020302033353020333530222066696c6c3d226e6f6e652220786d6c6e733d22687474703a2f2f7777772e77332e6f72672f323030302f737667223e3c672069643d2270726963655f73776f72642220636c69702d706174683d2275726c2823636c6970305f315f3329223e3c672069643d22466c616d65223e3c706174682069643d22526564466c616d652220643d224d34372e37373036203232362e3835354335332e38373733203235312e33362035382e37383835203236342e3033322037342e30393431203238312e3933324338302e31313937203238372e3932372038342e37303034203239302e3538362039352e32303631203239332e393535433130302e353539203239362e343937203130342e393536203239372e383434203131382e373437203239392e393136433133332e363731203330362e373638203134302e323135203330352e353633203135302e363832203330302e303832433133392e383337203239312e3739203135342e313634203238312e353234203134352e333736203237382e363739433133362e353838203237352e383333203134392e393337203235392e363639203136352e323536203236332e373032433136382e323239203237332e373239203137322e3332203237362e363936203138322e313935203237392e313633433139312e343837203238302e393939203139382e303039203238302e353538203231322e333837203237362e373033433232392e313731203236382e313936203233332e353334203235392e393039203234312e323437203234352e303832433232392e373439203235352e303936203232332e363137203235382e313534203231332e3631203235362e303834433230332e303037203235332e393031203139392e313135203235302e373635203230312e333538203233362e363231433230372e303139203232382e343633203231322e343237203233302e313633203232342e3136203232362e333831433233352e383932203232322e353938203235382e3539203230362e323135203237342e323736203138362e323134433238302e3639203137362e363132203237392e383631203137332e313735203237382e323733203136372e303932433236392e323032203137392e363236203236332e313132203138342e3039203235302e353135203138372e323938433233382e343236203139302e303836203233332e373737203138382e313937203232392e303336203137392e303739433231362e393834203137302e333133203236382e383439203134392e313235203237362e353735203134312e373336433238342e333031203133342e333436203238362e333238203132302e3339203239342e343136203131372e363533433330322e353034203131342e393135203330302e3432362039352e31393138203330302e3432362039352e31393138433239312e333437203130372e393639203238352e353033203131332e323038203237332e333331203131382e303734433236332e383434203132332e313831203236302e363139203132312e333039203235362e383834203131332e343133433235342e333233203130392e333736203235352e353233203130362e373232203236322e383232203130312e323337433237362e39372038392e35323039203238352e3432342038342e36363232203239362e3833362036332e39363936433330312e3338392035302e38303439203330342e3335352033362e30303335203331392e3535372031362e33393439433330372e3430342031382e39383537203330302e3539352032322e38303331203238382e34362033342e35383933433238302e3834372034322e33353839203237362e3838322034382e353935203237302e3235322036322e34373731433236322e3237342037352e35383133203235362e3935322037382e37373837203234362e3035322037372e36353131433233382e3034392037302e36373937203233372e3036312036342e3233203234352e3635342034352e323031314c3232372e3938332036312e31353933433232302e3835312037342e37353137203232302e3630392037392e39353133203232322e3137312038372e39343033433231342e373336203130322e343031203230392e373233203130352e373539203139392e373134203130352e3734433138362e3234362039312e31353531203138362e36382038312e39303531203139362e3139372036342e32333334433138392e3734332036362e30363734203138362e3637352036342e38323636203137352e3939392038342e303935433137382e313738203130322e393535203137362e333032203131332e373032203136352e323536203133332e323838433135352e363231203133362e393137203135312e313839203133362e373337203134362e363439203132382e373235433134352e303433203130382e363335203134382e3137352039362e39343432203136352e3833352037342e38313833433134382e3438332037382e39373736203134302e3135322038352e33303234203132372e303038203130312e343833433131362e373534203131392e383335203131352e333332203132392e343934203132352e373339203134342e383331433130382e363336203136332e313638203132312e303336203137312e353936203131332e323237203137382e393533433131332e323237203137382e393533203130362e303631203138372e3933382039362e35313039203138302e3235374338362e393631203137322e3537362039322e34303432203133312e343833203130312e303634203131342e30334339382e38393039203131312e3432332036332e33393038203134372e3233322035372e39373037203136352e3738324335322e35353036203138342e3333322036392e32393137203139392e3637342036342e32383931203232312e3233314336312e31333837203233302e3038352035372e33393639203233312e3036352034372e37373036203232362e3835355a222066696c6c3d222345383532324122207374726f6b653d222335453545354522207374726f6b652d6f7061636974793d22302e37222f3e3c706174682069643d224f72616e6765466c616d652220643d224d3132392e363539203239322e323636433130392e333131203238392e3130342039382e36353734203238362e3034362038322e39373833203237342e3933354337372e36353838203237302e3438342037352e31353635203236362e3936312037312e36333133203235382e3638314336392e31363631203235342e3532322036372e373432203235312e3035322036352e30323236203234302e3031324335382e33333833203232382e3430312035382e383234203232332e3030322036322e34383531203231342e3130364337302e303331203232322e332037372e32383433203230392e3932312038302e32353532203231362e3834354338332e323236203232332e3736392039352e33333937203231312e3735312039302e39313435203139392e3631344338322e35353233203139372e3933342037392e38333637203139342e3833312037372e30393138203138362e3939384337342e39303235203137392e3539312037342e3737203137342e3236362037362e38313638203136322e3331344338322e34353738203134382e3036392038382e38353531203134332e393232203130302e333039203133362e3537364339332e30343631203134362e3634312039312e30323537203135312e3834312039332e34353931203135392e3831314339362e30323831203136382e3235372039382e38363539203137312e313836203131302e313737203136382e3333433131362e333732203136332e313338203131342e353835203135382e383733203131362e373732203134392e303735433131382e393539203133392e323736203133302e353438203131392e363534203134352e363031203130352e343539433135322e3931312039392e35353037203135352e3736332039392e39373137203136302e383139203130302e383135433135312e333239203130392e303935203134382e313634203131342e333634203134362e353038203132342e383233433134352e313535203133342e383339203134372e303338203133382e343733203135342e373935203134312e363534433136322e383136203135302e373933203137362e3131203130372e313438203138312e353236203130302e333336433138362e3934322039332e35323438203139382e3131362039302e38353833203139392e3732392038342e30393335433230312e3334322037372e33323837203231372e3530362037372e35373134203231372e3530362037372e35373134433230372e3831392038352e38373532203230342e3030372039312e30303137203230302e393734203130312e323337433139372e353433203130392e3331203139392e333035203131312e3739203230352e393934203131342e323434433230392e343633203131362e303236203231312e353237203131342e383538203231352e343239203130382e353333433232332e3837342039362e31393234203232372e3138312038382e39373537203234332e3131362037382e31393834433235332e3435382037332e35333936203236352e3234382037302e303438203238302e3031382035362e32373434433237382e38332036362e33323739203237362e3234342037322e313333203236372e3539312038322e38343437433236312e3835382038392e35393237203235372e3039362039332e32363735203234362e3332382039392e36363435433233362e323933203130372e303939203233342e303938203131312e363533203233352e383333203132302e343136433234322e303934203132362e343031203234372e343032203132362e3733203236322e32203131382e3336334c3235302e353738203133332e383733433234302e303833203134302e363537203233352e383831203134312e323334203232392e3238203134302e353532433231382e313033203134372e363435203231352e373535203135312e393539203231362e353233203136302e303831433232392e333733203136392e393433203233362e383438203136382e393134203235302e343734203135392e383936433234392e343731203136352e323638203235302e373039203136372e363638203233352e383734203137372e373433433232302e343034203137372e333535203231312e383233203137392e363635203139362e373538203139302e303634433139342e353338203139382e313439203139352e303137203230312e373333203230312e383631203230342e383331433231382e323837203230342e363633203232372e3534203230312e323635203234342e313638203138352e333133433234322e303938203139392e37203233372e353932203230362e393235203232352e343439203231382e373738433231312e333235203232382e343433203230332e353933203233302e333034203139302e333632203232322e393831433137362e373637203233382e323035203136382e393934203232382e373538203136332e363131203233352e363335433136332e363131203233352e363335203135362e383538203234322e313038203136332e3831203234392e323937433137302e373633203235362e343835203230332e373034203234392e303538203231372e323137203234302e373532433231392e343937203234322e333235203139332e313036203237332e373539203137382e343538203237392e353136433136332e383131203238352e323733203135302e303939203237322e383039203133322e393831203237382e343438433132362e303331203238312e363533203132352e353138203238342e373632203132392e363539203239322e3236365a222066696c6c3d222345464136334422207374726f6b653d222335453545354522207374726f6b652d6f7061636974793d22302e37222f3e3c706174682069643d2259656c6c6f77466c616d652220643d224d37302e36393732203234342e3536324337332e39323738203235372e3533332037362e35323635203236342e32342038342e36323637203237332e3731344338372e38313537203237362e3838372039302e32343031203237382e3239342039352e38303038203238302e3037374339382e36333431203238312e343232203130302e393631203238322e313335203130382e323631203238332e3233433131362e3136203238362e383537203131392e363234203238362e323138203132352e313635203238332e333136433131392e343235203237382e393237203132372e303039203237332e343933203132322e333538203237312e393837433131372e373036203237302e343831203132342e373733203236312e393235203133322e383831203236342e303538433133342e343535203236392e333636203133362e3632203237302e393336203134312e383437203237322e323431433134362e373635203237332e323132203135302e323137203237322e393738203135372e383238203237302e393336433136362e373133203236362e343332203136392e303232203236322e303435203137332e313036203235342e313936433136372e303139203235392e343938203136332e373734203236312e313137203135382e343737203236302e303232433135322e383635203235382e383637203135302e383035203235372e323038203135312e393933203234392e3732433135342e3939203234352e343032203135372e383533203234362e333031203136342e303633203234342e323938433137302e323733203234322e323935203138322e323839203233332e363232203139302e353933203232332e303333433139332e393839203231372e3935203139332e3535203231362e313331203139322e373131203231322e393131433138372e393038203231392e353437203138342e363834203232312e3931203137382e303136203232332e363039433137312e363137203232352e303836203136392e313536203232342e303836203136362e363437203231392e3236433136302e323639203231342e363231203138372e373233203230332e343031203139312e383134203139392e343839433139352e393034203139352e353737203139362e393737203138382e3139203230312e323539203138362e3734433230352e3534203138352e323931203230342e343431203137342e383531203230342e343431203137342e383531433139392e363335203138312e363135203139362e353431203138342e333838203139302e303938203138362e393635433138352e303736203138392e363639203138332e333639203138382e363738203138312e333933203138342e343939433138302e303338203138322e333632203138302e363733203138302e393537203138342e353337203137382e303533433139322e303236203137312e383531203139362e353032203136392e323738203230322e353434203135382e333234433230342e393534203135312e333535203230362e353236203134332e3532203231342e353734203133332e3134433230382e313431203133342e353132203230342e353337203133362e353333203139382e313132203134322e373733433139342e303832203134362e383836203139312e393833203135302e313837203138382e343732203135372e353336433138342e323438203136342e343733203138312e343331203136362e313636203137352e363632203136352e3537433137312e343236203136312e3838203137302e393034203135382e343636203137352e343533203134382e3339334c3136362e303939203135362e383431433136322e333233203136342e303337203136322e313934203136362e373839203136332e3032203137312e303138433135392e303834203137382e363733203135362e3433203138302e343531203135312e313332203138302e343432433134342e303035203137322e373232203134342e323335203136372e383236203134392e323733203135382e343731433134352e383537203135392e343432203134342e323333203135382e373836203133382e353831203136382e393836433133392e373333203137382e393639203133382e373339203138342e363537203133322e383931203139352e303236433132372e373931203139362e393437203132352e343435203139362e383532203132332e303433203139322e363132433132322e313934203138312e393738203132332e383533203137352e373839203133332e323032203136342e303736433132342e303137203136362e323739203131392e363037203136392e363237203131322e363438203137382e313933433130372e323139203138372e393039203130362e343636203139332e303231203131312e393733203230312e313339433130322e393139203231302e383437203130392e343832203231352e333037203130352e333438203231392e323032433130352e333438203231392e323032203130312e353534203232332e3935382039362e34393937203231392e3839334339312e34343533203231352e3832382039342e33323934203139342e3037362039382e39313437203138342e3833374339372e37363434203138332e3435372037382e393731203230322e3431342037362e31303037203231322e3233344337332e32333034203232322e3035332038322e30393037203233302e3137332037392e34343132203234312e3538344337372e37373239203234362e3237312037352e37393232203234362e37392037302e36393732203234342e3536325a222066696c6c3d222346424530353522207374726f6b653d222335453545354522207374726f6b652d6f7061636974793d22302e37222f3e3c2f673e3c706174682069643d22426c616465426173652220643d224d3331352e3738362037322e38343338433331362e3335362037322e32393334203331362e3736322037312e35393037203331362e3935382037302e383231374c3332342e37372033392e38323239433332352e3132312033382e343035203332342e3732332033362e39303637203332332e3731342033352e38353233433332322e3730352033342e37393738203332312e3231382033342e33333933203331392e3738392033342e363339344c3238382e352034312e31383331433238372e3732312034312e33343733203238372e3030352034312e37323433203238362e3433352034322e323734364c36382e36333536203235352e3634374336362e393438203235372e3237312036362e38393337203235392e3935322036382e35313431203236312e3634334c39312e393935203238362e3039384339322e37373334203238362e3930382039332e38343434203238372e3337372039342e39363733203238372e344339362e30393037203238372e3432322039372e31373636203238362e3939372039372e39383731203238362e3231394c3135332e363434203233322e3737344c3331352e3738362037322e383433385a222066696c6c3d2223443943434343222f3e3c706174682069643d22426c6164654564676522206f7061636974793d22302e322220643d224d3332332e3434342033362e30303835433332322e3433342033342e39353431203332302e3934382033342e34393536203331392e3531392033342e373935374c3330332e3837352033382e303637354c3238382e32332034312e33333933433238372e3435312034312e35303336203238362e3733352034312e38383035203238362e3136352034322e343330384c36382e36333536203235352e3634374336362e393438203235372e3237312036362e38393336203235392e3935322036382e35313431203236312e3634334c39312e393935203238362e3039384339322e37373333203238362e3930382039332e38343433203238372e3337372039342e39363733203238372e344339362e30393036203238372e3432322039372e31373635203238362e3939372039372e39383731203238362e3231394c3331352e353137203733433331362e3038372037322e34343936203331362e3439322037312e37343639203331362e3638382037302e3937384c3332342e352033392e39373932433332342e3835312033382e35363038203332342e3435332033372e30363236203332332e3434342033362e303038355a4d3332302e3338352033382e393432354c3331322e35382036392e393431344c39352e30353332203238332e3136314c37312e35363935203235382e3730354c3238392e3039362034352e343839334c3332302e3338352033382e393432355a222066696c6c3d227768697465222f3e3c706174682069643d22426c61646546756c6c65722220643d224d38302e32353239203237332e38374337382e36333234203237322e3137392037382e36383637203236392e3439382038302e33373433203236372e3837344c3139362e353131203135342e383534433139382e323031203135332e323333203230302e383833203135332e323838203230322e35203135342e393735433230342e313234203135362e363633203230342e303639203135392e333437203230322e333739203136302e3936384c38362e32343534203237332e3939314338342e35353739203237352e3630392038312e38373636203237352e3535352038302e32353239203237332e38375a222066696c6c3d2223424341414141222f3e3c672069643d2248696c74223e3c672069643d2248616e646c654465636f223e3c706174682069643d2248616e646c652220643d224d38342e32343932203238352e39344338342e323732203238342e3831372038332e383437203238332e3732382038332e30363836203238322e3931384c37312e33323638203237302e36394336392e37303633203236392036372e30323139203236382e3934352036352e33333433203237302e3536384c32362e34343438203330372e3931374332342e37353733203330392e3533342032342e373033203331322e3231362032362e33323334203331332e3930364c33382e30363533203332362e3133344333392e36383539203332372e3831382034322e33363939203332372e3837322034342e30353734203332362e3235354c38322e39343639203238382e3930374338332e37353738203238382e3132392038342e32323635203238372e3036342038342e32343932203238352e39345a222066696c6c3d2223454435353634222f3e3c706174682069643d22537472697065312220643d224d34322e36373131203239322e3333324c37382e36323232203239332e30364c38322e39343733203238382e3930374338332e37353738203238382e3132382038342e32323635203238372e3036342038342e32343932203238352e39344338342e32353739203238352e3531322038342e32303132203238352e3039352038342e30383831203238342e3639354c35312e33313735203238342e3033314c34322e36373131203239322e3333325a222066696c6c3d2223444134343533222f3e3c706174682069643d22537472697065322220643d224d36382e39333039203330322e33374c33322e39373636203330312e3634314c32362e34343438203330372e3931374332352e38343334203330382e3439342032352e343533203330392e3230372032352e32363733203330392e3936314c36302e32383435203331302e36374c36382e39333039203330322e33375a222066696c6c3d2223444134343533222f3e3c2f673e3c706174682069643d2243726f737347756172642220643d224d3131322e373835203239352e3530394c35392e39343837203234302e3438394335382e33323832203233382e3830312035352e36343639203233382e3734372035332e39353934203234302e3336374c34342e37383734203234392e3137324334332e30393937203235302e3739362034332e30343534203235332e3437372034342e363636203235352e3136314c39372e35303137203331302e3138334339382e3238203331302e3939332039392e33343738203331312e343632203130302e343731203331312e343835433130312e353938203331312e353038203130322e363834203331312e303832203130332e343934203331302e3330344c3131322e363633203330312e343939433131342e333531203239392e383831203131342e343035203239372e313934203131322e373835203239352e3530395a222066696c6c3d2223464643453534222f3e3c706174682069643d22506f6d6d656c2220643d224d34352e32333733203332342e3131324334352e333239203331392e3538372034332e36353234203331352e3239352034302e353138203331322e3032374333342e30343231203330352e3238332032332e32393235203330352e3036352031362e35343837203331312e3534314331332e32383432203331342e3637392031312e34333535203331382e3930312031312e33343338203332332e3432354331312e32353232203332372e39352031322e39323838203333322e3234332031362e30363331203333352e3531314331392e32303037203333382e3737382032332e34313936203334302e3632372032372e39343732203334302e3731394333322e34373437203334302e38312033362e37363531203333392e3133342034302e30333234203333352e3939364334332e32393639203333322e3835392034352e31343537203332382e3633362034352e32333733203332342e3131325a222066696c6c3d2223464643453534222f3e3c706174682069643d2248696c7444657461696c2220643d224d32382e32303437203332382e3030364333302e35343432203332382e3035332033322e34373931203332362e3139342033322e35323636203332332e3835334333322e353734203332312e3531322033302e37313539203331392e3537352032382e33373635203331392e3532384332362e303337203331392e3438312032342e313032203332312e33342032342e30353436203332332e3638314332342e30303732203332362e3032322032352e38363532203332372e3935382032382e32303437203332382e3030365a222066696c6c3d2223463642423432222f3e3c2f673e3c2f673e3c646566733e3c636c6970506174682069643d22636c6970305f315f33223e3c726563742077696474683d2233353022206865696768743d22333530222066696c6c3d227768697465222f3e3c2f636c6970506174683e3c2f646566733e3c2f7376673ea26469706673582212203b0e9b3b29607f57d068cecc2f023d29e82d70e2cb1ed924faf91d6f389ed91d64736f6c634300080b0033",
  "devdoc": {
    "kind": "dev",
    "methods": {},
    "version": 1
  },
  "userdoc": {
    "kind": "user",
    "methods": {},
    "version": 1
  },
  "storageLayout": {
    "storage": [],
    "types": null
  }
}