{
  "address": "0x275b7a355b3ffc92aDa77B28363C4e9aE0174CA9",
  "abi": [
    {
      "inputs": [
        {
          "internalType": "address",
          "name": "_priceFeedAddress",
          "type": "address"
        }
      ],
      "stateMutability": "nonpayable",
      "type": "constructor"
    },
    {
      "anonymous": false,
      "inputs": [
        {
          "indexed": true,
          "internalType": "address",
          "name": "owner",
          "type": "address"
        },
        {
          "indexed": true,
          "internalType": "address",
          "name": "approved",
          "type": "address"
        },
        {
          "indexed": true,
          "internalType": "uint256",
          "name": "tokenId",
          "type": "uint256"
        }
      ],
      "name": "Approval",
      "type": "event"
    },
    {
      "anonymous": false,
      "inputs": [
        {
          "indexed": true,
          "internalType": "address",
          "name": "owner",
          "type": "address"
        },
        {
          "indexed": true,
          "internalType": "address",
          "name": "operator",
          "type": "address"
        },
        {
          "indexed": false,
          "internalType": "bool",
          "name": "approved",
          "type": "bool"
        }
      ],
      "name": "ApprovalForAll",
      "type": "event"
    },
    {
      "anonymous": false,
      "inputs": [
        {
          "indexed": true,
          "internalType": "address",
          "name": "previousOwner",
          "type": "address"
        },
        {
          "indexed": true,
          "internalType": "address",
          "name": "newOwner",
          "type": "address"
        }
      ],
      "name": "OwnershipTransferred",
      "type": "event"
    },
    {
      "anonymous": false,
      "inputs": [
        {
          "indexed": true,
          "internalType": "address",
          "name": "from",
          "type": "address"
        },
        {
          "indexed": true,
          "internalType": "address",
          "name": "to",
          "type": "address"
        },
        {
          "indexed": true,
          "internalType": "uint256",
          "name": "tokenId",
          "type": "uint256"
        }
      ],
      "name": "Transfer",
      "type": "event"
    },
    {
      "inputs": [
        {
          "internalType": "address",
          "name": "to",
          "type": "address"
        },
        {
          "internalType": "uint256",
          "name": "tokenId",
          "type": "uint256"
        }
      ],
      "name": "approve",
      "outputs": [],
      "stateMutability": "nonpayable",
      "type": "function"
    },
    {
      "inputs": [
        {
          "internalType": "address",
          "name": "owner",
          "type": "address"
        }
      ],
      "name": "balanceOf",
      "outputs": [
        {
          "internalType": "uint256",
          "name": "",
          "type": "uint256"
        }
      ],
      "stateMutability": "view",
      "type": "function"
    },
    {
      "inputs": [],
      "name": "create",
      "outputs": [],
      "stateMutability": "nonpayable",
      "type": "function"
    },
    {
      "inputs": [
        {
          "internalType": "string",
          "name": "imageURI",
          "type": "string"
        }
      ],
      "name": "formatTokenURI",
      "outputs": [
        {
          "internalType": "string",
          "name": "",
          "type": "string"
        }
      ],
      "stateMutability": "pure",
      "type": "function"
    },
    {
      "inputs": [
        {
          "internalType": "uint256",
          "name": "tokenId",
          "type": "uint256"
        }
      ],
      "name": "getApproved",
      "outputs": [
        {
          "internalType": "address",
          "name": "",
          "type": "address"
        }
      ],
      "stateMutability": "view",
      "type": "function"
    },
    {
      "inputs": [
        {
          "internalType": "address",
          "name": "owner",
          "type": "address"
        },
        {
          "internalType": "address",
          "name": "operator",
          "type": "address"
        }
      ],
      "name": "isApprovedForAll",
      "outputs": [
        {
          "internalType": "bool",
          "name": "",
          "type": "bool"
        }
      ],
      "stateMutability": "view",
      "type": "function"
    },
    {
      "inputs": [],
      "name": "name",
      "outputs": [
        {
          "internalType": "string",
          "name": "",
          "type": "string"
        }
      ],
      "stateMutability": "view",
      "type": "function"
    },
    {
      "inputs": [],
      "name": "owner",
      "outputs": [
        {
          "internalType": "address",
          "name": "",
          "type": "address"
        }
      ],
      "stateMutability": "view",
      "type": "function"
    },
    {
      "inputs": [
        {
          "internalType": "uint256",
          "name": "tokenId",
          "type": "uint256"
        }
      ],
      "name": "ownerOf",
      "outputs": [
        {
          "internalType": "address",
          "name": "",
          "type": "address"
        }
      ],
      "stateMutability": "view",
      "type": "function"
    },
    {
      "inputs": [],
      "name": "renounceOwnership",
      "outputs": [],
      "stateMutability": "nonpayable",
      "type": "function"
    },
    {
      "inputs": [
        {
          "internalType": "address",
          "name": "from",
          "type": "address"
        },
        {
          "internalType": "address",
          "name": "to",
          "type": "address"
        },
        {
          "internalType": "uint256",
          "name": "tokenId",
          "type": "uint256"
        }
      ],
      "name": "safeTransferFrom",
      "outputs": [],
      "stateMutability": "nonpayable",
      "type": "function"
    },
    {
      "inputs": [
        {
          "internalType": "address",
          "name": "from",
          "type": "address"
        },
        {
          "internalType": "address",
          "name": "to",
          "type": "address"
        },
        {
          "internalType": "uint256",
          "name": "tokenId",
          "type": "uint256"
        },
        {
          "internalType": "bytes",
          "name": "_data",
          "type": "bytes"
        }
      ],
      "name": "safeTransferFrom",
      "outputs": [],
      "stateMutability": "nonpayable",
      "type": "function"
    },
    {
      "inputs": [
        {
          "internalType": "address",
          "name": "operator",
          "type": "address"
        },
        {
          "internalType": "bool",
          "name": "approved",
          "type": "bool"
        }
      ],
      "name": "setApprovalForAll",
      "outputs": [],
      "stateMutability": "nonpayable",
      "type": "function"
    },
    {
      "inputs": [
        {
          "internalType": "bytes4",
          "name": "interfaceId",
          "type": "bytes4"
        }
      ],
      "name": "supportsInterface",
      "outputs": [
        {
          "internalType": "bool",
          "name": "",
          "type": "bool"
        }
      ],
      "stateMutability": "view",
      "type": "function"
    },
    {
      "inputs": [
        {
          "internalType": "string",
          "name": "svg",
          "type": "string"
        }
      ],
      "name": "svgToImageURI",
      "outputs": [
        {
          "internalType": "string",
          "name": "",
          "type": "string"
        }
      ],
      "stateMutability": "pure",
      "type": "function"
    },
    {
      "inputs": [],
      "name": "symbol",
      "outputs": [
        {
          "internalType": "string",
          "name": "",
          "type": "string"
        }
      ],
      "stateMutability": "view",
      "type": "function"
    },
    {
      "inputs": [],
      "name": "tokenCounter",
      "outputs": [
        {
          "internalType": "uint256",
          "name": "",
          "type": "uint256"
        }
      ],
      "stateMutability": "view",
      "type": "function"
    },
    {
      "inputs": [
        {
          "internalType": "uint256",
          "name": "",
          "type": "uint256"
        }
      ],
      "name": "tokenIdToValue",
      "outputs": [
        {
          "internalType": "int256",
          "name": "",
          "type": "int256"
        }
      ],
      "stateMutability": "view",
      "type": "function"
    },
    {
      "inputs": [
        {
          "internalType": "uint256",
          "name": "tokenId",
          "type": "uint256"
        }
      ],
      "name": "tokenURI",
      "outputs": [
        {
          "internalType": "string",
          "name": "",
          "type": "string"
        }
      ],
      "stateMutability": "view",
      "type": "function"
    },
    {
      "inputs": [
        {
          "internalType": "address",
          "name": "from",
          "type": "address"
        },
        {
          "internalType": "address",
          "name": "to",
          "type": "address"
        },
        {
          "internalType": "uint256",
          "name": "tokenId",
          "type": "uint256"
        }
      ],
      "name": "transferFrom",
      "outputs": [],
      "stateMutability": "nonpayable",
      "type": "function"
    },
    {
      "inputs": [
        {
          "internalType": "address",
          "name": "newOwner",
          "type": "address"
        }
      ],
      "name": "transferOwnership",
      "outputs": [],
      "stateMutability": "nonpayable",
      "type": "function"
    }
  ],
  "transactionHash": "0xe70ad472cf582cc3b32bce8efd770a76a0ebcf2b48b5f4cde6e0814c00107830",
  "args": [
    "0x8A753747A1Fa494EC906cE90E9f37563A8AF630e"
  ],
  "numDeployments": 2,
  "solcInputHash": "edc73bce78bec200b99ad8c7f013d5e5",
  "bytecode": "0x60806040523480156200001157600080fd5b5060405162003b4b38038062003b4b833981810160405281019062000037919062000327565b6040518060400160405280600981526020017f5072696365204e465400000000000000000000000000000000000000000000008152506040518060400160405280600481526020017f504e4654000000000000000000000000000000000000000000000000000000008152508160009080519060200190620000bb9291906200020d565b508060019080519060200190620000d49291906200020d565b505050620000f7620000eb6200013f60201b60201c565b6200014760201b60201c565b80600860006101000a81548173ffffffffffffffffffffffffffffffffffffffff021916908373ffffffffffffffffffffffffffffffffffffffff16021790555050620003be565b600033905090565b6000600660009054906101000a900473ffffffffffffffffffffffffffffffffffffffff16905081600660006101000a81548173ffffffffffffffffffffffffffffffffffffffff021916908373ffffffffffffffffffffffffffffffffffffffff1602179055508173ffffffffffffffffffffffffffffffffffffffff168173ffffffffffffffffffffffffffffffffffffffff167f8be0079c531659141344cd1fd0a4f28419497f9722a3daafe3b4186f6b6457e060405160405180910390a35050565b8280546200021b9062000388565b90600052602060002090601f0160209004810192826200023f57600085556200028b565b82601f106200025a57805160ff19168380011785556200028b565b828001600101855582156200028b579182015b828111156200028a5782518255916020019190600101906200026d565b5b5090506200029a91906200029e565b5090565b5b80821115620002b95760008160009055506001016200029f565b5090565b600080fd5b600073ffffffffffffffffffffffffffffffffffffffff82169050919050565b6000620002ef82620002c2565b9050919050565b6200030181620002e2565b81146200030d57600080fd5b50565b6000815190506200032181620002f6565b92915050565b60006020828403121562000340576200033f620002bd565b5b6000620003508482850162000310565b91505092915050565b7f4e487b7100000000000000000000000000000000000000000000000000000000600052602260045260246000fd5b60006002820490506001821680620003a157607f821691505b60208210811415620003b857620003b762000359565b5b50919050565b61377d80620003ce6000396000f3fe608060405234801561001057600080fd5b50600436106101375760003560e01c806371aee193116100b8578063ba84a4c41161007c578063ba84a4c41461034c578063c87b56dd1461037c578063d082e381146103ac578063e985e9c5146103ca578063efc81a8c146103fa578063f2fde38b1461040457610137565b806371aee193146102a85780638da5cb5b146102d857806395d89b41146102f6578063a22cb46514610314578063b88d4fde1461033057610137565b806330d871c6116100ff57806330d871c6146101f257806342842e0e146102225780636352211e1461023e57806370a082311461026e578063715018a61461029e57610137565b806301ffc9a71461013c57806306fdde031461016c578063081812fc1461018a578063095ea7b3146101ba57806323b872dd146101d6575b600080fd5b61015660048036038101906101519190611ef6565b610420565b6040516101639190611f3e565b60405180910390f35b610174610502565b6040516101819190611ff2565b60405180910390f35b6101a4600480360381019061019f919061204a565b610594565b6040516101b191906120b8565b60405180910390f35b6101d460048036038101906101cf91906120ff565b610619565b005b6101f060048036038101906101eb919061213f565b610731565b005b61020c600480360381019061020791906122c7565b610791565b6040516102199190611ff2565b60405180910390f35b61023c6004803603810190610237919061213f565b610805565b005b6102586004803603810190610253919061204a565b610825565b60405161026591906120b8565b60405180910390f35b61028860048036038101906102839190612310565b6108d7565b604051610295919061234c565b60405180910390f35b6102a661098f565b005b6102c260048036038101906102bd91906122c7565b610a17565b6040516102cf9190611ff2565b60405180910390f35b6102e0610a67565b6040516102ed91906120b8565b60405180910390f35b6102fe610a91565b60405161030b9190611ff2565b60405180910390f35b61032e60048036038101906103299190612393565b610b23565b005b61034a60048036038101906103459190612474565b610b39565b005b6103666004803603810190610361919061204a565b610b9b565b6040516103739190612510565b60405180910390f35b6103966004803603810190610391919061204a565b610bb3565b6040516103a39190611ff2565b60405180910390f35b6103b4610dbf565b6040516103c1919061234c565b60405180910390f35b6103e460048036038101906103df919061252b565b610dc5565b6040516103f19190611f3e565b60405180910390f35b610402610e59565b005b61041e60048036038101906104199190612310565b610f77565b005b60007f80ac58cd000000000000000000000000000000000000000000000000000000007bffffffffffffffffffffffffffffffffffffffffffffffffffffffff1916827bffffffffffffffffffffffffffffffffffffffffffffffffffffffff191614806104eb57507f5b5e139f000000000000000000000000000000000000000000000000000000007bffffffffffffffffffffffffffffffffffffffffffffffffffffffff1916827bffffffffffffffffffffffffffffffffffffffffffffffffffffffff1916145b806104fb57506104fa8261106f565b5b9050919050565b6060600080546105119061259a565b80601f016020809104026020016040519081016040528092919081815260200182805461053d9061259a565b801561058a5780601f1061055f5761010080835404028352916020019161058a565b820191906000526020600020905b81548152906001019060200180831161056d57829003601f168201915b5050505050905090565b600061059f826110d9565b6105de576040517f08c379a00000000000000000000000000000000000000000000000000000000081526004016105d59061263e565b60405180910390fd5b6004600083815260200190815260200160002060009054906101000a900473ffffffffffffffffffffffffffffffffffffffff169050919050565b600061062482610825565b90508073ffffffffffffffffffffffffffffffffffffffff168373ffffffffffffffffffffffffffffffffffffffff161415610695576040517f08c379a000000000000000000000000000000000000000000000000000000000815260040161068c906126d0565b60405180910390fd5b8073ffffffffffffffffffffffffffffffffffffffff166106b4611145565b73ffffffffffffffffffffffffffffffffffffffff1614806106e357506106e2816106dd611145565b610dc5565b5b610722576040517f08c379a000000000000000000000000000000000000000000000000000000000815260040161071990612762565b60405180910390fd5b61072c838361114d565b505050565b61074261073c611145565b82611206565b610781576040517f08c379a0000000000000000000000000000000000000000000000000000000008152600401610778906127f4565b60405180910390fd5b61078c8383836112e4565b505050565b606060006040518060400160405280601a81526020017f646174613a696d6167652f7376672b786d6c3b6261736536342c000000000000815250905060006107d884611540565b905081816040516020016107ed929190612850565b60405160208183030381529060405292505050919050565b61082083838360405180602001604052806000815250610b39565b505050565b6000806002600084815260200190815260200160002060009054906101000a900473ffffffffffffffffffffffffffffffffffffffff169050600073ffffffffffffffffffffffffffffffffffffffff168173ffffffffffffffffffffffffffffffffffffffff1614156108ce576040517f08c379a00000000000000000000000000000000000000000000000000000000081526004016108c5906128e6565b60405180910390fd5b80915050919050565b60008073ffffffffffffffffffffffffffffffffffffffff168273ffffffffffffffffffffffffffffffffffffffff161415610948576040517f08c379a000000000000000000000000000000000000000000000000000000000815260040161093f90612978565b60405180910390fd5b600360008373ffffffffffffffffffffffffffffffffffffffff1673ffffffffffffffffffffffffffffffffffffffff168152602001908152602001600020549050919050565b610997611145565b73ffffffffffffffffffffffffffffffffffffffff166109b5610a67565b73ffffffffffffffffffffffffffffffffffffffff1614610a0b576040517f08c379a0000000000000000000000000000000000000000000000000000000008152600401610a02906129e4565b60405180910390fd5b610a1560006116b9565b565b6060610a4182604051602001610a2d9190612b5a565b604051602081830303815290604052611540565b604051602001610a519190612be9565b6040516020818303038152906040529050919050565b6000600660009054906101000a900473ffffffffffffffffffffffffffffffffffffffff16905090565b606060018054610aa09061259a565b80601f0160208091040260200160405190810160405280929190818152602001828054610acc9061259a565b8015610b195780601f10610aee57610100808354040283529160200191610b19565b820191906000526020600020905b815481529060010190602001808311610afc57829003601f168201915b5050505050905090565b610b35610b2e611145565b838361177f565b5050565b610b4a610b44611145565b83611206565b610b89576040517f08c379a0000000000000000000000000000000000000000000000000000000008152600401610b80906127f4565b60405180910390fd5b610b95848484846118ec565b50505050565b60096020528060005260406000206000915090505481565b6060610bbe826110d9565b610bfd576040517f08c379a0000000000000000000000000000000000000000000000000000000008152600401610bf490612c7d565b60405180910390fd5b6000600860009054906101000a900473ffffffffffffffffffffffffffffffffffffffff1673ffffffffffffffffffffffffffffffffffffffff1663feaf968c6040518163ffffffff1660e01b815260040160a060405180830381865afa158015610c6c573d6000803e3d6000fd5b505050506040513d601f19601f82011682018060405250810190610c909190612d20565b505050915050610cd46040518060400160405280600f81526020017f63757272656e7456616c7565203d200000000000000000000000000000000000815250611948565b610cdd816119e1565b60006009600085815260200190815260200160002054905060006064828385610d069190612dca565b610d109190612e8d565b610d1a9190612ef7565b90506000733d3fe783EB9866e0Ce8e784AaB0a60a2c3dD3b8e63b01c0830836040518263ffffffff1660e01b8152600401610d55919061301d565b600060405180830381865af4158015610d72573d6000803e3d6000fd5b505050506040513d6000823e3d601f19601f82011682018060405250810190610d9b91906130a8565b90506000610da882610791565b9050610db381610a17565b95505050505050919050565b60075481565b6000600560008473ffffffffffffffffffffffffffffffffffffffff1673ffffffffffffffffffffffffffffffffffffffff16815260200190815260200160002060008373ffffffffffffffffffffffffffffffffffffffff1673ffffffffffffffffffffffffffffffffffffffff16815260200190815260200160002060009054906101000a900460ff16905092915050565b6000600860009054906101000a900473ffffffffffffffffffffffffffffffffffffffff1673ffffffffffffffffffffffffffffffffffffffff1663feaf968c6040518163ffffffff1660e01b815260040160a060405180830381865afa158015610ec8573d6000803e3d6000fd5b505050506040513d601f19601f82011682018060405250810190610eec9190612d20565b505050915050610f306040518060400160405280601081526020017f6372656174696f6e56616c7565203d2000000000000000000000000000000000815250611948565b610f39816119e1565b8060096000600754815260200190815260200160002081905550610f5f33600754611a7a565b6001600754610f6e91906130f1565b60078190555050565b610f7f611145565b73ffffffffffffffffffffffffffffffffffffffff16610f9d610a67565b73ffffffffffffffffffffffffffffffffffffffff1614610ff3576040517f08c379a0000000000000000000000000000000000000000000000000000000008152600401610fea906129e4565b60405180910390fd5b600073ffffffffffffffffffffffffffffffffffffffff168173ffffffffffffffffffffffffffffffffffffffff161415611063576040517f08c379a000000000000000000000000000000000000000000000000000000000815260040161105a906131b9565b60405180910390fd5b61106c816116b9565b50565b60007f01ffc9a7000000000000000000000000000000000000000000000000000000007bffffffffffffffffffffffffffffffffffffffffffffffffffffffff1916827bffffffffffffffffffffffffffffffffffffffffffffffffffffffff1916149050919050565b60008073ffffffffffffffffffffffffffffffffffffffff166002600084815260200190815260200160002060009054906101000a900473ffffffffffffffffffffffffffffffffffffffff1673ffffffffffffffffffffffffffffffffffffffff1614159050919050565b600033905090565b816004600083815260200190815260200160002060006101000a81548173ffffffffffffffffffffffffffffffffffffffff021916908373ffffffffffffffffffffffffffffffffffffffff160217905550808273ffffffffffffffffffffffffffffffffffffffff166111c083610825565b73ffffffffffffffffffffffffffffffffffffffff167f8c5be1e5ebec7d5bd14f71427d1e84f3dd0314c0f7b2291e5b200ac8c7c3b92560405160405180910390a45050565b6000611211826110d9565b611250576040517f08c379a00000000000000000000000000000000000000000000000000000000081526004016112479061324b565b60405180910390fd5b600061125b83610825565b90508073ffffffffffffffffffffffffffffffffffffffff168473ffffffffffffffffffffffffffffffffffffffff1614806112ca57508373ffffffffffffffffffffffffffffffffffffffff166112b284610594565b73ffffffffffffffffffffffffffffffffffffffff16145b806112db57506112da8185610dc5565b5b91505092915050565b8273ffffffffffffffffffffffffffffffffffffffff1661130482610825565b73ffffffffffffffffffffffffffffffffffffffff161461135a576040517f08c379a0000000000000000000000000000000000000000000000000000000008152600401611351906132dd565b60405180910390fd5b600073ffffffffffffffffffffffffffffffffffffffff168273ffffffffffffffffffffffffffffffffffffffff1614156113ca576040517f08c379a00000000000000000000000000000000000000000000000000000000081526004016113c19061336f565b60405180910390fd5b6113d5838383611a98565b6113e060008261114d565b6001600360008573ffffffffffffffffffffffffffffffffffffffff1673ffffffffffffffffffffffffffffffffffffffff1681526020019081526020016000206000828254611430919061338f565b925050819055506001600360008473ffffffffffffffffffffffffffffffffffffffff1673ffffffffffffffffffffffffffffffffffffffff168152602001908152602001600020600082825461148791906130f1565b92505081905550816002600083815260200190815260200160002060006101000a81548173ffffffffffffffffffffffffffffffffffffffff021916908373ffffffffffffffffffffffffffffffffffffffff160217905550808273ffffffffffffffffffffffffffffffffffffffff168473ffffffffffffffffffffffffffffffffffffffff167fddf252ad1be2c89b69c2b068fc378daa952ba7f163c4a11628f55a4df523b3ef60405160405180910390a4505050565b6060600082511415611563576040518060200160405280600081525090506116b4565b6000604051806060016040528060408152602001613708604091399050600060036002855161159291906130f1565b61159c91906133c3565b60046115a891906133f4565b905060006020826115b991906130f1565b67ffffffffffffffff8111156115d2576115d161219c565b5b6040519080825280601f01601f1916602001820160405280156116045781602001600182028036833780820191505090505b509050818152600183018586518101602084015b81831015611673576003830192508251603f8160121c168501518253600182019150603f81600c1c168501518253600182019150603f8160061c168501518253600182019150603f8116850151825360018201915050611618565b60038951066001811461168d576002811461169d576116a8565b613d3d60f01b60028303526116a8565b603d60f81b60018303525b50505050508093505050505b919050565b6000600660009054906101000a900473ffffffffffffffffffffffffffffffffffffffff16905081600660006101000a81548173ffffffffffffffffffffffffffffffffffffffff021916908373ffffffffffffffffffffffffffffffffffffffff1602179055508173ffffffffffffffffffffffffffffffffffffffff168173ffffffffffffffffffffffffffffffffffffffff167f8be0079c531659141344cd1fd0a4f28419497f9722a3daafe3b4186f6b6457e060405160405180910390a35050565b8173ffffffffffffffffffffffffffffffffffffffff168373ffffffffffffffffffffffffffffffffffffffff1614156117ee576040517f08c379a00000000000000000000000000000000000000000000000000000000081526004016117e59061349a565b60405180910390fd5b80600560008573ffffffffffffffffffffffffffffffffffffffff1673ffffffffffffffffffffffffffffffffffffffff16815260200190815260200160002060008473ffffffffffffffffffffffffffffffffffffffff1673ffffffffffffffffffffffffffffffffffffffff16815260200190815260200160002060006101000a81548160ff0219169083151502179055508173ffffffffffffffffffffffffffffffffffffffff168373ffffffffffffffffffffffffffffffffffffffff167f17307eab39ab6107e8899845ad3d59bd9653f200f220920489ca2b5937696c31836040516118df9190611f3e565b60405180910390a3505050565b6118f78484846112e4565b61190384848484611a9d565b611942576040517f08c379a00000000000000000000000000000000000000000000000000000000081526004016119399061352c565b60405180910390fd5b50505050565b6119de8160405160240161195c9190611ff2565b6040516020818303038152906040527f41304fac000000000000000000000000000000000000000000000000000000007bffffffffffffffffffffffffffffffffffffffffffffffffffffffff19166020820180517bffffffffffffffffffffffffffffffffffffffffffffffffffffffff8381831617835250505050611c25565b50565b611a77816040516024016119f59190612510565b6040516020818303038152906040527f4e0c1d1d000000000000000000000000000000000000000000000000000000007bffffffffffffffffffffffffffffffffffffffffffffffffffffffff19166020820180517bffffffffffffffffffffffffffffffffffffffffffffffffffffffff8381831617835250505050611c25565b50565b611a94828260405180602001604052806000815250611c4e565b5050565b505050565b6000611abe8473ffffffffffffffffffffffffffffffffffffffff16611ca9565b15611c18578373ffffffffffffffffffffffffffffffffffffffff1663150b7a02611ae7611145565b8786866040518563ffffffff1660e01b8152600401611b0994939291906135a1565b6020604051808303816000875af1925050508015611b4557506040513d601f19601f82011682018060405250810190611b429190613602565b60015b611bc8573d8060008114611b75576040519150601f19603f3d011682016040523d82523d6000602084013e611b7a565b606091505b50600081511415611bc0576040517f08c379a0000000000000000000000000000000000000000000000000000000008152600401611bb79061352c565b60405180910390fd5b805181602001fd5b63150b7a0260e01b7bffffffffffffffffffffffffffffffffffffffffffffffffffffffff1916817bffffffffffffffffffffffffffffffffffffffffffffffffffffffff191614915050611c1d565b600190505b949350505050565b60008151905060006a636f6e736f6c652e6c6f679050602083016000808483855afa5050505050565b611c588383611cbc565b611c656000848484611a9d565b611ca4576040517f08c379a0000000000000000000000000000000000000000000000000000000008152600401611c9b9061352c565b60405180910390fd5b505050565b600080823b905060008111915050919050565b600073ffffffffffffffffffffffffffffffffffffffff168273ffffffffffffffffffffffffffffffffffffffff161415611d2c576040517f08c379a0000000000000000000000000000000000000000000000000000000008152600401611d239061367b565b60405180910390fd5b611d35816110d9565b15611d75576040517f08c379a0000000000000000000000000000000000000000000000000000000008152600401611d6c906136e7565b60405180910390fd5b611d8160008383611a98565b6001600360008473ffffffffffffffffffffffffffffffffffffffff1673ffffffffffffffffffffffffffffffffffffffff1681526020019081526020016000206000828254611dd191906130f1565b92505081905550816002600083815260200190815260200160002060006101000a81548173ffffffffffffffffffffffffffffffffffffffff021916908373ffffffffffffffffffffffffffffffffffffffff160217905550808273ffffffffffffffffffffffffffffffffffffffff16600073ffffffffffffffffffffffffffffffffffffffff167fddf252ad1be2c89b69c2b068fc378daa952ba7f163c4a11628f55a4df523b3ef60405160405180910390a45050565b6000604051905090565b600080fd5b600080fd5b60007fffffffff0000000000000000000000000000000000000000000000000000000082169050919050565b611ed381611e9e565b8114611ede57600080fd5b50565b600081359050611ef081611eca565b92915050565b600060208284031215611f0c57611f0b611e94565b5b6000611f1a84828501611ee1565b91505092915050565b60008115159050919050565b611f3881611f23565b82525050565b6000602082019050611f536000830184611f2f565b92915050565b600081519050919050565b600082825260208201905092915050565b60005b83811015611f93578082015181840152602081019050611f78565b83811115611fa2576000848401525b50505050565b6000601f19601f8301169050919050565b6000611fc482611f59565b611fce8185611f64565b9350611fde818560208601611f75565b611fe781611fa8565b840191505092915050565b6000602082019050818103600083015261200c8184611fb9565b905092915050565b6000819050919050565b61202781612014565b811461203257600080fd5b50565b6000813590506120448161201e565b92915050565b6000602082840312156120605761205f611e94565b5b600061206e84828501612035565b91505092915050565b600073ffffffffffffffffffffffffffffffffffffffff82169050919050565b60006120a282612077565b9050919050565b6120b281612097565b82525050565b60006020820190506120cd60008301846120a9565b92915050565b6120dc81612097565b81146120e757600080fd5b50565b6000813590506120f9816120d3565b92915050565b6000806040838503121561211657612115611e94565b5b6000612124858286016120ea565b925050602061213585828601612035565b9150509250929050565b60008060006060848603121561215857612157611e94565b5b6000612166868287016120ea565b9350506020612177868287016120ea565b925050604061218886828701612035565b9150509250925092565b600080fd5b600080fd5b7f4e487b7100000000000000000000000000000000000000000000000000000000600052604160045260246000fd5b6121d482611fa8565b810181811067ffffffffffffffff821117156121f3576121f261219c565b5b80604052505050565b6000612206611e8a565b905061221282826121cb565b919050565b600067ffffffffffffffff8211156122325761223161219c565b5b61223b82611fa8565b9050602081019050919050565b82818337600083830152505050565b600061226a61226584612217565b6121fc565b90508281526020810184848401111561228657612285612197565b5b612291848285612248565b509392505050565b600082601f8301126122ae576122ad612192565b5b81356122be848260208601612257565b91505092915050565b6000602082840312156122dd576122dc611e94565b5b600082013567ffffffffffffffff8111156122fb576122fa611e99565b5b61230784828501612299565b91505092915050565b60006020828403121561232657612325611e94565b5b6000612334848285016120ea565b91505092915050565b61234681612014565b82525050565b6000602082019050612361600083018461233d565b92915050565b61237081611f23565b811461237b57600080fd5b50565b60008135905061238d81612367565b92915050565b600080604083850312156123aa576123a9611e94565b5b60006123b8858286016120ea565b92505060206123c98582860161237e565b9150509250929050565b600067ffffffffffffffff8211156123ee576123ed61219c565b5b6123f782611fa8565b9050602081019050919050565b6000612417612412846123d3565b6121fc565b90508281526020810184848401111561243357612432612197565b5b61243e848285612248565b509392505050565b600082601f83011261245b5761245a612192565b5b813561246b848260208601612404565b91505092915050565b6000806000806080858703121561248e5761248d611e94565b5b600061249c878288016120ea565b94505060206124ad878288016120ea565b93505060406124be87828801612035565b925050606085013567ffffffffffffffff8111156124df576124de611e99565b5b6124eb87828801612446565b91505092959194509250565b6000819050919050565b61250a816124f7565b82525050565b60006020820190506125256000830184612501565b92915050565b6000806040838503121561254257612541611e94565b5b6000612550858286016120ea565b9250506020612561858286016120ea565b9150509250929050565b7f4e487b7100000000000000000000000000000000000000000000000000000000600052602260045260246000fd5b600060028204905060018216806125b257607f821691505b602082108114156125c6576125c561256b565b5b50919050565b7f4552433732313a20617070726f76656420717565727920666f72206e6f6e657860008201527f697374656e7420746f6b656e0000000000000000000000000000000000000000602082015250565b6000612628602c83611f64565b9150612633826125cc565b604082019050919050565b600060208201905081810360008301526126578161261b565b9050919050565b7f4552433732313a20617070726f76616c20746f2063757272656e74206f776e6560008201527f7200000000000000000000000000000000000000000000000000000000000000602082015250565b60006126ba602183611f64565b91506126c58261265e565b604082019050919050565b600060208201905081810360008301526126e9816126ad565b9050919050565b7f4552433732313a20617070726f76652063616c6c6572206973206e6f74206f7760008201527f6e6572206e6f7220617070726f76656420666f7220616c6c0000000000000000602082015250565b600061274c603883611f64565b9150612757826126f0565b604082019050919050565b6000602082019050818103600083015261277b8161273f565b9050919050565b7f4552433732313a207472616e736665722063616c6c6572206973206e6f74206f60008201527f776e6572206e6f7220617070726f766564000000000000000000000000000000602082015250565b60006127de603183611f64565b91506127e982612782565b604082019050919050565b6000602082019050818103600083015261280d816127d1565b9050919050565b600081905092915050565b600061282a82611f59565b6128348185612814565b9350612844818560208601611f75565b80840191505092915050565b600061285c828561281f565b9150612868828461281f565b91508190509392505050565b7f4552433732313a206f776e657220717565727920666f72206e6f6e657869737460008201527f656e7420746f6b656e0000000000000000000000000000000000000000000000602082015250565b60006128d0602983611f64565b91506128db82612874565b604082019050919050565b600060208201905081810360008301526128ff816128c3565b9050919050565b7f4552433732313a2062616c616e636520717565727920666f7220746865207a6560008201527f726f206164647265737300000000000000000000000000000000000000000000602082015250565b6000612962602a83611f64565b915061296d82612906565b604082019050919050565b6000602082019050818103600083015261299181612955565b9050919050565b7f4f776e61626c653a2063616c6c6572206973206e6f7420746865206f776e6572600082015250565b60006129ce602083611f64565b91506129d982612998565b602082019050919050565b600060208201905081810360008301526129fd816129c1565b9050919050565b7f7b226e616d65223a220000000000000000000000000000000000000000000000600082015250565b6000612a3a600983612814565b9150612a4582612a04565b600982019050919050565b7f50726963652046656564204e4654000000000000000000000000000000000000600082015250565b6000612a86600e83612814565b9150612a9182612a50565b600e82019050919050565b7f222c20226465736372697074696f6e223a22222c20226174747269627574657360008201527f223a22222c2022696d616765223a220000000000000000000000000000000000602082015250565b6000612af8602f83612814565b9150612b0382612a9c565b602f82019050919050565b7f227d000000000000000000000000000000000000000000000000000000000000600082015250565b6000612b44600283612814565b9150612b4f82612b0e565b600282019050919050565b6000612b6582612a2d565b9150612b7082612a79565b9150612b7b82612aeb565b9150612b87828461281f565b9150612b9282612b37565b915081905092915050565b7f646174613a6170706c69636174696f6e2f6a736f6e3b6261736536342c000000600082015250565b6000612bd3601d83612814565b9150612bde82612b9d565b601d82019050919050565b6000612bf482612bc6565b9150612c00828461281f565b915081905092915050565b7f4552433732314d657461646174613a2055524920717565727920666f72206e6f60008201527f6e6578697374656e7420746f6b656e0000000000000000000000000000000000602082015250565b6000612c67602f83611f64565b9150612c7282612c0b565b604082019050919050565b60006020820190508181036000830152612c9681612c5a565b9050919050565b600069ffffffffffffffffffff82169050919050565b612cbc81612c9d565b8114612cc757600080fd5b50565b600081519050612cd981612cb3565b92915050565b612ce8816124f7565b8114612cf357600080fd5b50565b600081519050612d0581612cdf565b92915050565b600081519050612d1a8161201e565b92915050565b600080600080600060a08688031215612d3c57612d3b611e94565b5b6000612d4a88828901612cca565b9550506020612d5b88828901612cf6565b9450506040612d6c88828901612d0b565b9350506060612d7d88828901612d0b565b9250506080612d8e88828901612cca565b9150509295509295909350565b7f4e487b7100000000000000000000000000000000000000000000000000000000600052601160045260246000fd5b6000612dd5826124f7565b9150612de0836124f7565b9250827f800000000000000000000000000000000000000000000000000000000000000001821260008412151615612e1b57612e1a612d9b565b5b827f7fffffffffffffffffffffffffffffffffffffffffffffffffffffffffffffff018213600084121615612e5357612e52612d9b565b5b828203905092915050565b7f4e487b7100000000000000000000000000000000000000000000000000000000600052601260045260246000fd5b6000612e98826124f7565b9150612ea3836124f7565b925082612eb357612eb2612e5e565b5b600160000383147f800000000000000000000000000000000000000000000000000000000000000083141615612eec57612eeb612d9b565b5b828205905092915050565b6000612f02826124f7565b9150612f0d836124f7565b9250827f7fffffffffffffffffffffffffffffffffffffffffffffffffffffffffffffff0482116000841360008413161615612f4c57612f4b612d9b565b5b817f80000000000000000000000000000000000000000000000000000000000000000583126000841260008413161615612f8957612f88612d9b565b5b827f80000000000000000000000000000000000000000000000000000000000000000582126000841360008412161615612fc657612fc5612d9b565b5b827f7fffffffffffffffffffffffffffffffffffffffffffffffffffffffffffffff058212600084126000841216161561300357613002612d9b565b5b828202905092915050565b613017816124f7565b82525050565b6000602082019050613032600083018461300e565b92915050565b600061304b61304684612217565b6121fc565b90508281526020810184848401111561306757613066612197565b5b613072848285611f75565b509392505050565b600082601f83011261308f5761308e612192565b5b815161309f848260208601613038565b91505092915050565b6000602082840312156130be576130bd611e94565b5b600082015167ffffffffffffffff8111156130dc576130db611e99565b5b6130e88482850161307a565b91505092915050565b60006130fc82612014565b915061310783612014565b9250827fffffffffffffffffffffffffffffffffffffffffffffffffffffffffffffffff0382111561313c5761313b612d9b565b5b828201905092915050565b7f4f776e61626c653a206e6577206f776e657220697320746865207a65726f206160008201527f6464726573730000000000000000000000000000000000000000000000000000602082015250565b60006131a3602683611f64565b91506131ae82613147565b604082019050919050565b600060208201905081810360008301526131d281613196565b9050919050565b7f4552433732313a206f70657261746f7220717565727920666f72206e6f6e657860008201527f697374656e7420746f6b656e0000000000000000000000000000000000000000602082015250565b6000613235602c83611f64565b9150613240826131d9565b604082019050919050565b6000602082019050818103600083015261326481613228565b9050919050565b7f4552433732313a207472616e73666572206f6620746f6b656e2074686174206960008201527f73206e6f74206f776e0000000000000000000000000000000000000000000000602082015250565b60006132c7602983611f64565b91506132d28261326b565b604082019050919050565b600060208201905081810360008301526132f6816132ba565b9050919050565b7f4552433732313a207472616e7366657220746f20746865207a65726f2061646460008201527f7265737300000000000000000000000000000000000000000000000000000000602082015250565b6000613359602483611f64565b9150613364826132fd565b604082019050919050565b600060208201905081810360008301526133888161334c565b9050919050565b600061339a82612014565b91506133a583612014565b9250828210156133b8576133b7612d9b565b5b828203905092915050565b60006133ce82612014565b91506133d983612014565b9250826133e9576133e8612e5e565b5b828204905092915050565b60006133ff82612014565b915061340a83612014565b9250817fffffffffffffffffffffffffffffffffffffffffffffffffffffffffffffffff048311821515161561344357613442612d9b565b5b828202905092915050565b7f4552433732313a20617070726f766520746f2063616c6c657200000000000000600082015250565b6000613484601983611f64565b915061348f8261344e565b602082019050919050565b600060208201905081810360008301526134b381613477565b9050919050565b7f4552433732313a207472616e7366657220746f206e6f6e20455243373231526560008201527f63656976657220696d706c656d656e7465720000000000000000000000000000602082015250565b6000613516603283611f64565b9150613521826134ba565b604082019050919050565b6000602082019050818103600083015261354581613509565b9050919050565b600081519050919050565b600082825260208201905092915050565b60006135738261354c565b61357d8185613557565b935061358d818560208601611f75565b61359681611fa8565b840191505092915050565b60006080820190506135b660008301876120a9565b6135c360208301866120a9565b6135d0604083018561233d565b81810360608301526135e28184613568565b905095945050505050565b6000815190506135fc81611eca565b92915050565b60006020828403121561361857613617611e94565b5b6000613626848285016135ed565b91505092915050565b7f4552433732313a206d696e7420746f20746865207a65726f2061646472657373600082015250565b6000613665602083611f64565b91506136708261362f565b602082019050919050565b6000602082019050818103600083015261369481613658565b9050919050565b7f4552433732313a20746f6b656e20616c7265616479206d696e74656400000000600082015250565b60006136d1601c83611f64565b91506136dc8261369b565b602082019050919050565b60006020820190508181036000830152613700816136c4565b905091905056fe4142434445464748494a4b4c4d4e4f505152535455565758595a6162636465666768696a6b6c6d6e6f707172737475767778797a303132333435363738392b2fa2646970667358221220197afded04b001decc85c3607afe9c1bad8a549501e394f7ec5b8a3505bec07064736f6c634300080b0033",
  "deployedBytecode": "0x608060405234801561001057600080fd5b50600436106101375760003560e01c806371aee193116100b8578063ba84a4c41161007c578063ba84a4c41461034c578063c87b56dd1461037c578063d082e381146103ac578063e985e9c5146103ca578063efc81a8c146103fa578063f2fde38b1461040457610137565b806371aee193146102a85780638da5cb5b146102d857806395d89b41146102f6578063a22cb46514610314578063b88d4fde1461033057610137565b806330d871c6116100ff57806330d871c6146101f257806342842e0e146102225780636352211e1461023e57806370a082311461026e578063715018a61461029e57610137565b806301ffc9a71461013c57806306fdde031461016c578063081812fc1461018a578063095ea7b3146101ba57806323b872dd146101d6575b600080fd5b61015660048036038101906101519190611ef6565b610420565b6040516101639190611f3e565b60405180910390f35b610174610502565b6040516101819190611ff2565b60405180910390f35b6101a4600480360381019061019f919061204a565b610594565b6040516101b191906120b8565b60405180910390f35b6101d460048036038101906101cf91906120ff565b610619565b005b6101f060048036038101906101eb919061213f565b610731565b005b61020c600480360381019061020791906122c7565b610791565b6040516102199190611ff2565b60405180910390f35b61023c6004803603810190610237919061213f565b610805565b005b6102586004803603810190610253919061204a565b610825565b60405161026591906120b8565b60405180910390f35b61028860048036038101906102839190612310565b6108d7565b604051610295919061234c565b60405180910390f35b6102a661098f565b005b6102c260048036038101906102bd91906122c7565b610a17565b6040516102cf9190611ff2565b60405180910390f35b6102e0610a67565b6040516102ed91906120b8565b60405180910390f35b6102fe610a91565b60405161030b9190611ff2565b60405180910390f35b61032e60048036038101906103299190612393565b610b23565b005b61034a60048036038101906103459190612474565b610b39565b005b6103666004803603810190610361919061204a565b610b9b565b6040516103739190612510565b60405180910390f35b6103966004803603810190610391919061204a565b610bb3565b6040516103a39190611ff2565b60405180910390f35b6103b4610dbf565b6040516103c1919061234c565b60405180910390f35b6103e460048036038101906103df919061252b565b610dc5565b6040516103f19190611f3e565b60405180910390f35b610402610e59565b005b61041e60048036038101906104199190612310565b610f77565b005b60007f80ac58cd000000000000000000000000000000000000000000000000000000007bffffffffffffffffffffffffffffffffffffffffffffffffffffffff1916827bffffffffffffffffffffffffffffffffffffffffffffffffffffffff191614806104eb57507f5b5e139f000000000000000000000000000000000000000000000000000000007bffffffffffffffffffffffffffffffffffffffffffffffffffffffff1916827bffffffffffffffffffffffffffffffffffffffffffffffffffffffff1916145b806104fb57506104fa8261106f565b5b9050919050565b6060600080546105119061259a565b80601f016020809104026020016040519081016040528092919081815260200182805461053d9061259a565b801561058a5780601f1061055f5761010080835404028352916020019161058a565b820191906000526020600020905b81548152906001019060200180831161056d57829003601f168201915b5050505050905090565b600061059f826110d9565b6105de576040517f08c379a00000000000000000000000000000000000000000000000000000000081526004016105d59061263e565b60405180910390fd5b6004600083815260200190815260200160002060009054906101000a900473ffffffffffffffffffffffffffffffffffffffff169050919050565b600061062482610825565b90508073ffffffffffffffffffffffffffffffffffffffff168373ffffffffffffffffffffffffffffffffffffffff161415610695576040517f08c379a000000000000000000000000000000000000000000000000000000000815260040161068c906126d0565b60405180910390fd5b8073ffffffffffffffffffffffffffffffffffffffff166106b4611145565b73ffffffffffffffffffffffffffffffffffffffff1614806106e357506106e2816106dd611145565b610dc5565b5b610722576040517f08c379a000000000000000000000000000000000000000000000000000000000815260040161071990612762565b60405180910390fd5b61072c838361114d565b505050565b61074261073c611145565b82611206565b610781576040517f08c379a0000000000000000000000000000000000000000000000000000000008152600401610778906127f4565b60405180910390fd5b61078c8383836112e4565b505050565b606060006040518060400160405280601a81526020017f646174613a696d6167652f7376672b786d6c3b6261736536342c000000000000815250905060006107d884611540565b905081816040516020016107ed929190612850565b60405160208183030381529060405292505050919050565b61082083838360405180602001604052806000815250610b39565b505050565b6000806002600084815260200190815260200160002060009054906101000a900473ffffffffffffffffffffffffffffffffffffffff169050600073ffffffffffffffffffffffffffffffffffffffff168173ffffffffffffffffffffffffffffffffffffffff1614156108ce576040517f08c379a00000000000000000000000000000000000000000000000000000000081526004016108c5906128e6565b60405180910390fd5b80915050919050565b60008073ffffffffffffffffffffffffffffffffffffffff168273ffffffffffffffffffffffffffffffffffffffff161415610948576040517f08c379a000000000000000000000000000000000000000000000000000000000815260040161093f90612978565b60405180910390fd5b600360008373ffffffffffffffffffffffffffffffffffffffff1673ffffffffffffffffffffffffffffffffffffffff168152602001908152602001600020549050919050565b610997611145565b73ffffffffffffffffffffffffffffffffffffffff166109b5610a67565b73ffffffffffffffffffffffffffffffffffffffff1614610a0b576040517f08c379a0000000000000000000000000000000000000000000000000000000008152600401610a02906129e4565b60405180910390fd5b610a1560006116b9565b565b6060610a4182604051602001610a2d9190612b5a565b604051602081830303815290604052611540565b604051602001610a519190612be9565b6040516020818303038152906040529050919050565b6000600660009054906101000a900473ffffffffffffffffffffffffffffffffffffffff16905090565b606060018054610aa09061259a565b80601f0160208091040260200160405190810160405280929190818152602001828054610acc9061259a565b8015610b195780601f10610aee57610100808354040283529160200191610b19565b820191906000526020600020905b815481529060010190602001808311610afc57829003601f168201915b5050505050905090565b610b35610b2e611145565b838361177f565b5050565b610b4a610b44611145565b83611206565b610b89576040517f08c379a0000000000000000000000000000000000000000000000000000000008152600401610b80906127f4565b60405180910390fd5b610b95848484846118ec565b50505050565b60096020528060005260406000206000915090505481565b6060610bbe826110d9565b610bfd576040517f08c379a0000000000000000000000000000000000000000000000000000000008152600401610bf490612c7d565b60405180910390fd5b6000600860009054906101000a900473ffffffffffffffffffffffffffffffffffffffff1673ffffffffffffffffffffffffffffffffffffffff1663feaf968c6040518163ffffffff1660e01b815260040160a060405180830381865afa158015610c6c573d6000803e3d6000fd5b505050506040513d601f19601f82011682018060405250810190610c909190612d20565b505050915050610cd46040518060400160405280600f81526020017f63757272656e7456616c7565203d200000000000000000000000000000000000815250611948565b610cdd816119e1565b60006009600085815260200190815260200160002054905060006064828385610d069190612dca565b610d109190612e8d565b610d1a9190612ef7565b9050600073__$12c180a4b646ab3944f6b6d6dd47beb74f$__63b01c0830836040518263ffffffff1660e01b8152600401610d55919061301d565b600060405180830381865af4158015610d72573d6000803e3d6000fd5b505050506040513d6000823e3d601f19601f82011682018060405250810190610d9b91906130a8565b90506000610da882610791565b9050610db381610a17565b95505050505050919050565b60075481565b6000600560008473ffffffffffffffffffffffffffffffffffffffff1673ffffffffffffffffffffffffffffffffffffffff16815260200190815260200160002060008373ffffffffffffffffffffffffffffffffffffffff1673ffffffffffffffffffffffffffffffffffffffff16815260200190815260200160002060009054906101000a900460ff16905092915050565b6000600860009054906101000a900473ffffffffffffffffffffffffffffffffffffffff1673ffffffffffffffffffffffffffffffffffffffff1663feaf968c6040518163ffffffff1660e01b815260040160a060405180830381865afa158015610ec8573d6000803e3d6000fd5b505050506040513d601f19601f82011682018060405250810190610eec9190612d20565b505050915050610f306040518060400160405280601081526020017f6372656174696f6e56616c7565203d2000000000000000000000000000000000815250611948565b610f39816119e1565b8060096000600754815260200190815260200160002081905550610f5f33600754611a7a565b6001600754610f6e91906130f1565b60078190555050565b610f7f611145565b73ffffffffffffffffffffffffffffffffffffffff16610f9d610a67565b73ffffffffffffffffffffffffffffffffffffffff1614610ff3576040517f08c379a0000000000000000000000000000000000000000000000000000000008152600401610fea906129e4565b60405180910390fd5b600073ffffffffffffffffffffffffffffffffffffffff168173ffffffffffffffffffffffffffffffffffffffff161415611063576040517f08c379a000000000000000000000000000000000000000000000000000000000815260040161105a906131b9565b60405180910390fd5b61106c816116b9565b50565b60007f01ffc9a7000000000000000000000000000000000000000000000000000000007bffffffffffffffffffffffffffffffffffffffffffffffffffffffff1916827bffffffffffffffffffffffffffffffffffffffffffffffffffffffff1916149050919050565b60008073ffffffffffffffffffffffffffffffffffffffff166002600084815260200190815260200160002060009054906101000a900473ffffffffffffffffffffffffffffffffffffffff1673ffffffffffffffffffffffffffffffffffffffff1614159050919050565b600033905090565b816004600083815260200190815260200160002060006101000a81548173ffffffffffffffffffffffffffffffffffffffff021916908373ffffffffffffffffffffffffffffffffffffffff160217905550808273ffffffffffffffffffffffffffffffffffffffff166111c083610825565b73ffffffffffffffffffffffffffffffffffffffff167f8c5be1e5ebec7d5bd14f71427d1e84f3dd0314c0f7b2291e5b200ac8c7c3b92560405160405180910390a45050565b6000611211826110d9565b611250576040517f08c379a00000000000000000000000000000000000000000000000000000000081526004016112479061324b565b60405180910390fd5b600061125b83610825565b90508073ffffffffffffffffffffffffffffffffffffffff168473ffffffffffffffffffffffffffffffffffffffff1614806112ca57508373ffffffffffffffffffffffffffffffffffffffff166112b284610594565b73ffffffffffffffffffffffffffffffffffffffff16145b806112db57506112da8185610dc5565b5b91505092915050565b8273ffffffffffffffffffffffffffffffffffffffff1661130482610825565b73ffffffffffffffffffffffffffffffffffffffff161461135a576040517f08c379a0000000000000000000000000000000000000000000000000000000008152600401611351906132dd565b60405180910390fd5b600073ffffffffffffffffffffffffffffffffffffffff168273ffffffffffffffffffffffffffffffffffffffff1614156113ca576040517f08c379a00000000000000000000000000000000000000000000000000000000081526004016113c19061336f565b60405180910390fd5b6113d5838383611a98565b6113e060008261114d565b6001600360008573ffffffffffffffffffffffffffffffffffffffff1673ffffffffffffffffffffffffffffffffffffffff1681526020019081526020016000206000828254611430919061338f565b925050819055506001600360008473ffffffffffffffffffffffffffffffffffffffff1673ffffffffffffffffffffffffffffffffffffffff168152602001908152602001600020600082825461148791906130f1565b92505081905550816002600083815260200190815260200160002060006101000a81548173ffffffffffffffffffffffffffffffffffffffff021916908373ffffffffffffffffffffffffffffffffffffffff160217905550808273ffffffffffffffffffffffffffffffffffffffff168473ffffffffffffffffffffffffffffffffffffffff167fddf252ad1be2c89b69c2b068fc378daa952ba7f163c4a11628f55a4df523b3ef60405160405180910390a4505050565b6060600082511415611563576040518060200160405280600081525090506116b4565b6000604051806060016040528060408152602001613708604091399050600060036002855161159291906130f1565b61159c91906133c3565b60046115a891906133f4565b905060006020826115b991906130f1565b67ffffffffffffffff8111156115d2576115d161219c565b5b6040519080825280601f01601f1916602001820160405280156116045781602001600182028036833780820191505090505b509050818152600183018586518101602084015b81831015611673576003830192508251603f8160121c168501518253600182019150603f81600c1c168501518253600182019150603f8160061c168501518253600182019150603f8116850151825360018201915050611618565b60038951066001811461168d576002811461169d576116a8565b613d3d60f01b60028303526116a8565b603d60f81b60018303525b50505050508093505050505b919050565b6000600660009054906101000a900473ffffffffffffffffffffffffffffffffffffffff16905081600660006101000a81548173ffffffffffffffffffffffffffffffffffffffff021916908373ffffffffffffffffffffffffffffffffffffffff1602179055508173ffffffffffffffffffffffffffffffffffffffff168173ffffffffffffffffffffffffffffffffffffffff167f8be0079c531659141344cd1fd0a4f28419497f9722a3daafe3b4186f6b6457e060405160405180910390a35050565b8173ffffffffffffffffffffffffffffffffffffffff168373ffffffffffffffffffffffffffffffffffffffff1614156117ee576040517f08c379a00000000000000000000000000000000000000000000000000000000081526004016117e59061349a565b60405180910390fd5b80600560008573ffffffffffffffffffffffffffffffffffffffff1673ffffffffffffffffffffffffffffffffffffffff16815260200190815260200160002060008473ffffffffffffffffffffffffffffffffffffffff1673ffffffffffffffffffffffffffffffffffffffff16815260200190815260200160002060006101000a81548160ff0219169083151502179055508173ffffffffffffffffffffffffffffffffffffffff168373ffffffffffffffffffffffffffffffffffffffff167f17307eab39ab6107e8899845ad3d59bd9653f200f220920489ca2b5937696c31836040516118df9190611f3e565b60405180910390a3505050565b6118f78484846112e4565b61190384848484611a9d565b611942576040517f08c379a00000000000000000000000000000000000000000000000000000000081526004016119399061352c565b60405180910390fd5b50505050565b6119de8160405160240161195c9190611ff2565b6040516020818303038152906040527f41304fac000000000000000000000000000000000000000000000000000000007bffffffffffffffffffffffffffffffffffffffffffffffffffffffff19166020820180517bffffffffffffffffffffffffffffffffffffffffffffffffffffffff8381831617835250505050611c25565b50565b611a77816040516024016119f59190612510565b6040516020818303038152906040527f4e0c1d1d000000000000000000000000000000000000000000000000000000007bffffffffffffffffffffffffffffffffffffffffffffffffffffffff19166020820180517bffffffffffffffffffffffffffffffffffffffffffffffffffffffff8381831617835250505050611c25565b50565b611a94828260405180602001604052806000815250611c4e565b5050565b505050565b6000611abe8473ffffffffffffffffffffffffffffffffffffffff16611ca9565b15611c18578373ffffffffffffffffffffffffffffffffffffffff1663150b7a02611ae7611145565b8786866040518563ffffffff1660e01b8152600401611b0994939291906135a1565b6020604051808303816000875af1925050508015611b4557506040513d601f19601f82011682018060405250810190611b429190613602565b60015b611bc8573d8060008114611b75576040519150601f19603f3d011682016040523d82523d6000602084013e611b7a565b606091505b50600081511415611bc0576040517f08c379a0000000000000000000000000000000000000000000000000000000008152600401611bb79061352c565b60405180910390fd5b805181602001fd5b63150b7a0260e01b7bffffffffffffffffffffffffffffffffffffffffffffffffffffffff1916817bffffffffffffffffffffffffffffffffffffffffffffffffffffffff191614915050611c1d565b600190505b949350505050565b60008151905060006a636f6e736f6c652e6c6f679050602083016000808483855afa5050505050565b611c588383611cbc565b611c656000848484611a9d565b611ca4576040517f08c379a0000000000000000000000000000000000000000000000000000000008152600401611c9b9061352c565b60405180910390fd5b505050565b600080823b905060008111915050919050565b600073ffffffffffffffffffffffffffffffffffffffff168273ffffffffffffffffffffffffffffffffffffffff161415611d2c576040517f08c379a0000000000000000000000000000000000000000000000000000000008152600401611d239061367b565b60405180910390fd5b611d35816110d9565b15611d75576040517f08c379a0000000000000000000000000000000000000000000000000000000008152600401611d6c906136e7565b60405180910390fd5b611d8160008383611a98565b6001600360008473ffffffffffffffffffffffffffffffffffffffff1673ffffffffffffffffffffffffffffffffffffffff1681526020019081526020016000206000828254611dd191906130f1565b92505081905550816002600083815260200190815260200160002060006101000a81548173ffffffffffffffffffffffffffffffffffffffff021916908373ffffffffffffffffffffffffffffffffffffffff160217905550808273ffffffffffffffffffffffffffffffffffffffff16600073ffffffffffffffffffffffffffffffffffffffff167fddf252ad1be2c89b69c2b068fc378daa952ba7f163c4a11628f55a4df523b3ef60405160405180910390a45050565b6000604051905090565b600080fd5b600080fd5b60007fffffffff0000000000000000000000000000000000000000000000000000000082169050919050565b611ed381611e9e565b8114611ede57600080fd5b50565b600081359050611ef081611eca565b92915050565b600060208284031215611f0c57611f0b611e94565b5b6000611f1a84828501611ee1565b91505092915050565b60008115159050919050565b611f3881611f23565b82525050565b6000602082019050611f536000830184611f2f565b92915050565b600081519050919050565b600082825260208201905092915050565b60005b83811015611f93578082015181840152602081019050611f78565b83811115611fa2576000848401525b50505050565b6000601f19601f8301169050919050565b6000611fc482611f59565b611fce8185611f64565b9350611fde818560208601611f75565b611fe781611fa8565b840191505092915050565b6000602082019050818103600083015261200c8184611fb9565b905092915050565b6000819050919050565b61202781612014565b811461203257600080fd5b50565b6000813590506120448161201e565b92915050565b6000602082840312156120605761205f611e94565b5b600061206e84828501612035565b91505092915050565b600073ffffffffffffffffffffffffffffffffffffffff82169050919050565b60006120a282612077565b9050919050565b6120b281612097565b82525050565b60006020820190506120cd60008301846120a9565b92915050565b6120dc81612097565b81146120e757600080fd5b50565b6000813590506120f9816120d3565b92915050565b6000806040838503121561211657612115611e94565b5b6000612124858286016120ea565b925050602061213585828601612035565b9150509250929050565b60008060006060848603121561215857612157611e94565b5b6000612166868287016120ea565b9350506020612177868287016120ea565b925050604061218886828701612035565b9150509250925092565b600080fd5b600080fd5b7f4e487b7100000000000000000000000000000000000000000000000000000000600052604160045260246000fd5b6121d482611fa8565b810181811067ffffffffffffffff821117156121f3576121f261219c565b5b80604052505050565b6000612206611e8a565b905061221282826121cb565b919050565b600067ffffffffffffffff8211156122325761223161219c565b5b61223b82611fa8565b9050602081019050919050565b82818337600083830152505050565b600061226a61226584612217565b6121fc565b90508281526020810184848401111561228657612285612197565b5b612291848285612248565b509392505050565b600082601f8301126122ae576122ad612192565b5b81356122be848260208601612257565b91505092915050565b6000602082840312156122dd576122dc611e94565b5b600082013567ffffffffffffffff8111156122fb576122fa611e99565b5b61230784828501612299565b91505092915050565b60006020828403121561232657612325611e94565b5b6000612334848285016120ea565b91505092915050565b61234681612014565b82525050565b6000602082019050612361600083018461233d565b92915050565b61237081611f23565b811461237b57600080fd5b50565b60008135905061238d81612367565b92915050565b600080604083850312156123aa576123a9611e94565b5b60006123b8858286016120ea565b92505060206123c98582860161237e565b9150509250929050565b600067ffffffffffffffff8211156123ee576123ed61219c565b5b6123f782611fa8565b9050602081019050919050565b6000612417612412846123d3565b6121fc565b90508281526020810184848401111561243357612432612197565b5b61243e848285612248565b509392505050565b600082601f83011261245b5761245a612192565b5b813561246b848260208601612404565b91505092915050565b6000806000806080858703121561248e5761248d611e94565b5b600061249c878288016120ea565b94505060206124ad878288016120ea565b93505060406124be87828801612035565b925050606085013567ffffffffffffffff8111156124df576124de611e99565b5b6124eb87828801612446565b91505092959194509250565b6000819050919050565b61250a816124f7565b82525050565b60006020820190506125256000830184612501565b92915050565b6000806040838503121561254257612541611e94565b5b6000612550858286016120ea565b9250506020612561858286016120ea565b9150509250929050565b7f4e487b7100000000000000000000000000000000000000000000000000000000600052602260045260246000fd5b600060028204905060018216806125b257607f821691505b602082108114156125c6576125c561256b565b5b50919050565b7f4552433732313a20617070726f76656420717565727920666f72206e6f6e657860008201527f697374656e7420746f6b656e0000000000000000000000000000000000000000602082015250565b6000612628602c83611f64565b9150612633826125cc565b604082019050919050565b600060208201905081810360008301526126578161261b565b9050919050565b7f4552433732313a20617070726f76616c20746f2063757272656e74206f776e6560008201527f7200000000000000000000000000000000000000000000000000000000000000602082015250565b60006126ba602183611f64565b91506126c58261265e565b604082019050919050565b600060208201905081810360008301526126e9816126ad565b9050919050565b7f4552433732313a20617070726f76652063616c6c6572206973206e6f74206f7760008201527f6e6572206e6f7220617070726f76656420666f7220616c6c0000000000000000602082015250565b600061274c603883611f64565b9150612757826126f0565b604082019050919050565b6000602082019050818103600083015261277b8161273f565b9050919050565b7f4552433732313a207472616e736665722063616c6c6572206973206e6f74206f60008201527f776e6572206e6f7220617070726f766564000000000000000000000000000000602082015250565b60006127de603183611f64565b91506127e982612782565b604082019050919050565b6000602082019050818103600083015261280d816127d1565b9050919050565b600081905092915050565b600061282a82611f59565b6128348185612814565b9350612844818560208601611f75565b80840191505092915050565b600061285c828561281f565b9150612868828461281f565b91508190509392505050565b7f4552433732313a206f776e657220717565727920666f72206e6f6e657869737460008201527f656e7420746f6b656e0000000000000000000000000000000000000000000000602082015250565b60006128d0602983611f64565b91506128db82612874565b604082019050919050565b600060208201905081810360008301526128ff816128c3565b9050919050565b7f4552433732313a2062616c616e636520717565727920666f7220746865207a6560008201527f726f206164647265737300000000000000000000000000000000000000000000602082015250565b6000612962602a83611f64565b915061296d82612906565b604082019050919050565b6000602082019050818103600083015261299181612955565b9050919050565b7f4f776e61626c653a2063616c6c6572206973206e6f7420746865206f776e6572600082015250565b60006129ce602083611f64565b91506129d982612998565b602082019050919050565b600060208201905081810360008301526129fd816129c1565b9050919050565b7f7b226e616d65223a220000000000000000000000000000000000000000000000600082015250565b6000612a3a600983612814565b9150612a4582612a04565b600982019050919050565b7f50726963652046656564204e4654000000000000000000000000000000000000600082015250565b6000612a86600e83612814565b9150612a9182612a50565b600e82019050919050565b7f222c20226465736372697074696f6e223a22222c20226174747269627574657360008201527f223a22222c2022696d616765223a220000000000000000000000000000000000602082015250565b6000612af8602f83612814565b9150612b0382612a9c565b602f82019050919050565b7f227d000000000000000000000000000000000000000000000000000000000000600082015250565b6000612b44600283612814565b9150612b4f82612b0e565b600282019050919050565b6000612b6582612a2d565b9150612b7082612a79565b9150612b7b82612aeb565b9150612b87828461281f565b9150612b9282612b37565b915081905092915050565b7f646174613a6170706c69636174696f6e2f6a736f6e3b6261736536342c000000600082015250565b6000612bd3601d83612814565b9150612bde82612b9d565b601d82019050919050565b6000612bf482612bc6565b9150612c00828461281f565b915081905092915050565b7f4552433732314d657461646174613a2055524920717565727920666f72206e6f60008201527f6e6578697374656e7420746f6b656e0000000000000000000000000000000000602082015250565b6000612c67602f83611f64565b9150612c7282612c0b565b604082019050919050565b60006020820190508181036000830152612c9681612c5a565b9050919050565b600069ffffffffffffffffffff82169050919050565b612cbc81612c9d565b8114612cc757600080fd5b50565b600081519050612cd981612cb3565b92915050565b612ce8816124f7565b8114612cf357600080fd5b50565b600081519050612d0581612cdf565b92915050565b600081519050612d1a8161201e565b92915050565b600080600080600060a08688031215612d3c57612d3b611e94565b5b6000612d4a88828901612cca565b9550506020612d5b88828901612cf6565b9450506040612d6c88828901612d0b565b9350506060612d7d88828901612d0b565b9250506080612d8e88828901612cca565b9150509295509295909350565b7f4e487b7100000000000000000000000000000000000000000000000000000000600052601160045260246000fd5b6000612dd5826124f7565b9150612de0836124f7565b9250827f800000000000000000000000000000000000000000000000000000000000000001821260008412151615612e1b57612e1a612d9b565b5b827f7fffffffffffffffffffffffffffffffffffffffffffffffffffffffffffffff018213600084121615612e5357612e52612d9b565b5b828203905092915050565b7f4e487b7100000000000000000000000000000000000000000000000000000000600052601260045260246000fd5b6000612e98826124f7565b9150612ea3836124f7565b925082612eb357612eb2612e5e565b5b600160000383147f800000000000000000000000000000000000000000000000000000000000000083141615612eec57612eeb612d9b565b5b828205905092915050565b6000612f02826124f7565b9150612f0d836124f7565b9250827f7fffffffffffffffffffffffffffffffffffffffffffffffffffffffffffffff0482116000841360008413161615612f4c57612f4b612d9b565b5b817f80000000000000000000000000000000000000000000000000000000000000000583126000841260008413161615612f8957612f88612d9b565b5b827f80000000000000000000000000000000000000000000000000000000000000000582126000841360008412161615612fc657612fc5612d9b565b5b827f7fffffffffffffffffffffffffffffffffffffffffffffffffffffffffffffff058212600084126000841216161561300357613002612d9b565b5b828202905092915050565b613017816124f7565b82525050565b6000602082019050613032600083018461300e565b92915050565b600061304b61304684612217565b6121fc565b90508281526020810184848401111561306757613066612197565b5b613072848285611f75565b509392505050565b600082601f83011261308f5761308e612192565b5b815161309f848260208601613038565b91505092915050565b6000602082840312156130be576130bd611e94565b5b600082015167ffffffffffffffff8111156130dc576130db611e99565b5b6130e88482850161307a565b91505092915050565b60006130fc82612014565b915061310783612014565b9250827fffffffffffffffffffffffffffffffffffffffffffffffffffffffffffffffff0382111561313c5761313b612d9b565b5b828201905092915050565b7f4f776e61626c653a206e6577206f776e657220697320746865207a65726f206160008201527f6464726573730000000000000000000000000000000000000000000000000000602082015250565b60006131a3602683611f64565b91506131ae82613147565b604082019050919050565b600060208201905081810360008301526131d281613196565b9050919050565b7f4552433732313a206f70657261746f7220717565727920666f72206e6f6e657860008201527f697374656e7420746f6b656e0000000000000000000000000000000000000000602082015250565b6000613235602c83611f64565b9150613240826131d9565b604082019050919050565b6000602082019050818103600083015261326481613228565b9050919050565b7f4552433732313a207472616e73666572206f6620746f6b656e2074686174206960008201527f73206e6f74206f776e0000000000000000000000000000000000000000000000602082015250565b60006132c7602983611f64565b91506132d28261326b565b604082019050919050565b600060208201905081810360008301526132f6816132ba565b9050919050565b7f4552433732313a207472616e7366657220746f20746865207a65726f2061646460008201527f7265737300000000000000000000000000000000000000000000000000000000602082015250565b6000613359602483611f64565b9150613364826132fd565b604082019050919050565b600060208201905081810360008301526133888161334c565b9050919050565b600061339a82612014565b91506133a583612014565b9250828210156133b8576133b7612d9b565b5b828203905092915050565b60006133ce82612014565b91506133d983612014565b9250826133e9576133e8612e5e565b5b828204905092915050565b60006133ff82612014565b915061340a83612014565b9250817fffffffffffffffffffffffffffffffffffffffffffffffffffffffffffffffff048311821515161561344357613442612d9b565b5b828202905092915050565b7f4552433732313a20617070726f766520746f2063616c6c657200000000000000600082015250565b6000613484601983611f64565b915061348f8261344e565b602082019050919050565b600060208201905081810360008301526134b381613477565b9050919050565b7f4552433732313a207472616e7366657220746f206e6f6e20455243373231526560008201527f63656976657220696d706c656d656e7465720000000000000000000000000000602082015250565b6000613516603283611f64565b9150613521826134ba565b604082019050919050565b6000602082019050818103600083015261354581613509565b9050919050565b600081519050919050565b600082825260208201905092915050565b60006135738261354c565b61357d8185613557565b935061358d818560208601611f75565b61359681611fa8565b840191505092915050565b60006080820190506135b660008301876120a9565b6135c360208301866120a9565b6135d0604083018561233d565b81810360608301526135e28184613568565b905095945050505050565b6000815190506135fc81611eca565b92915050565b60006020828403121561361857613617611e94565b5b6000613626848285016135ed565b91505092915050565b7f4552433732313a206d696e7420746f20746865207a65726f2061646472657373600082015250565b6000613665602083611f64565b91506136708261362f565b602082019050919050565b6000602082019050818103600083015261369481613658565b9050919050565b7f4552433732313a20746f6b656e20616c7265616479206d696e74656400000000600082015250565b60006136d1601c83611f64565b91506136dc8261369b565b602082019050919050565b60006020820190508181036000830152613700816136c4565b905091905056fe4142434445464748494a4b4c4d4e4f505152535455565758595a6162636465666768696a6b6c6d6e6f707172737475767778797a303132333435363738392b2fa2646970667358221220197afded04b001decc85c3607afe9c1bad8a549501e394f7ec5b8a3505bec07064736f6c634300080b0033",
  "libraries": {
    "SwordMaker": "0x3d3fe783EB9866e0Ce8e784AaB0a60a2c3dD3b8e"
  },
  "devdoc": {
    "kind": "dev",
    "methods": {
      "approve(address,uint256)": {
        "details": "See {IERC721-approve}."
      },
      "balanceOf(address)": {
        "details": "See {IERC721-balanceOf}."
      },
      "getApproved(uint256)": {
        "details": "See {IERC721-getApproved}."
      },
      "isApprovedForAll(address,address)": {
        "details": "See {IERC721-isApprovedForAll}."
      },
      "name()": {
        "details": "See {IERC721Metadata-name}."
      },
      "owner()": {
        "details": "Returns the address of the current owner."
      },
      "ownerOf(uint256)": {
        "details": "See {IERC721-ownerOf}."
      },
      "renounceOwnership()": {
        "details": "Leaves the contract without owner. It will not be possible to call `onlyOwner` functions anymore. Can only be called by the current owner. NOTE: Renouncing ownership will leave the contract without an owner, thereby removing any functionality that is only available to the owner."
      },
      "safeTransferFrom(address,address,uint256)": {
        "details": "See {IERC721-safeTransferFrom}."
      },
      "safeTransferFrom(address,address,uint256,bytes)": {
        "details": "See {IERC721-safeTransferFrom}."
      },
      "setApprovalForAll(address,bool)": {
        "details": "See {IERC721-setApprovalForAll}."
      },
      "supportsInterface(bytes4)": {
        "details": "See {IERC165-supportsInterface}."
      },
      "symbol()": {
        "details": "See {IERC721Metadata-symbol}."
      },
      "tokenURI(uint256)": {
        "details": "See {IERC721Metadata-tokenURI}."
      },
      "transferFrom(address,address,uint256)": {
        "details": "See {IERC721-transferFrom}."
      },
      "transferOwnership(address)": {
        "details": "Transfers ownership of the contract to a new account (`newOwner`). Can only be called by the current owner."
      }
    },
    "version": 1
  },
  "userdoc": {
    "kind": "user",
    "methods": {},
    "version": 1
  },
  "storageLayout": {
    "storage": [
      {
        "astId": 176,
        "contract": "contracts/price_nft.sol:Nft",
        "label": "_name",
        "offset": 0,
        "slot": "0",
        "type": "t_string_storage"
      },
      {
        "astId": 178,
        "contract": "contracts/price_nft.sol:Nft",
        "label": "_symbol",
        "offset": 0,
        "slot": "1",
        "type": "t_string_storage"
      },
      {
        "astId": 182,
        "contract": "contracts/price_nft.sol:Nft",
        "label": "_owners",
        "offset": 0,
        "slot": "2",
        "type": "t_mapping(t_uint256,t_address)"
      },
      {
        "astId": 186,
        "contract": "contracts/price_nft.sol:Nft",
        "label": "_balances",
        "offset": 0,
        "slot": "3",
        "type": "t_mapping(t_address,t_uint256)"
      },
      {
        "astId": 190,
        "contract": "contracts/price_nft.sol:Nft",
        "label": "_tokenApprovals",
        "offset": 0,
        "slot": "4",
        "type": "t_mapping(t_uint256,t_address)"
      },
      {
        "astId": 196,
        "contract": "contracts/price_nft.sol:Nft",
        "label": "_operatorApprovals",
        "offset": 0,
        "slot": "5",
        "type": "t_mapping(t_address,t_mapping(t_address,t_bool))"
      },
      {
        "astId": 53,
        "contract": "contracts/price_nft.sol:Nft",
        "label": "_owner",
        "offset": 0,
        "slot": "6",
        "type": "t_address"
      },
      {
        "astId": 1937,
        "contract": "contracts/price_nft.sol:Nft",
        "label": "tokenCounter",
        "offset": 0,
        "slot": "7",
        "type": "t_uint256"
      },
      {
        "astId": 1943,
        "contract": "contracts/price_nft.sol:Nft",
        "label": "priceFeed",
        "offset": 0,
        "slot": "8",
        "type": "t_contract(AggregatorV3Interface)45"
      },
      {
        "astId": 1947,
        "contract": "contracts/price_nft.sol:Nft",
        "label": "tokenIdToValue",
        "offset": 0,
        "slot": "9",
        "type": "t_mapping(t_uint256,t_int256)"
      }
    ],
    "types": {
      "t_address": {
        "encoding": "inplace",
        "label": "address",
        "numberOfBytes": "20"
      },
      "t_bool": {
        "encoding": "inplace",
        "label": "bool",
        "numberOfBytes": "1"
      },
      "t_contract(AggregatorV3Interface)45": {
        "encoding": "inplace",
        "label": "contract AggregatorV3Interface",
        "numberOfBytes": "20"
      },
      "t_int256": {
        "encoding": "inplace",
        "label": "int256",
        "numberOfBytes": "32"
      },
      "t_mapping(t_address,t_bool)": {
        "encoding": "mapping",
        "key": "t_address",
        "label": "mapping(address => bool)",
        "numberOfBytes": "32",
        "value": "t_bool"
      },
      "t_mapping(t_address,t_mapping(t_address,t_bool))": {
        "encoding": "mapping",
        "key": "t_address",
        "label": "mapping(address => mapping(address => bool))",
        "numberOfBytes": "32",
        "value": "t_mapping(t_address,t_bool)"
      },
      "t_mapping(t_address,t_uint256)": {
        "encoding": "mapping",
        "key": "t_address",
        "label": "mapping(address => uint256)",
        "numberOfBytes": "32",
        "value": "t_uint256"
      },
      "t_mapping(t_uint256,t_address)": {
        "encoding": "mapping",
        "key": "t_uint256",
        "label": "mapping(uint256 => address)",
        "numberOfBytes": "32",
        "value": "t_address"
      },
      "t_mapping(t_uint256,t_int256)": {
        "encoding": "mapping",
        "key": "t_uint256",
        "label": "mapping(uint256 => int256)",
        "numberOfBytes": "32",
        "value": "t_int256"
      },
      "t_string_storage": {
        "encoding": "bytes",
        "label": "string",
        "numberOfBytes": "32"
      },
      "t_uint256": {
        "encoding": "inplace",
        "label": "uint256",
        "numberOfBytes": "32"
      }
    }
  }
}