{
  "address": "0x5FbDB2315678afecb367f032d93F642f64180aa3",
  "abi": [
    {
      "inputs": [
        {
          "internalType": "uint8",
          "name": "_decimals",
          "type": "uint8"
        },
        {
          "internalType": "int256",
          "name": "_initialAnswer",
          "type": "int256"
        },
        {
          "internalType": "uint8",
          "name": "_priceFactor",
          "type": "uint8"
        }
      ],
      "stateMutability": "nonpayable",
      "type": "constructor"
    },
    {
      "anonymous": false,
      "inputs": [
        {
          "indexed": true,
          "internalType": "int256",
          "name": "current",
          "type": "int256"
        },
        {
          "indexed": true,
          "internalType": "uint256",
          "name": "roundId",
          "type": "uint256"
        },
        {
          "indexed": false,
          "internalType": "uint256",
          "name": "updatedAt",
          "type": "uint256"
        }
      ],
      "name": "AnswerUpdated",
      "type": "event"
    },
    {
      "anonymous": false,
      "inputs": [
        {
          "indexed": true,
          "internalType": "uint256",
          "name": "roundId",
          "type": "uint256"
        },
        {
          "indexed": true,
          "internalType": "address",
          "name": "startedBy",
          "type": "address"
        },
        {
          "indexed": false,
          "internalType": "uint256",
          "name": "startedAt",
          "type": "uint256"
        }
      ],
      "name": "NewRound",
      "type": "event"
    },
    {
      "inputs": [],
      "name": "decimals",
      "outputs": [
        {
          "internalType": "uint8",
          "name": "",
          "type": "uint8"
        }
      ],
      "stateMutability": "view",
      "type": "function"
    },
    {
      "inputs": [],
      "name": "description",
      "outputs": [
        {
          "internalType": "string",
          "name": "",
          "type": "string"
        }
      ],
      "stateMutability": "pure",
      "type": "function"
    },
    {
      "inputs": [
        {
          "internalType": "uint256",
          "name": "",
          "type": "uint256"
        }
      ],
      "name": "getAnswer",
      "outputs": [
        {
          "internalType": "int256",
          "name": "",
          "type": "int256"
        }
      ],
      "stateMutability": "view",
      "type": "function"
    },
    {
      "inputs": [
        {
          "internalType": "uint80",
          "name": "_roundId",
          "type": "uint80"
        }
      ],
      "name": "getRoundData",
      "outputs": [
        {
          "internalType": "uint80",
          "name": "roundId",
          "type": "uint80"
        },
        {
          "internalType": "int256",
          "name": "answer",
          "type": "int256"
        },
        {
          "internalType": "uint256",
          "name": "startedAt",
          "type": "uint256"
        },
        {
          "internalType": "uint256",
          "name": "updatedAt",
          "type": "uint256"
        },
        {
          "internalType": "uint80",
          "name": "answeredInRound",
          "type": "uint80"
        }
      ],
      "stateMutability": "view",
      "type": "function"
    },
    {
      "inputs": [
        {
          "internalType": "uint256",
          "name": "",
          "type": "uint256"
        }
      ],
      "name": "getTimestamp",
      "outputs": [
        {
          "internalType": "uint256",
          "name": "",
          "type": "uint256"
        }
      ],
      "stateMutability": "view",
      "type": "function"
    },
    {
      "inputs": [],
      "name": "latestAnswer",
      "outputs": [
        {
          "internalType": "int256",
          "name": "",
          "type": "int256"
        }
      ],
      "stateMutability": "view",
      "type": "function"
    },
    {
      "inputs": [],
      "name": "latestRound",
      "outputs": [
        {
          "internalType": "uint256",
          "name": "",
          "type": "uint256"
        }
      ],
      "stateMutability": "view",
      "type": "function"
    },
    {
      "inputs": [],
      "name": "latestRoundData",
      "outputs": [
        {
          "internalType": "uint80",
          "name": "roundId",
          "type": "uint80"
        },
        {
          "internalType": "int256",
          "name": "answer",
          "type": "int256"
        },
        {
          "internalType": "uint256",
          "name": "startedAt",
          "type": "uint256"
        },
        {
          "internalType": "uint256",
          "name": "updatedAt",
          "type": "uint256"
        },
        {
          "internalType": "uint80",
          "name": "answeredInRound",
          "type": "uint80"
        }
      ],
      "stateMutability": "view",
      "type": "function"
    },
    {
      "inputs": [],
      "name": "latestTimestamp",
      "outputs": [
        {
          "internalType": "uint256",
          "name": "",
          "type": "uint256"
        }
      ],
      "stateMutability": "view",
      "type": "function"
    },
    {
      "inputs": [],
      "name": "priceFactor",
      "outputs": [
        {
          "internalType": "uint8",
          "name": "",
          "type": "uint8"
        }
      ],
      "stateMutability": "view",
      "type": "function"
    },
    {
      "inputs": [
        {
          "internalType": "int256",
          "name": "_answer",
          "type": "int256"
        }
      ],
      "name": "updateAnswer",
      "outputs": [],
      "stateMutability": "nonpayable",
      "type": "function"
    },
    {
      "inputs": [
        {
          "internalType": "uint80",
          "name": "_roundId",
          "type": "uint80"
        },
        {
          "internalType": "int256",
          "name": "_answer",
          "type": "int256"
        },
        {
          "internalType": "uint256",
          "name": "_timestamp",
          "type": "uint256"
        },
        {
          "internalType": "uint256",
          "name": "_startedAt",
          "type": "uint256"
        }
      ],
      "name": "updateRoundData",
      "outputs": [],
      "stateMutability": "nonpayable",
      "type": "function"
    },
    {
      "inputs": [],
      "name": "version",
      "outputs": [
        {
          "internalType": "uint256",
          "name": "",
          "type": "uint256"
        }
      ],
      "stateMutability": "view",
      "type": "function"
    }
  ],
  "transactionHash": "0x2d2b03668ac85b62f07d916f71ef1cca743e2b89323e021000a61b7b3e021412",
  "args": [
    "18",
    "200000000000000000000",
    "2"
  ],
  "numDeployments": 1,
  "solcInputHash": "f22ba223a2c532666a71a08a45b6b19f",
  "bytecode": "0x608060405234801561001057600080fd5b506040516107c93803806107c98339818101604052606081101561003357600080fd5b81019080805190602001909291908051906020019092919080519060200190929190505050826000806101000a81548160ff021916908360ff16021790555080600060016101000a81548160ff021916908360ff1602179055506100b0600060019054906101000a900460ff1660ff1683026100b860201b60201c565b505050610129565b806001819055504260028190555060036000815480929190600101919050555080600460006003548152602001908152602001600020819055504260056000600354815260200190815260200160002081905550426006600060035481526020019081526020016000208190555050565b610691806101386000396000f3fe608060405234801561001057600080fd5b50600436106100cf5760003560e01c80638205bf6a1161008c578063b5ab58dc11610066578063b5ab58dc146102f8578063b633620c1461033a578063dfb2866d1461037c578063feaf968c1461039d576100cf565b80638205bf6a1461022a5780639a6fc8f514610248578063a87a20ce146102ca576100cf565b8063313ce567146100d45780634aa2011f146100f557806350d25bcd1461014d57806354fd4d501461016b578063668a0f02146101895780637284e416146101a7575b600080fd5b6100dc6103ef565b604051808260ff16815260200191505060405180910390f35b61014b6004803603608081101561010b57600080fd5b81019080803569ffffffffffffffffffff169060200190929190803590602001909291908035906020019092919080359060200190929190505050610400565b005b610155610475565b6040518082815260200191505060405180910390f35b61017361047b565b6040518082815260200191505060405180910390f35b610191610480565b6040518082815260200191505060405180910390f35b6101af610486565b6040518080602001828103825283818151815260200191508051906020019080838360005b838110156101ef5780820151818401526020810190506101d4565b50505050905090810190601f16801561021c5780820380516001836020036101000a031916815260200191505b509250505060405180910390f35b6102326104c3565b6040518082815260200191505060405180910390f35b6102806004803603602081101561025e57600080fd5b81019080803569ffffffffffffffffffff1690602001909291905050506104c9565b604051808669ffffffffffffffffffff1681526020018581526020018481526020018381526020018269ffffffffffffffffffff1681526020019550505050505060405180910390f35b6102f6600480360360208110156102e057600080fd5b8101908080359060200190929190505050610546565b005b6103246004803603602081101561030e57600080fd5b81019080803590602001909291905050506105b7565b6040518082815260200191505060405180910390f35b6103666004803603602081101561035057600080fd5b81019080803590602001909291905050506105cf565b6040518082815260200191505060405180910390f35b6103846105e7565b604051808260ff16815260200191505060405180910390f35b6103a56105fa565b604051808669ffffffffffffffffffff1681526020018581526020018481526020018381526020018269ffffffffffffffffffff1681526020019550505050505060405180910390f35b60008054906101000a900460ff1681565b8369ffffffffffffffffffff16600381905550826001819055508160028190555082600460006003548152602001908152602001600020819055508160056000600354815260200190815260200160002081905550806006600060035481526020019081526020016000208190555050505050565b60015481565b600081565b60035481565b60606040518060400160405280601f81526020017f76302e362f74657374732f4d6f636b563341676772656761746f722e736f6c00815250905090565b60025481565b600080600080600085600460008869ffffffffffffffffffff16815260200190815260200160002054600660008969ffffffffffffffffffff16815260200190815260200160002054600560008a69ffffffffffffffffffff16815260200190815260200160002054899450945094509450945091939590929450565b806001819055504260028190555060036000815480929190600101919050555080600460006003548152602001908152602001600020819055504260056000600354815260200190815260200160002081905550426006600060035481526020019081526020016000208190555050565b60046020528060005260406000206000915090505481565b60056020528060005260406000206000915090505481565b600060019054906101000a900460ff1681565b600080600080600060035460046000600354815260200190815260200160002054600660006003548152602001908152602001600020546005600060035481526020019081526020016000205460035494509450945094509450909192939456fea2646970667358221220ae293c90f709cd13edada2f870c58361efd9cd9123cc0d2b8258f8047044020764736f6c63430007000033",
  "devdoc": {
    "kind": "dev",
    "methods": {},
    "title": "MockV3Aggregator",
    "version": 1
  },
  "userdoc": {
    "kind": "user",
    "methods": {},
    "notice": "Based on the FluxAggregator contractUse this contract when you need to test other contract's ability to read data from an aggregator contract, but how the aggregator got its answer is unimportant",
    "version": 1
  },
  "storageLayout": {
    "storage": [
      {
        "astId": 324,
        "contract": "contracts/mock_contracts/MockV3AggregatorPC.sol:MockV3AggregatorPC",
        "label": "decimals",
        "offset": 0,
        "slot": "0",
        "type": "t_uint8"
      },
      {
        "astId": 326,
        "contract": "contracts/mock_contracts/MockV3AggregatorPC.sol:MockV3AggregatorPC",
        "label": "priceFactor",
        "offset": 1,
        "slot": "0",
        "type": "t_uint8"
      },
      {
        "astId": 329,
        "contract": "contracts/mock_contracts/MockV3AggregatorPC.sol:MockV3AggregatorPC",
        "label": "latestAnswer",
        "offset": 0,
        "slot": "1",
        "type": "t_int256"
      },
      {
        "astId": 332,
        "contract": "contracts/mock_contracts/MockV3AggregatorPC.sol:MockV3AggregatorPC",
        "label": "latestTimestamp",
        "offset": 0,
        "slot": "2",
        "type": "t_uint256"
      },
      {
        "astId": 335,
        "contract": "contracts/mock_contracts/MockV3AggregatorPC.sol:MockV3AggregatorPC",
        "label": "latestRound",
        "offset": 0,
        "slot": "3",
        "type": "t_uint256"
      },
      {
        "astId": 340,
        "contract": "contracts/mock_contracts/MockV3AggregatorPC.sol:MockV3AggregatorPC",
        "label": "getAnswer",
        "offset": 0,
        "slot": "4",
        "type": "t_mapping(t_uint256,t_int256)"
      },
      {
        "astId": 345,
        "contract": "contracts/mock_contracts/MockV3AggregatorPC.sol:MockV3AggregatorPC",
        "label": "getTimestamp",
        "offset": 0,
        "slot": "5",
        "type": "t_mapping(t_uint256,t_uint256)"
      },
      {
        "astId": 349,
        "contract": "contracts/mock_contracts/MockV3AggregatorPC.sol:MockV3AggregatorPC",
        "label": "getStartedAt",
        "offset": 0,
        "slot": "6",
        "type": "t_mapping(t_uint256,t_uint256)"
      }
    ],
    "types": {
      "t_int256": {
        "encoding": "inplace",
        "label": "int256",
        "numberOfBytes": "32"
      },
      "t_mapping(t_uint256,t_int256)": {
        "encoding": "mapping",
        "key": "t_uint256",
        "label": "mapping(uint256 => int256)",
        "numberOfBytes": "32",
        "value": "t_int256"
      },
      "t_mapping(t_uint256,t_uint256)": {
        "encoding": "mapping",
        "key": "t_uint256",
        "label": "mapping(uint256 => uint256)",
        "numberOfBytes": "32",
        "value": "t_uint256"
      },
      "t_uint256": {
        "encoding": "inplace",
        "label": "uint256",
        "numberOfBytes": "32"
      },
      "t_uint8": {
        "encoding": "inplace",
        "label": "uint8",
        "numberOfBytes": "1"
      }
    }
  }
}