{
  "address": "0x9fE46736679d2D9a65F0992F2272dE9f3c7fa6e0",
  "abi": [
    {
      "inputs": [
        {
          "internalType": "address",
          "name": "_priceFeedAddress",
          "type": "address"
        }
      ],
      "stateMutability": "nonpayable",
      "type": "constructor"
    },
    {
      "anonymous": false,
      "inputs": [
        {
          "indexed": true,
          "internalType": "address",
          "name": "owner",
          "type": "address"
        },
        {
          "indexed": true,
          "internalType": "address",
          "name": "approved",
          "type": "address"
        },
        {
          "indexed": true,
          "internalType": "uint256",
          "name": "tokenId",
          "type": "uint256"
        }
      ],
      "name": "Approval",
      "type": "event"
    },
    {
      "anonymous": false,
      "inputs": [
        {
          "indexed": true,
          "internalType": "address",
          "name": "owner",
          "type": "address"
        },
        {
          "indexed": true,
          "internalType": "address",
          "name": "operator",
          "type": "address"
        },
        {
          "indexed": false,
          "internalType": "bool",
          "name": "approved",
          "type": "bool"
        }
      ],
      "name": "ApprovalForAll",
      "type": "event"
    },
    {
      "anonymous": false,
      "inputs": [
        {
          "indexed": true,
          "internalType": "address",
          "name": "previousOwner",
          "type": "address"
        },
        {
          "indexed": true,
          "internalType": "address",
          "name": "newOwner",
          "type": "address"
        }
      ],
      "name": "OwnershipTransferred",
      "type": "event"
    },
    {
      "anonymous": false,
      "inputs": [
        {
          "indexed": true,
          "internalType": "address",
          "name": "from",
          "type": "address"
        },
        {
          "indexed": true,
          "internalType": "address",
          "name": "to",
          "type": "address"
        },
        {
          "indexed": true,
          "internalType": "uint256",
          "name": "tokenId",
          "type": "uint256"
        }
      ],
      "name": "Transfer",
      "type": "event"
    },
    {
      "inputs": [
        {
          "internalType": "address",
          "name": "to",
          "type": "address"
        },
        {
          "internalType": "uint256",
          "name": "tokenId",
          "type": "uint256"
        }
      ],
      "name": "approve",
      "outputs": [],
      "stateMutability": "nonpayable",
      "type": "function"
    },
    {
      "inputs": [
        {
          "internalType": "address",
          "name": "owner",
          "type": "address"
        }
      ],
      "name": "balanceOf",
      "outputs": [
        {
          "internalType": "uint256",
          "name": "",
          "type": "uint256"
        }
      ],
      "stateMutability": "view",
      "type": "function"
    },
    {
      "inputs": [],
      "name": "create",
      "outputs": [],
      "stateMutability": "nonpayable",
      "type": "function"
    },
    {
      "inputs": [
        {
          "internalType": "string",
          "name": "imageURI",
          "type": "string"
        }
      ],
      "name": "formatTokenURI",
      "outputs": [
        {
          "internalType": "string",
          "name": "",
          "type": "string"
        }
      ],
      "stateMutability": "pure",
      "type": "function"
    },
    {
      "inputs": [
        {
          "internalType": "uint256",
          "name": "tokenId",
          "type": "uint256"
        }
      ],
      "name": "getApproved",
      "outputs": [
        {
          "internalType": "address",
          "name": "",
          "type": "address"
        }
      ],
      "stateMutability": "view",
      "type": "function"
    },
    {
      "inputs": [
        {
          "internalType": "address",
          "name": "owner",
          "type": "address"
        },
        {
          "internalType": "address",
          "name": "operator",
          "type": "address"
        }
      ],
      "name": "isApprovedForAll",
      "outputs": [
        {
          "internalType": "bool",
          "name": "",
          "type": "bool"
        }
      ],
      "stateMutability": "view",
      "type": "function"
    },
    {
      "inputs": [],
      "name": "name",
      "outputs": [
        {
          "internalType": "string",
          "name": "",
          "type": "string"
        }
      ],
      "stateMutability": "view",
      "type": "function"
    },
    {
      "inputs": [],
      "name": "owner",
      "outputs": [
        {
          "internalType": "address",
          "name": "",
          "type": "address"
        }
      ],
      "stateMutability": "view",
      "type": "function"
    },
    {
      "inputs": [
        {
          "internalType": "uint256",
          "name": "tokenId",
          "type": "uint256"
        }
      ],
      "name": "ownerOf",
      "outputs": [
        {
          "internalType": "address",
          "name": "",
          "type": "address"
        }
      ],
      "stateMutability": "view",
      "type": "function"
    },
    {
      "inputs": [],
      "name": "renounceOwnership",
      "outputs": [],
      "stateMutability": "nonpayable",
      "type": "function"
    },
    {
      "inputs": [
        {
          "internalType": "address",
          "name": "from",
          "type": "address"
        },
        {
          "internalType": "address",
          "name": "to",
          "type": "address"
        },
        {
          "internalType": "uint256",
          "name": "tokenId",
          "type": "uint256"
        }
      ],
      "name": "safeTransferFrom",
      "outputs": [],
      "stateMutability": "nonpayable",
      "type": "function"
    },
    {
      "inputs": [
        {
          "internalType": "address",
          "name": "from",
          "type": "address"
        },
        {
          "internalType": "address",
          "name": "to",
          "type": "address"
        },
        {
          "internalType": "uint256",
          "name": "tokenId",
          "type": "uint256"
        },
        {
          "internalType": "bytes",
          "name": "_data",
          "type": "bytes"
        }
      ],
      "name": "safeTransferFrom",
      "outputs": [],
      "stateMutability": "nonpayable",
      "type": "function"
    },
    {
      "inputs": [
        {
          "internalType": "address",
          "name": "operator",
          "type": "address"
        },
        {
          "internalType": "bool",
          "name": "approved",
          "type": "bool"
        }
      ],
      "name": "setApprovalForAll",
      "outputs": [],
      "stateMutability": "nonpayable",
      "type": "function"
    },
    {
      "inputs": [
        {
          "internalType": "bytes4",
          "name": "interfaceId",
          "type": "bytes4"
        }
      ],
      "name": "supportsInterface",
      "outputs": [
        {
          "internalType": "bool",
          "name": "",
          "type": "bool"
        }
      ],
      "stateMutability": "view",
      "type": "function"
    },
    {
      "inputs": [
        {
          "internalType": "string",
          "name": "svg",
          "type": "string"
        }
      ],
      "name": "svgToImageURI",
      "outputs": [
        {
          "internalType": "string",
          "name": "",
          "type": "string"
        }
      ],
      "stateMutability": "pure",
      "type": "function"
    },
    {
      "inputs": [],
      "name": "symbol",
      "outputs": [
        {
          "internalType": "string",
          "name": "",
          "type": "string"
        }
      ],
      "stateMutability": "view",
      "type": "function"
    },
    {
      "inputs": [],
      "name": "tokenCounter",
      "outputs": [
        {
          "internalType": "uint256",
          "name": "",
          "type": "uint256"
        }
      ],
      "stateMutability": "view",
      "type": "function"
    },
    {
      "inputs": [
        {
          "internalType": "uint256",
          "name": "",
          "type": "uint256"
        }
      ],
      "name": "tokenIdToValue",
      "outputs": [
        {
          "internalType": "int256",
          "name": "",
          "type": "int256"
        }
      ],
      "stateMutability": "view",
      "type": "function"
    },
    {
      "inputs": [
        {
          "internalType": "uint256",
          "name": "tokenId",
          "type": "uint256"
        }
      ],
      "name": "tokenURI",
      "outputs": [
        {
          "internalType": "string",
          "name": "",
          "type": "string"
        }
      ],
      "stateMutability": "view",
      "type": "function"
    },
    {
      "inputs": [
        {
          "internalType": "address",
          "name": "from",
          "type": "address"
        },
        {
          "internalType": "address",
          "name": "to",
          "type": "address"
        },
        {
          "internalType": "uint256",
          "name": "tokenId",
          "type": "uint256"
        }
      ],
      "name": "transferFrom",
      "outputs": [],
      "stateMutability": "nonpayable",
      "type": "function"
    },
    {
      "inputs": [
        {
          "internalType": "address",
          "name": "newOwner",
          "type": "address"
        }
      ],
      "name": "transferOwnership",
      "outputs": [],
      "stateMutability": "nonpayable",
      "type": "function"
    }
  ],
  "transactionHash": "0x50755ea7000363633d55551e5a82cea6dd4331a84f9c4b6621afcf4867a96de7",
  "args": [
    "0x5FbDB2315678afecb367f032d93F642f64180aa3"
  ],
  "numDeployments": 1,
  "solcInputHash": "7f20f727a8ca06fc303639fbc11d58c5",
  "bytecode": "0x60806040523480156200001157600080fd5b506040516200383f3803806200383f833981810160405281019062000037919062000327565b6040518060400160405280600981526020017f5072696365204e465400000000000000000000000000000000000000000000008152506040518060400160405280600481526020017f504e4654000000000000000000000000000000000000000000000000000000008152508160009080519060200190620000bb9291906200020d565b508060019080519060200190620000d49291906200020d565b505050620000f7620000eb6200013f60201b60201c565b6200014760201b60201c565b80600860006101000a81548173ffffffffffffffffffffffffffffffffffffffff021916908373ffffffffffffffffffffffffffffffffffffffff16021790555050620003be565b600033905090565b6000600660009054906101000a900473ffffffffffffffffffffffffffffffffffffffff16905081600660006101000a81548173ffffffffffffffffffffffffffffffffffffffff021916908373ffffffffffffffffffffffffffffffffffffffff1602179055508173ffffffffffffffffffffffffffffffffffffffff168173ffffffffffffffffffffffffffffffffffffffff167f8be0079c531659141344cd1fd0a4f28419497f9722a3daafe3b4186f6b6457e060405160405180910390a35050565b8280546200021b9062000388565b90600052602060002090601f0160209004810192826200023f57600085556200028b565b82601f106200025a57805160ff19168380011785556200028b565b828001600101855582156200028b579182015b828111156200028a5782518255916020019190600101906200026d565b5b5090506200029a91906200029e565b5090565b5b80821115620002b95760008160009055506001016200029f565b5090565b600080fd5b600073ffffffffffffffffffffffffffffffffffffffff82169050919050565b6000620002ef82620002c2565b9050919050565b6200030181620002e2565b81146200030d57600080fd5b50565b6000815190506200032181620002f6565b92915050565b60006020828403121562000340576200033f620002bd565b5b6000620003508482850162000310565b91505092915050565b7f4e487b7100000000000000000000000000000000000000000000000000000000600052602260045260246000fd5b60006002820490506001821680620003a157607f821691505b60208210811415620003b857620003b762000359565b5b50919050565b61347180620003ce6000396000f3fe608060405234801561001057600080fd5b50600436106101375760003560e01c806371aee193116100b8578063ba84a4c41161007c578063ba84a4c41461034c578063c87b56dd1461037c578063d082e381146103ac578063e985e9c5146103ca578063efc81a8c146103fa578063f2fde38b1461040457610137565b806371aee193146102a85780638da5cb5b146102d857806395d89b41146102f6578063a22cb46514610314578063b88d4fde1461033057610137565b806330d871c6116100ff57806330d871c6146101f257806342842e0e146102225780636352211e1461023e57806370a082311461026e578063715018a61461029e57610137565b806301ffc9a71461013c57806306fdde031461016c578063081812fc1461018a578063095ea7b3146101ba57806323b872dd146101d6575b600080fd5b61015660048036038101906101519190611d01565b610420565b6040516101639190611d49565b60405180910390f35b610174610502565b6040516101819190611dfd565b60405180910390f35b6101a4600480360381019061019f9190611e55565b610594565b6040516101b19190611ec3565b60405180910390f35b6101d460048036038101906101cf9190611f0a565b610619565b005b6101f060048036038101906101eb9190611f4a565b610731565b005b61020c600480360381019061020791906120d2565b610791565b6040516102199190611dfd565b60405180910390f35b61023c60048036038101906102379190611f4a565b610805565b005b61025860048036038101906102539190611e55565b610825565b6040516102659190611ec3565b60405180910390f35b6102886004803603810190610283919061211b565b6108d7565b6040516102959190612157565b60405180910390f35b6102a661098f565b005b6102c260048036038101906102bd91906120d2565b610a17565b6040516102cf9190611dfd565b60405180910390f35b6102e0610a67565b6040516102ed9190611ec3565b60405180910390f35b6102fe610a91565b60405161030b9190611dfd565b60405180910390f35b61032e6004803603810190610329919061219e565b610b23565b005b61034a6004803603810190610345919061227f565b610b39565b005b61036660048036038101906103619190611e55565b610b9b565b604051610373919061231b565b60405180910390f35b61039660048036038101906103919190611e55565b610bb3565b6040516103a39190611dfd565b60405180910390f35b6103b4610d6c565b6040516103c19190612157565b60405180910390f35b6103e460048036038101906103df9190612336565b610d72565b6040516103f19190611d49565b60405180910390f35b610402610e06565b005b61041e6004803603810190610419919061211b565b610edd565b005b60007f80ac58cd000000000000000000000000000000000000000000000000000000007bffffffffffffffffffffffffffffffffffffffffffffffffffffffff1916827bffffffffffffffffffffffffffffffffffffffffffffffffffffffff191614806104eb57507f5b5e139f000000000000000000000000000000000000000000000000000000007bffffffffffffffffffffffffffffffffffffffffffffffffffffffff1916827bffffffffffffffffffffffffffffffffffffffffffffffffffffffff1916145b806104fb57506104fa82610fd5565b5b9050919050565b606060008054610511906123a5565b80601f016020809104026020016040519081016040528092919081815260200182805461053d906123a5565b801561058a5780601f1061055f5761010080835404028352916020019161058a565b820191906000526020600020905b81548152906001019060200180831161056d57829003601f168201915b5050505050905090565b600061059f8261103f565b6105de576040517f08c379a00000000000000000000000000000000000000000000000000000000081526004016105d590612449565b60405180910390fd5b6004600083815260200190815260200160002060009054906101000a900473ffffffffffffffffffffffffffffffffffffffff169050919050565b600061062482610825565b90508073ffffffffffffffffffffffffffffffffffffffff168373ffffffffffffffffffffffffffffffffffffffff161415610695576040517f08c379a000000000000000000000000000000000000000000000000000000000815260040161068c906124db565b60405180910390fd5b8073ffffffffffffffffffffffffffffffffffffffff166106b46110ab565b73ffffffffffffffffffffffffffffffffffffffff1614806106e357506106e2816106dd6110ab565b610d72565b5b610722576040517f08c379a00000000000000000000000000000000000000000000000000000000081526004016107199061256d565b60405180910390fd5b61072c83836110b3565b505050565b61074261073c6110ab565b8261116c565b610781576040517f08c379a0000000000000000000000000000000000000000000000000000000008152600401610778906125ff565b60405180910390fd5b61078c83838361124a565b505050565b606060006040518060400160405280601a81526020017f646174613a696d6167652f7376672b786d6c3b6261736536342c000000000000815250905060006107d8846114a6565b905081816040516020016107ed92919061265b565b60405160208183030381529060405292505050919050565b61082083838360405180602001604052806000815250610b39565b505050565b6000806002600084815260200190815260200160002060009054906101000a900473ffffffffffffffffffffffffffffffffffffffff169050600073ffffffffffffffffffffffffffffffffffffffff168173ffffffffffffffffffffffffffffffffffffffff1614156108ce576040517f08c379a00000000000000000000000000000000000000000000000000000000081526004016108c5906126f1565b60405180910390fd5b80915050919050565b60008073ffffffffffffffffffffffffffffffffffffffff168273ffffffffffffffffffffffffffffffffffffffff161415610948576040517f08c379a000000000000000000000000000000000000000000000000000000000815260040161093f90612783565b60405180910390fd5b600360008373ffffffffffffffffffffffffffffffffffffffff1673ffffffffffffffffffffffffffffffffffffffff168152602001908152602001600020549050919050565b6109976110ab565b73ffffffffffffffffffffffffffffffffffffffff166109b5610a67565b73ffffffffffffffffffffffffffffffffffffffff1614610a0b576040517f08c379a0000000000000000000000000000000000000000000000000000000008152600401610a02906127ef565b60405180910390fd5b610a15600061161f565b565b6060610a4182604051602001610a2d9190612965565b6040516020818303038152906040526114a6565b604051602001610a5191906129f4565b6040516020818303038152906040529050919050565b6000600660009054906101000a900473ffffffffffffffffffffffffffffffffffffffff16905090565b606060018054610aa0906123a5565b80601f0160208091040260200160405190810160405280929190818152602001828054610acc906123a5565b8015610b195780601f10610aee57610100808354040283529160200191610b19565b820191906000526020600020905b815481529060010190602001808311610afc57829003601f168201915b5050505050905090565b610b35610b2e6110ab565b83836116e5565b5050565b610b4a610b446110ab565b8361116c565b610b89576040517f08c379a0000000000000000000000000000000000000000000000000000000008152600401610b80906125ff565b60405180910390fd5b610b9584848484611852565b50505050565b60096020528060005260406000206000915090505481565b6060610bbe8261103f565b610bfd576040517f08c379a0000000000000000000000000000000000000000000000000000000008152600401610bf490612a88565b60405180910390fd5b6000600860009054906101000a900473ffffffffffffffffffffffffffffffffffffffff1673ffffffffffffffffffffffffffffffffffffffff1663feaf968c6040518163ffffffff1660e01b815260040160a060405180830381865afa158015610c6c573d6000803e3d6000fd5b505050506040513d601f19601f82011682018060405250810190610c909190612b2b565b5050509150506000600960008581526020019081526020016000205490506000818284610cbd9190612bd5565b610cc79190612c98565b9050600073e7f1725E7734CE288F8367e1Bb143E90bb3F051263b01c0830836040518263ffffffff1660e01b8152600401610d029190612d11565b600060405180830381865af4158015610d1f573d6000803e3d6000fd5b505050506040513d6000823e3d601f19601f82011682018060405250810190610d489190612d9c565b90506000610d5582610791565b9050610d6081610a17565b95505050505050919050565b60075481565b6000600560008473ffffffffffffffffffffffffffffffffffffffff1673ffffffffffffffffffffffffffffffffffffffff16815260200190815260200160002060008373ffffffffffffffffffffffffffffffffffffffff1673ffffffffffffffffffffffffffffffffffffffff16815260200190815260200160002060009054906101000a900460ff16905092915050565b6000600860009054906101000a900473ffffffffffffffffffffffffffffffffffffffff1673ffffffffffffffffffffffffffffffffffffffff1663feaf968c6040518163ffffffff1660e01b815260040160a060405180830381865afa158015610e75573d6000803e3d6000fd5b505050506040513d601f19601f82011682018060405250810190610e999190612b2b565b5050509150508060096000600754815260200190815260200160002081905550610ec5336007546118ae565b6001600754610ed49190612de5565b60078190555050565b610ee56110ab565b73ffffffffffffffffffffffffffffffffffffffff16610f03610a67565b73ffffffffffffffffffffffffffffffffffffffff1614610f59576040517f08c379a0000000000000000000000000000000000000000000000000000000008152600401610f50906127ef565b60405180910390fd5b600073ffffffffffffffffffffffffffffffffffffffff168173ffffffffffffffffffffffffffffffffffffffff161415610fc9576040517f08c379a0000000000000000000000000000000000000000000000000000000008152600401610fc090612ead565b60405180910390fd5b610fd28161161f565b50565b60007f01ffc9a7000000000000000000000000000000000000000000000000000000007bffffffffffffffffffffffffffffffffffffffffffffffffffffffff1916827bffffffffffffffffffffffffffffffffffffffffffffffffffffffff1916149050919050565b60008073ffffffffffffffffffffffffffffffffffffffff166002600084815260200190815260200160002060009054906101000a900473ffffffffffffffffffffffffffffffffffffffff1673ffffffffffffffffffffffffffffffffffffffff1614159050919050565b600033905090565b816004600083815260200190815260200160002060006101000a81548173ffffffffffffffffffffffffffffffffffffffff021916908373ffffffffffffffffffffffffffffffffffffffff160217905550808273ffffffffffffffffffffffffffffffffffffffff1661112683610825565b73ffffffffffffffffffffffffffffffffffffffff167f8c5be1e5ebec7d5bd14f71427d1e84f3dd0314c0f7b2291e5b200ac8c7c3b92560405160405180910390a45050565b60006111778261103f565b6111b6576040517f08c379a00000000000000000000000000000000000000000000000000000000081526004016111ad90612f3f565b60405180910390fd5b60006111c183610825565b90508073ffffffffffffffffffffffffffffffffffffffff168473ffffffffffffffffffffffffffffffffffffffff16148061123057508373ffffffffffffffffffffffffffffffffffffffff1661121884610594565b73ffffffffffffffffffffffffffffffffffffffff16145b8061124157506112408185610d72565b5b91505092915050565b8273ffffffffffffffffffffffffffffffffffffffff1661126a82610825565b73ffffffffffffffffffffffffffffffffffffffff16146112c0576040517f08c379a00000000000000000000000000000000000000000000000000000000081526004016112b790612fd1565b60405180910390fd5b600073ffffffffffffffffffffffffffffffffffffffff168273ffffffffffffffffffffffffffffffffffffffff161415611330576040517f08c379a000000000000000000000000000000000000000000000000000000000815260040161132790613063565b60405180910390fd5b61133b8383836118cc565b6113466000826110b3565b6001600360008573ffffffffffffffffffffffffffffffffffffffff1673ffffffffffffffffffffffffffffffffffffffff16815260200190815260200160002060008282546113969190613083565b925050819055506001600360008473ffffffffffffffffffffffffffffffffffffffff1673ffffffffffffffffffffffffffffffffffffffff16815260200190815260200160002060008282546113ed9190612de5565b92505081905550816002600083815260200190815260200160002060006101000a81548173ffffffffffffffffffffffffffffffffffffffff021916908373ffffffffffffffffffffffffffffffffffffffff160217905550808273ffffffffffffffffffffffffffffffffffffffff168473ffffffffffffffffffffffffffffffffffffffff167fddf252ad1be2c89b69c2b068fc378daa952ba7f163c4a11628f55a4df523b3ef60405160405180910390a4505050565b60606000825114156114c95760405180602001604052806000815250905061161a565b60006040518060600160405280604081526020016133fc60409139905060006003600285516114f89190612de5565b61150291906130b7565b600461150e91906130e8565b9050600060208261151f9190612de5565b67ffffffffffffffff81111561153857611537611fa7565b5b6040519080825280601f01601f19166020018201604052801561156a5781602001600182028036833780820191505090505b509050818152600183018586518101602084015b818310156115d9576003830192508251603f8160121c168501518253600182019150603f81600c1c168501518253600182019150603f8160061c168501518253600182019150603f811685015182536001820191505061157e565b6003895106600181146115f357600281146116035761160e565b613d3d60f01b600283035261160e565b603d60f81b60018303525b50505050508093505050505b919050565b6000600660009054906101000a900473ffffffffffffffffffffffffffffffffffffffff16905081600660006101000a81548173ffffffffffffffffffffffffffffffffffffffff021916908373ffffffffffffffffffffffffffffffffffffffff1602179055508173ffffffffffffffffffffffffffffffffffffffff168173ffffffffffffffffffffffffffffffffffffffff167f8be0079c531659141344cd1fd0a4f28419497f9722a3daafe3b4186f6b6457e060405160405180910390a35050565b8173ffffffffffffffffffffffffffffffffffffffff168373ffffffffffffffffffffffffffffffffffffffff161415611754576040517f08c379a000000000000000000000000000000000000000000000000000000000815260040161174b9061318e565b60405180910390fd5b80600560008573ffffffffffffffffffffffffffffffffffffffff1673ffffffffffffffffffffffffffffffffffffffff16815260200190815260200160002060008473ffffffffffffffffffffffffffffffffffffffff1673ffffffffffffffffffffffffffffffffffffffff16815260200190815260200160002060006101000a81548160ff0219169083151502179055508173ffffffffffffffffffffffffffffffffffffffff168373ffffffffffffffffffffffffffffffffffffffff167f17307eab39ab6107e8899845ad3d59bd9653f200f220920489ca2b5937696c31836040516118459190611d49565b60405180910390a3505050565b61185d84848461124a565b611869848484846118d1565b6118a8576040517f08c379a000000000000000000000000000000000000000000000000000000000815260040161189f90613220565b60405180910390fd5b50505050565b6118c8828260405180602001604052806000815250611a59565b5050565b505050565b60006118f28473ffffffffffffffffffffffffffffffffffffffff16611ab4565b15611a4c578373ffffffffffffffffffffffffffffffffffffffff1663150b7a0261191b6110ab565b8786866040518563ffffffff1660e01b815260040161193d9493929190613295565b6020604051808303816000875af192505050801561197957506040513d601f19601f8201168201806040525081019061197691906132f6565b60015b6119fc573d80600081146119a9576040519150601f19603f3d011682016040523d82523d6000602084013e6119ae565b606091505b506000815114156119f4576040517f08c379a00000000000000000000000000000000000000000000000000000000081526004016119eb90613220565b60405180910390fd5b805181602001fd5b63150b7a0260e01b7bffffffffffffffffffffffffffffffffffffffffffffffffffffffff1916817bffffffffffffffffffffffffffffffffffffffffffffffffffffffff191614915050611a51565b600190505b949350505050565b611a638383611ac7565b611a7060008484846118d1565b611aaf576040517f08c379a0000000000000000000000000000000000000000000000000000000008152600401611aa690613220565b60405180910390fd5b505050565b600080823b905060008111915050919050565b600073ffffffffffffffffffffffffffffffffffffffff168273ffffffffffffffffffffffffffffffffffffffff161415611b37576040517f08c379a0000000000000000000000000000000000000000000000000000000008152600401611b2e9061336f565b60405180910390fd5b611b408161103f565b15611b80576040517f08c379a0000000000000000000000000000000000000000000000000000000008152600401611b77906133db565b60405180910390fd5b611b8c600083836118cc565b6001600360008473ffffffffffffffffffffffffffffffffffffffff1673ffffffffffffffffffffffffffffffffffffffff1681526020019081526020016000206000828254611bdc9190612de5565b92505081905550816002600083815260200190815260200160002060006101000a81548173ffffffffffffffffffffffffffffffffffffffff021916908373ffffffffffffffffffffffffffffffffffffffff160217905550808273ffffffffffffffffffffffffffffffffffffffff16600073ffffffffffffffffffffffffffffffffffffffff167fddf252ad1be2c89b69c2b068fc378daa952ba7f163c4a11628f55a4df523b3ef60405160405180910390a45050565b6000604051905090565b600080fd5b600080fd5b60007fffffffff0000000000000000000000000000000000000000000000000000000082169050919050565b611cde81611ca9565b8114611ce957600080fd5b50565b600081359050611cfb81611cd5565b92915050565b600060208284031215611d1757611d16611c9f565b5b6000611d2584828501611cec565b91505092915050565b60008115159050919050565b611d4381611d2e565b82525050565b6000602082019050611d5e6000830184611d3a565b92915050565b600081519050919050565b600082825260208201905092915050565b60005b83811015611d9e578082015181840152602081019050611d83565b83811115611dad576000848401525b50505050565b6000601f19601f8301169050919050565b6000611dcf82611d64565b611dd98185611d6f565b9350611de9818560208601611d80565b611df281611db3565b840191505092915050565b60006020820190508181036000830152611e178184611dc4565b905092915050565b6000819050919050565b611e3281611e1f565b8114611e3d57600080fd5b50565b600081359050611e4f81611e29565b92915050565b600060208284031215611e6b57611e6a611c9f565b5b6000611e7984828501611e40565b91505092915050565b600073ffffffffffffffffffffffffffffffffffffffff82169050919050565b6000611ead82611e82565b9050919050565b611ebd81611ea2565b82525050565b6000602082019050611ed86000830184611eb4565b92915050565b611ee781611ea2565b8114611ef257600080fd5b50565b600081359050611f0481611ede565b92915050565b60008060408385031215611f2157611f20611c9f565b5b6000611f2f85828601611ef5565b9250506020611f4085828601611e40565b9150509250929050565b600080600060608486031215611f6357611f62611c9f565b5b6000611f7186828701611ef5565b9350506020611f8286828701611ef5565b9250506040611f9386828701611e40565b9150509250925092565b600080fd5b600080fd5b7f4e487b7100000000000000000000000000000000000000000000000000000000600052604160045260246000fd5b611fdf82611db3565b810181811067ffffffffffffffff82111715611ffe57611ffd611fa7565b5b80604052505050565b6000612011611c95565b905061201d8282611fd6565b919050565b600067ffffffffffffffff82111561203d5761203c611fa7565b5b61204682611db3565b9050602081019050919050565b82818337600083830152505050565b600061207561207084612022565b612007565b90508281526020810184848401111561209157612090611fa2565b5b61209c848285612053565b509392505050565b600082601f8301126120b9576120b8611f9d565b5b81356120c9848260208601612062565b91505092915050565b6000602082840312156120e8576120e7611c9f565b5b600082013567ffffffffffffffff81111561210657612105611ca4565b5b612112848285016120a4565b91505092915050565b60006020828403121561213157612130611c9f565b5b600061213f84828501611ef5565b91505092915050565b61215181611e1f565b82525050565b600060208201905061216c6000830184612148565b92915050565b61217b81611d2e565b811461218657600080fd5b50565b60008135905061219881612172565b92915050565b600080604083850312156121b5576121b4611c9f565b5b60006121c385828601611ef5565b92505060206121d485828601612189565b9150509250929050565b600067ffffffffffffffff8211156121f9576121f8611fa7565b5b61220282611db3565b9050602081019050919050565b600061222261221d846121de565b612007565b90508281526020810184848401111561223e5761223d611fa2565b5b612249848285612053565b509392505050565b600082601f83011261226657612265611f9d565b5b813561227684826020860161220f565b91505092915050565b6000806000806080858703121561229957612298611c9f565b5b60006122a787828801611ef5565b94505060206122b887828801611ef5565b93505060406122c987828801611e40565b925050606085013567ffffffffffffffff8111156122ea576122e9611ca4565b5b6122f687828801612251565b91505092959194509250565b6000819050919050565b61231581612302565b82525050565b6000602082019050612330600083018461230c565b92915050565b6000806040838503121561234d5761234c611c9f565b5b600061235b85828601611ef5565b925050602061236c85828601611ef5565b9150509250929050565b7f4e487b7100000000000000000000000000000000000000000000000000000000600052602260045260246000fd5b600060028204905060018216806123bd57607f821691505b602082108114156123d1576123d0612376565b5b50919050565b7f4552433732313a20617070726f76656420717565727920666f72206e6f6e657860008201527f697374656e7420746f6b656e0000000000000000000000000000000000000000602082015250565b6000612433602c83611d6f565b915061243e826123d7565b604082019050919050565b6000602082019050818103600083015261246281612426565b9050919050565b7f4552433732313a20617070726f76616c20746f2063757272656e74206f776e6560008201527f7200000000000000000000000000000000000000000000000000000000000000602082015250565b60006124c5602183611d6f565b91506124d082612469565b604082019050919050565b600060208201905081810360008301526124f4816124b8565b9050919050565b7f4552433732313a20617070726f76652063616c6c6572206973206e6f74206f7760008201527f6e6572206e6f7220617070726f76656420666f7220616c6c0000000000000000602082015250565b6000612557603883611d6f565b9150612562826124fb565b604082019050919050565b600060208201905081810360008301526125868161254a565b9050919050565b7f4552433732313a207472616e736665722063616c6c6572206973206e6f74206f60008201527f776e6572206e6f7220617070726f766564000000000000000000000000000000602082015250565b60006125e9603183611d6f565b91506125f48261258d565b604082019050919050565b60006020820190508181036000830152612618816125dc565b9050919050565b600081905092915050565b600061263582611d64565b61263f818561261f565b935061264f818560208601611d80565b80840191505092915050565b6000612667828561262a565b9150612673828461262a565b91508190509392505050565b7f4552433732313a206f776e657220717565727920666f72206e6f6e657869737460008201527f656e7420746f6b656e0000000000000000000000000000000000000000000000602082015250565b60006126db602983611d6f565b91506126e68261267f565b604082019050919050565b6000602082019050818103600083015261270a816126ce565b9050919050565b7f4552433732313a2062616c616e636520717565727920666f7220746865207a6560008201527f726f206164647265737300000000000000000000000000000000000000000000602082015250565b600061276d602a83611d6f565b915061277882612711565b604082019050919050565b6000602082019050818103600083015261279c81612760565b9050919050565b7f4f776e61626c653a2063616c6c6572206973206e6f7420746865206f776e6572600082015250565b60006127d9602083611d6f565b91506127e4826127a3565b602082019050919050565b60006020820190508181036000830152612808816127cc565b9050919050565b7f7b226e616d65223a220000000000000000000000000000000000000000000000600082015250565b600061284560098361261f565b91506128508261280f565b600982019050919050565b7f50726963652046656564204e4654000000000000000000000000000000000000600082015250565b6000612891600e8361261f565b915061289c8261285b565b600e82019050919050565b7f222c20226465736372697074696f6e223a22222c20226174747269627574657360008201527f223a22222c2022696d616765223a220000000000000000000000000000000000602082015250565b6000612903602f8361261f565b915061290e826128a7565b602f82019050919050565b7f227d000000000000000000000000000000000000000000000000000000000000600082015250565b600061294f60028361261f565b915061295a82612919565b600282019050919050565b600061297082612838565b915061297b82612884565b9150612986826128f6565b9150612992828461262a565b915061299d82612942565b915081905092915050565b7f646174613a6170706c69636174696f6e2f6a736f6e3b6261736536342c000000600082015250565b60006129de601d8361261f565b91506129e9826129a8565b601d82019050919050565b60006129ff826129d1565b9150612a0b828461262a565b915081905092915050565b7f4552433732314d657461646174613a2055524920717565727920666f72206e6f60008201527f6e6578697374656e7420746f6b656e0000000000000000000000000000000000602082015250565b6000612a72602f83611d6f565b9150612a7d82612a16565b604082019050919050565b60006020820190508181036000830152612aa181612a65565b9050919050565b600069ffffffffffffffffffff82169050919050565b612ac781612aa8565b8114612ad257600080fd5b50565b600081519050612ae481612abe565b92915050565b612af381612302565b8114612afe57600080fd5b50565b600081519050612b1081612aea565b92915050565b600081519050612b2581611e29565b92915050565b600080600080600060a08688031215612b4757612b46611c9f565b5b6000612b5588828901612ad5565b9550506020612b6688828901612b01565b9450506040612b7788828901612b16565b9350506060612b8888828901612b16565b9250506080612b9988828901612ad5565b9150509295509295909350565b7f4e487b7100000000000000000000000000000000000000000000000000000000600052601160045260246000fd5b6000612be082612302565b9150612beb83612302565b9250827f800000000000000000000000000000000000000000000000000000000000000001821260008412151615612c2657612c25612ba6565b5b827f7fffffffffffffffffffffffffffffffffffffffffffffffffffffffffffffff018213600084121615612c5e57612c5d612ba6565b5b828203905092915050565b7f4e487b7100000000000000000000000000000000000000000000000000000000600052601260045260246000fd5b6000612ca382612302565b9150612cae83612302565b925082612cbe57612cbd612c69565b5b600160000383147f800000000000000000000000000000000000000000000000000000000000000083141615612cf757612cf6612ba6565b5b828205905092915050565b612d0b81612302565b82525050565b6000602082019050612d266000830184612d02565b92915050565b6000612d3f612d3a84612022565b612007565b905082815260208101848484011115612d5b57612d5a611fa2565b5b612d66848285611d80565b509392505050565b600082601f830112612d8357612d82611f9d565b5b8151612d93848260208601612d2c565b91505092915050565b600060208284031215612db257612db1611c9f565b5b600082015167ffffffffffffffff811115612dd057612dcf611ca4565b5b612ddc84828501612d6e565b91505092915050565b6000612df082611e1f565b9150612dfb83611e1f565b9250827fffffffffffffffffffffffffffffffffffffffffffffffffffffffffffffffff03821115612e3057612e2f612ba6565b5b828201905092915050565b7f4f776e61626c653a206e6577206f776e657220697320746865207a65726f206160008201527f6464726573730000000000000000000000000000000000000000000000000000602082015250565b6000612e97602683611d6f565b9150612ea282612e3b565b604082019050919050565b60006020820190508181036000830152612ec681612e8a565b9050919050565b7f4552433732313a206f70657261746f7220717565727920666f72206e6f6e657860008201527f697374656e7420746f6b656e0000000000000000000000000000000000000000602082015250565b6000612f29602c83611d6f565b9150612f3482612ecd565b604082019050919050565b60006020820190508181036000830152612f5881612f1c565b9050919050565b7f4552433732313a207472616e73666572206f6620746f6b656e2074686174206960008201527f73206e6f74206f776e0000000000000000000000000000000000000000000000602082015250565b6000612fbb602983611d6f565b9150612fc682612f5f565b604082019050919050565b60006020820190508181036000830152612fea81612fae565b9050919050565b7f4552433732313a207472616e7366657220746f20746865207a65726f2061646460008201527f7265737300000000000000000000000000000000000000000000000000000000602082015250565b600061304d602483611d6f565b915061305882612ff1565b604082019050919050565b6000602082019050818103600083015261307c81613040565b9050919050565b600061308e82611e1f565b915061309983611e1f565b9250828210156130ac576130ab612ba6565b5b828203905092915050565b60006130c282611e1f565b91506130cd83611e1f565b9250826130dd576130dc612c69565b5b828204905092915050565b60006130f382611e1f565b91506130fe83611e1f565b9250817fffffffffffffffffffffffffffffffffffffffffffffffffffffffffffffffff048311821515161561313757613136612ba6565b5b828202905092915050565b7f4552433732313a20617070726f766520746f2063616c6c657200000000000000600082015250565b6000613178601983611d6f565b915061318382613142565b602082019050919050565b600060208201905081810360008301526131a78161316b565b9050919050565b7f4552433732313a207472616e7366657220746f206e6f6e20455243373231526560008201527f63656976657220696d706c656d656e7465720000000000000000000000000000602082015250565b600061320a603283611d6f565b9150613215826131ae565b604082019050919050565b60006020820190508181036000830152613239816131fd565b9050919050565b600081519050919050565b600082825260208201905092915050565b600061326782613240565b613271818561324b565b9350613281818560208601611d80565b61328a81611db3565b840191505092915050565b60006080820190506132aa6000830187611eb4565b6132b76020830186611eb4565b6132c46040830185612148565b81810360608301526132d6818461325c565b905095945050505050565b6000815190506132f081611cd5565b92915050565b60006020828403121561330c5761330b611c9f565b5b600061331a848285016132e1565b91505092915050565b7f4552433732313a206d696e7420746f20746865207a65726f2061646472657373600082015250565b6000613359602083611d6f565b915061336482613323565b602082019050919050565b600060208201905081810360008301526133888161334c565b9050919050565b7f4552433732313a20746f6b656e20616c7265616479206d696e74656400000000600082015250565b60006133c5601c83611d6f565b91506133d08261338f565b602082019050919050565b600060208201905081810360008301526133f4816133b8565b905091905056fe4142434445464748494a4b4c4d4e4f505152535455565758595a6162636465666768696a6b6c6d6e6f707172737475767778797a303132333435363738392b2fa2646970667358221220d6754a0647a44e527ed3bb63b30cac152484e48955a8c338cae96f9cc33fcccc64736f6c634300080b0033",
  "deployedBytecode": "0x608060405234801561001057600080fd5b50600436106101375760003560e01c806371aee193116100b8578063ba84a4c41161007c578063ba84a4c41461034c578063c87b56dd1461037c578063d082e381146103ac578063e985e9c5146103ca578063efc81a8c146103fa578063f2fde38b1461040457610137565b806371aee193146102a85780638da5cb5b146102d857806395d89b41146102f6578063a22cb46514610314578063b88d4fde1461033057610137565b806330d871c6116100ff57806330d871c6146101f257806342842e0e146102225780636352211e1461023e57806370a082311461026e578063715018a61461029e57610137565b806301ffc9a71461013c57806306fdde031461016c578063081812fc1461018a578063095ea7b3146101ba57806323b872dd146101d6575b600080fd5b61015660048036038101906101519190611d01565b610420565b6040516101639190611d49565b60405180910390f35b610174610502565b6040516101819190611dfd565b60405180910390f35b6101a4600480360381019061019f9190611e55565b610594565b6040516101b19190611ec3565b60405180910390f35b6101d460048036038101906101cf9190611f0a565b610619565b005b6101f060048036038101906101eb9190611f4a565b610731565b005b61020c600480360381019061020791906120d2565b610791565b6040516102199190611dfd565b60405180910390f35b61023c60048036038101906102379190611f4a565b610805565b005b61025860048036038101906102539190611e55565b610825565b6040516102659190611ec3565b60405180910390f35b6102886004803603810190610283919061211b565b6108d7565b6040516102959190612157565b60405180910390f35b6102a661098f565b005b6102c260048036038101906102bd91906120d2565b610a17565b6040516102cf9190611dfd565b60405180910390f35b6102e0610a67565b6040516102ed9190611ec3565b60405180910390f35b6102fe610a91565b60405161030b9190611dfd565b60405180910390f35b61032e6004803603810190610329919061219e565b610b23565b005b61034a6004803603810190610345919061227f565b610b39565b005b61036660048036038101906103619190611e55565b610b9b565b604051610373919061231b565b60405180910390f35b61039660048036038101906103919190611e55565b610bb3565b6040516103a39190611dfd565b60405180910390f35b6103b4610d6c565b6040516103c19190612157565b60405180910390f35b6103e460048036038101906103df9190612336565b610d72565b6040516103f19190611d49565b60405180910390f35b610402610e06565b005b61041e6004803603810190610419919061211b565b610edd565b005b60007f80ac58cd000000000000000000000000000000000000000000000000000000007bffffffffffffffffffffffffffffffffffffffffffffffffffffffff1916827bffffffffffffffffffffffffffffffffffffffffffffffffffffffff191614806104eb57507f5b5e139f000000000000000000000000000000000000000000000000000000007bffffffffffffffffffffffffffffffffffffffffffffffffffffffff1916827bffffffffffffffffffffffffffffffffffffffffffffffffffffffff1916145b806104fb57506104fa82610fd5565b5b9050919050565b606060008054610511906123a5565b80601f016020809104026020016040519081016040528092919081815260200182805461053d906123a5565b801561058a5780601f1061055f5761010080835404028352916020019161058a565b820191906000526020600020905b81548152906001019060200180831161056d57829003601f168201915b5050505050905090565b600061059f8261103f565b6105de576040517f08c379a00000000000000000000000000000000000000000000000000000000081526004016105d590612449565b60405180910390fd5b6004600083815260200190815260200160002060009054906101000a900473ffffffffffffffffffffffffffffffffffffffff169050919050565b600061062482610825565b90508073ffffffffffffffffffffffffffffffffffffffff168373ffffffffffffffffffffffffffffffffffffffff161415610695576040517f08c379a000000000000000000000000000000000000000000000000000000000815260040161068c906124db565b60405180910390fd5b8073ffffffffffffffffffffffffffffffffffffffff166106b46110ab565b73ffffffffffffffffffffffffffffffffffffffff1614806106e357506106e2816106dd6110ab565b610d72565b5b610722576040517f08c379a00000000000000000000000000000000000000000000000000000000081526004016107199061256d565b60405180910390fd5b61072c83836110b3565b505050565b61074261073c6110ab565b8261116c565b610781576040517f08c379a0000000000000000000000000000000000000000000000000000000008152600401610778906125ff565b60405180910390fd5b61078c83838361124a565b505050565b606060006040518060400160405280601a81526020017f646174613a696d6167652f7376672b786d6c3b6261736536342c000000000000815250905060006107d8846114a6565b905081816040516020016107ed92919061265b565b60405160208183030381529060405292505050919050565b61082083838360405180602001604052806000815250610b39565b505050565b6000806002600084815260200190815260200160002060009054906101000a900473ffffffffffffffffffffffffffffffffffffffff169050600073ffffffffffffffffffffffffffffffffffffffff168173ffffffffffffffffffffffffffffffffffffffff1614156108ce576040517f08c379a00000000000000000000000000000000000000000000000000000000081526004016108c5906126f1565b60405180910390fd5b80915050919050565b60008073ffffffffffffffffffffffffffffffffffffffff168273ffffffffffffffffffffffffffffffffffffffff161415610948576040517f08c379a000000000000000000000000000000000000000000000000000000000815260040161093f90612783565b60405180910390fd5b600360008373ffffffffffffffffffffffffffffffffffffffff1673ffffffffffffffffffffffffffffffffffffffff168152602001908152602001600020549050919050565b6109976110ab565b73ffffffffffffffffffffffffffffffffffffffff166109b5610a67565b73ffffffffffffffffffffffffffffffffffffffff1614610a0b576040517f08c379a0000000000000000000000000000000000000000000000000000000008152600401610a02906127ef565b60405180910390fd5b610a15600061161f565b565b6060610a4182604051602001610a2d9190612965565b6040516020818303038152906040526114a6565b604051602001610a5191906129f4565b6040516020818303038152906040529050919050565b6000600660009054906101000a900473ffffffffffffffffffffffffffffffffffffffff16905090565b606060018054610aa0906123a5565b80601f0160208091040260200160405190810160405280929190818152602001828054610acc906123a5565b8015610b195780601f10610aee57610100808354040283529160200191610b19565b820191906000526020600020905b815481529060010190602001808311610afc57829003601f168201915b5050505050905090565b610b35610b2e6110ab565b83836116e5565b5050565b610b4a610b446110ab565b8361116c565b610b89576040517f08c379a0000000000000000000000000000000000000000000000000000000008152600401610b80906125ff565b60405180910390fd5b610b9584848484611852565b50505050565b60096020528060005260406000206000915090505481565b6060610bbe8261103f565b610bfd576040517f08c379a0000000000000000000000000000000000000000000000000000000008152600401610bf490612a88565b60405180910390fd5b6000600860009054906101000a900473ffffffffffffffffffffffffffffffffffffffff1673ffffffffffffffffffffffffffffffffffffffff1663feaf968c6040518163ffffffff1660e01b815260040160a060405180830381865afa158015610c6c573d6000803e3d6000fd5b505050506040513d601f19601f82011682018060405250810190610c909190612b2b565b5050509150506000600960008581526020019081526020016000205490506000818284610cbd9190612bd5565b610cc79190612c98565b9050600073__$12c180a4b646ab3944f6b6d6dd47beb74f$__63b01c0830836040518263ffffffff1660e01b8152600401610d029190612d11565b600060405180830381865af4158015610d1f573d6000803e3d6000fd5b505050506040513d6000823e3d601f19601f82011682018060405250810190610d489190612d9c565b90506000610d5582610791565b9050610d6081610a17565b95505050505050919050565b60075481565b6000600560008473ffffffffffffffffffffffffffffffffffffffff1673ffffffffffffffffffffffffffffffffffffffff16815260200190815260200160002060008373ffffffffffffffffffffffffffffffffffffffff1673ffffffffffffffffffffffffffffffffffffffff16815260200190815260200160002060009054906101000a900460ff16905092915050565b6000600860009054906101000a900473ffffffffffffffffffffffffffffffffffffffff1673ffffffffffffffffffffffffffffffffffffffff1663feaf968c6040518163ffffffff1660e01b815260040160a060405180830381865afa158015610e75573d6000803e3d6000fd5b505050506040513d601f19601f82011682018060405250810190610e999190612b2b565b5050509150508060096000600754815260200190815260200160002081905550610ec5336007546118ae565b6001600754610ed49190612de5565b60078190555050565b610ee56110ab565b73ffffffffffffffffffffffffffffffffffffffff16610f03610a67565b73ffffffffffffffffffffffffffffffffffffffff1614610f59576040517f08c379a0000000000000000000000000000000000000000000000000000000008152600401610f50906127ef565b60405180910390fd5b600073ffffffffffffffffffffffffffffffffffffffff168173ffffffffffffffffffffffffffffffffffffffff161415610fc9576040517f08c379a0000000000000000000000000000000000000000000000000000000008152600401610fc090612ead565b60405180910390fd5b610fd28161161f565b50565b60007f01ffc9a7000000000000000000000000000000000000000000000000000000007bffffffffffffffffffffffffffffffffffffffffffffffffffffffff1916827bffffffffffffffffffffffffffffffffffffffffffffffffffffffff1916149050919050565b60008073ffffffffffffffffffffffffffffffffffffffff166002600084815260200190815260200160002060009054906101000a900473ffffffffffffffffffffffffffffffffffffffff1673ffffffffffffffffffffffffffffffffffffffff1614159050919050565b600033905090565b816004600083815260200190815260200160002060006101000a81548173ffffffffffffffffffffffffffffffffffffffff021916908373ffffffffffffffffffffffffffffffffffffffff160217905550808273ffffffffffffffffffffffffffffffffffffffff1661112683610825565b73ffffffffffffffffffffffffffffffffffffffff167f8c5be1e5ebec7d5bd14f71427d1e84f3dd0314c0f7b2291e5b200ac8c7c3b92560405160405180910390a45050565b60006111778261103f565b6111b6576040517f08c379a00000000000000000000000000000000000000000000000000000000081526004016111ad90612f3f565b60405180910390fd5b60006111c183610825565b90508073ffffffffffffffffffffffffffffffffffffffff168473ffffffffffffffffffffffffffffffffffffffff16148061123057508373ffffffffffffffffffffffffffffffffffffffff1661121884610594565b73ffffffffffffffffffffffffffffffffffffffff16145b8061124157506112408185610d72565b5b91505092915050565b8273ffffffffffffffffffffffffffffffffffffffff1661126a82610825565b73ffffffffffffffffffffffffffffffffffffffff16146112c0576040517f08c379a00000000000000000000000000000000000000000000000000000000081526004016112b790612fd1565b60405180910390fd5b600073ffffffffffffffffffffffffffffffffffffffff168273ffffffffffffffffffffffffffffffffffffffff161415611330576040517f08c379a000000000000000000000000000000000000000000000000000000000815260040161132790613063565b60405180910390fd5b61133b8383836118cc565b6113466000826110b3565b6001600360008573ffffffffffffffffffffffffffffffffffffffff1673ffffffffffffffffffffffffffffffffffffffff16815260200190815260200160002060008282546113969190613083565b925050819055506001600360008473ffffffffffffffffffffffffffffffffffffffff1673ffffffffffffffffffffffffffffffffffffffff16815260200190815260200160002060008282546113ed9190612de5565b92505081905550816002600083815260200190815260200160002060006101000a81548173ffffffffffffffffffffffffffffffffffffffff021916908373ffffffffffffffffffffffffffffffffffffffff160217905550808273ffffffffffffffffffffffffffffffffffffffff168473ffffffffffffffffffffffffffffffffffffffff167fddf252ad1be2c89b69c2b068fc378daa952ba7f163c4a11628f55a4df523b3ef60405160405180910390a4505050565b60606000825114156114c95760405180602001604052806000815250905061161a565b60006040518060600160405280604081526020016133fc60409139905060006003600285516114f89190612de5565b61150291906130b7565b600461150e91906130e8565b9050600060208261151f9190612de5565b67ffffffffffffffff81111561153857611537611fa7565b5b6040519080825280601f01601f19166020018201604052801561156a5781602001600182028036833780820191505090505b509050818152600183018586518101602084015b818310156115d9576003830192508251603f8160121c168501518253600182019150603f81600c1c168501518253600182019150603f8160061c168501518253600182019150603f811685015182536001820191505061157e565b6003895106600181146115f357600281146116035761160e565b613d3d60f01b600283035261160e565b603d60f81b60018303525b50505050508093505050505b919050565b6000600660009054906101000a900473ffffffffffffffffffffffffffffffffffffffff16905081600660006101000a81548173ffffffffffffffffffffffffffffffffffffffff021916908373ffffffffffffffffffffffffffffffffffffffff1602179055508173ffffffffffffffffffffffffffffffffffffffff168173ffffffffffffffffffffffffffffffffffffffff167f8be0079c531659141344cd1fd0a4f28419497f9722a3daafe3b4186f6b6457e060405160405180910390a35050565b8173ffffffffffffffffffffffffffffffffffffffff168373ffffffffffffffffffffffffffffffffffffffff161415611754576040517f08c379a000000000000000000000000000000000000000000000000000000000815260040161174b9061318e565b60405180910390fd5b80600560008573ffffffffffffffffffffffffffffffffffffffff1673ffffffffffffffffffffffffffffffffffffffff16815260200190815260200160002060008473ffffffffffffffffffffffffffffffffffffffff1673ffffffffffffffffffffffffffffffffffffffff16815260200190815260200160002060006101000a81548160ff0219169083151502179055508173ffffffffffffffffffffffffffffffffffffffff168373ffffffffffffffffffffffffffffffffffffffff167f17307eab39ab6107e8899845ad3d59bd9653f200f220920489ca2b5937696c31836040516118459190611d49565b60405180910390a3505050565b61185d84848461124a565b611869848484846118d1565b6118a8576040517f08c379a000000000000000000000000000000000000000000000000000000000815260040161189f90613220565b60405180910390fd5b50505050565b6118c8828260405180602001604052806000815250611a59565b5050565b505050565b60006118f28473ffffffffffffffffffffffffffffffffffffffff16611ab4565b15611a4c578373ffffffffffffffffffffffffffffffffffffffff1663150b7a0261191b6110ab565b8786866040518563ffffffff1660e01b815260040161193d9493929190613295565b6020604051808303816000875af192505050801561197957506040513d601f19601f8201168201806040525081019061197691906132f6565b60015b6119fc573d80600081146119a9576040519150601f19603f3d011682016040523d82523d6000602084013e6119ae565b606091505b506000815114156119f4576040517f08c379a00000000000000000000000000000000000000000000000000000000081526004016119eb90613220565b60405180910390fd5b805181602001fd5b63150b7a0260e01b7bffffffffffffffffffffffffffffffffffffffffffffffffffffffff1916817bffffffffffffffffffffffffffffffffffffffffffffffffffffffff191614915050611a51565b600190505b949350505050565b611a638383611ac7565b611a7060008484846118d1565b611aaf576040517f08c379a0000000000000000000000000000000000000000000000000000000008152600401611aa690613220565b60405180910390fd5b505050565b600080823b905060008111915050919050565b600073ffffffffffffffffffffffffffffffffffffffff168273ffffffffffffffffffffffffffffffffffffffff161415611b37576040517f08c379a0000000000000000000000000000000000000000000000000000000008152600401611b2e9061336f565b60405180910390fd5b611b408161103f565b15611b80576040517f08c379a0000000000000000000000000000000000000000000000000000000008152600401611b77906133db565b60405180910390fd5b611b8c600083836118cc565b6001600360008473ffffffffffffffffffffffffffffffffffffffff1673ffffffffffffffffffffffffffffffffffffffff1681526020019081526020016000206000828254611bdc9190612de5565b92505081905550816002600083815260200190815260200160002060006101000a81548173ffffffffffffffffffffffffffffffffffffffff021916908373ffffffffffffffffffffffffffffffffffffffff160217905550808273ffffffffffffffffffffffffffffffffffffffff16600073ffffffffffffffffffffffffffffffffffffffff167fddf252ad1be2c89b69c2b068fc378daa952ba7f163c4a11628f55a4df523b3ef60405160405180910390a45050565b6000604051905090565b600080fd5b600080fd5b60007fffffffff0000000000000000000000000000000000000000000000000000000082169050919050565b611cde81611ca9565b8114611ce957600080fd5b50565b600081359050611cfb81611cd5565b92915050565b600060208284031215611d1757611d16611c9f565b5b6000611d2584828501611cec565b91505092915050565b60008115159050919050565b611d4381611d2e565b82525050565b6000602082019050611d5e6000830184611d3a565b92915050565b600081519050919050565b600082825260208201905092915050565b60005b83811015611d9e578082015181840152602081019050611d83565b83811115611dad576000848401525b50505050565b6000601f19601f8301169050919050565b6000611dcf82611d64565b611dd98185611d6f565b9350611de9818560208601611d80565b611df281611db3565b840191505092915050565b60006020820190508181036000830152611e178184611dc4565b905092915050565b6000819050919050565b611e3281611e1f565b8114611e3d57600080fd5b50565b600081359050611e4f81611e29565b92915050565b600060208284031215611e6b57611e6a611c9f565b5b6000611e7984828501611e40565b91505092915050565b600073ffffffffffffffffffffffffffffffffffffffff82169050919050565b6000611ead82611e82565b9050919050565b611ebd81611ea2565b82525050565b6000602082019050611ed86000830184611eb4565b92915050565b611ee781611ea2565b8114611ef257600080fd5b50565b600081359050611f0481611ede565b92915050565b60008060408385031215611f2157611f20611c9f565b5b6000611f2f85828601611ef5565b9250506020611f4085828601611e40565b9150509250929050565b600080600060608486031215611f6357611f62611c9f565b5b6000611f7186828701611ef5565b9350506020611f8286828701611ef5565b9250506040611f9386828701611e40565b9150509250925092565b600080fd5b600080fd5b7f4e487b7100000000000000000000000000000000000000000000000000000000600052604160045260246000fd5b611fdf82611db3565b810181811067ffffffffffffffff82111715611ffe57611ffd611fa7565b5b80604052505050565b6000612011611c95565b905061201d8282611fd6565b919050565b600067ffffffffffffffff82111561203d5761203c611fa7565b5b61204682611db3565b9050602081019050919050565b82818337600083830152505050565b600061207561207084612022565b612007565b90508281526020810184848401111561209157612090611fa2565b5b61209c848285612053565b509392505050565b600082601f8301126120b9576120b8611f9d565b5b81356120c9848260208601612062565b91505092915050565b6000602082840312156120e8576120e7611c9f565b5b600082013567ffffffffffffffff81111561210657612105611ca4565b5b612112848285016120a4565b91505092915050565b60006020828403121561213157612130611c9f565b5b600061213f84828501611ef5565b91505092915050565b61215181611e1f565b82525050565b600060208201905061216c6000830184612148565b92915050565b61217b81611d2e565b811461218657600080fd5b50565b60008135905061219881612172565b92915050565b600080604083850312156121b5576121b4611c9f565b5b60006121c385828601611ef5565b92505060206121d485828601612189565b9150509250929050565b600067ffffffffffffffff8211156121f9576121f8611fa7565b5b61220282611db3565b9050602081019050919050565b600061222261221d846121de565b612007565b90508281526020810184848401111561223e5761223d611fa2565b5b612249848285612053565b509392505050565b600082601f83011261226657612265611f9d565b5b813561227684826020860161220f565b91505092915050565b6000806000806080858703121561229957612298611c9f565b5b60006122a787828801611ef5565b94505060206122b887828801611ef5565b93505060406122c987828801611e40565b925050606085013567ffffffffffffffff8111156122ea576122e9611ca4565b5b6122f687828801612251565b91505092959194509250565b6000819050919050565b61231581612302565b82525050565b6000602082019050612330600083018461230c565b92915050565b6000806040838503121561234d5761234c611c9f565b5b600061235b85828601611ef5565b925050602061236c85828601611ef5565b9150509250929050565b7f4e487b7100000000000000000000000000000000000000000000000000000000600052602260045260246000fd5b600060028204905060018216806123bd57607f821691505b602082108114156123d1576123d0612376565b5b50919050565b7f4552433732313a20617070726f76656420717565727920666f72206e6f6e657860008201527f697374656e7420746f6b656e0000000000000000000000000000000000000000602082015250565b6000612433602c83611d6f565b915061243e826123d7565b604082019050919050565b6000602082019050818103600083015261246281612426565b9050919050565b7f4552433732313a20617070726f76616c20746f2063757272656e74206f776e6560008201527f7200000000000000000000000000000000000000000000000000000000000000602082015250565b60006124c5602183611d6f565b91506124d082612469565b604082019050919050565b600060208201905081810360008301526124f4816124b8565b9050919050565b7f4552433732313a20617070726f76652063616c6c6572206973206e6f74206f7760008201527f6e6572206e6f7220617070726f76656420666f7220616c6c0000000000000000602082015250565b6000612557603883611d6f565b9150612562826124fb565b604082019050919050565b600060208201905081810360008301526125868161254a565b9050919050565b7f4552433732313a207472616e736665722063616c6c6572206973206e6f74206f60008201527f776e6572206e6f7220617070726f766564000000000000000000000000000000602082015250565b60006125e9603183611d6f565b91506125f48261258d565b604082019050919050565b60006020820190508181036000830152612618816125dc565b9050919050565b600081905092915050565b600061263582611d64565b61263f818561261f565b935061264f818560208601611d80565b80840191505092915050565b6000612667828561262a565b9150612673828461262a565b91508190509392505050565b7f4552433732313a206f776e657220717565727920666f72206e6f6e657869737460008201527f656e7420746f6b656e0000000000000000000000000000000000000000000000602082015250565b60006126db602983611d6f565b91506126e68261267f565b604082019050919050565b6000602082019050818103600083015261270a816126ce565b9050919050565b7f4552433732313a2062616c616e636520717565727920666f7220746865207a6560008201527f726f206164647265737300000000000000000000000000000000000000000000602082015250565b600061276d602a83611d6f565b915061277882612711565b604082019050919050565b6000602082019050818103600083015261279c81612760565b9050919050565b7f4f776e61626c653a2063616c6c6572206973206e6f7420746865206f776e6572600082015250565b60006127d9602083611d6f565b91506127e4826127a3565b602082019050919050565b60006020820190508181036000830152612808816127cc565b9050919050565b7f7b226e616d65223a220000000000000000000000000000000000000000000000600082015250565b600061284560098361261f565b91506128508261280f565b600982019050919050565b7f50726963652046656564204e4654000000000000000000000000000000000000600082015250565b6000612891600e8361261f565b915061289c8261285b565b600e82019050919050565b7f222c20226465736372697074696f6e223a22222c20226174747269627574657360008201527f223a22222c2022696d616765223a220000000000000000000000000000000000602082015250565b6000612903602f8361261f565b915061290e826128a7565b602f82019050919050565b7f227d000000000000000000000000000000000000000000000000000000000000600082015250565b600061294f60028361261f565b915061295a82612919565b600282019050919050565b600061297082612838565b915061297b82612884565b9150612986826128f6565b9150612992828461262a565b915061299d82612942565b915081905092915050565b7f646174613a6170706c69636174696f6e2f6a736f6e3b6261736536342c000000600082015250565b60006129de601d8361261f565b91506129e9826129a8565b601d82019050919050565b60006129ff826129d1565b9150612a0b828461262a565b915081905092915050565b7f4552433732314d657461646174613a2055524920717565727920666f72206e6f60008201527f6e6578697374656e7420746f6b656e0000000000000000000000000000000000602082015250565b6000612a72602f83611d6f565b9150612a7d82612a16565b604082019050919050565b60006020820190508181036000830152612aa181612a65565b9050919050565b600069ffffffffffffffffffff82169050919050565b612ac781612aa8565b8114612ad257600080fd5b50565b600081519050612ae481612abe565b92915050565b612af381612302565b8114612afe57600080fd5b50565b600081519050612b1081612aea565b92915050565b600081519050612b2581611e29565b92915050565b600080600080600060a08688031215612b4757612b46611c9f565b5b6000612b5588828901612ad5565b9550506020612b6688828901612b01565b9450506040612b7788828901612b16565b9350506060612b8888828901612b16565b9250506080612b9988828901612ad5565b9150509295509295909350565b7f4e487b7100000000000000000000000000000000000000000000000000000000600052601160045260246000fd5b6000612be082612302565b9150612beb83612302565b9250827f800000000000000000000000000000000000000000000000000000000000000001821260008412151615612c2657612c25612ba6565b5b827f7fffffffffffffffffffffffffffffffffffffffffffffffffffffffffffffff018213600084121615612c5e57612c5d612ba6565b5b828203905092915050565b7f4e487b7100000000000000000000000000000000000000000000000000000000600052601260045260246000fd5b6000612ca382612302565b9150612cae83612302565b925082612cbe57612cbd612c69565b5b600160000383147f800000000000000000000000000000000000000000000000000000000000000083141615612cf757612cf6612ba6565b5b828205905092915050565b612d0b81612302565b82525050565b6000602082019050612d266000830184612d02565b92915050565b6000612d3f612d3a84612022565b612007565b905082815260208101848484011115612d5b57612d5a611fa2565b5b612d66848285611d80565b509392505050565b600082601f830112612d8357612d82611f9d565b5b8151612d93848260208601612d2c565b91505092915050565b600060208284031215612db257612db1611c9f565b5b600082015167ffffffffffffffff811115612dd057612dcf611ca4565b5b612ddc84828501612d6e565b91505092915050565b6000612df082611e1f565b9150612dfb83611e1f565b9250827fffffffffffffffffffffffffffffffffffffffffffffffffffffffffffffffff03821115612e3057612e2f612ba6565b5b828201905092915050565b7f4f776e61626c653a206e6577206f776e657220697320746865207a65726f206160008201527f6464726573730000000000000000000000000000000000000000000000000000602082015250565b6000612e97602683611d6f565b9150612ea282612e3b565b604082019050919050565b60006020820190508181036000830152612ec681612e8a565b9050919050565b7f4552433732313a206f70657261746f7220717565727920666f72206e6f6e657860008201527f697374656e7420746f6b656e0000000000000000000000000000000000000000602082015250565b6000612f29602c83611d6f565b9150612f3482612ecd565b604082019050919050565b60006020820190508181036000830152612f5881612f1c565b9050919050565b7f4552433732313a207472616e73666572206f6620746f6b656e2074686174206960008201527f73206e6f74206f776e0000000000000000000000000000000000000000000000602082015250565b6000612fbb602983611d6f565b9150612fc682612f5f565b604082019050919050565b60006020820190508181036000830152612fea81612fae565b9050919050565b7f4552433732313a207472616e7366657220746f20746865207a65726f2061646460008201527f7265737300000000000000000000000000000000000000000000000000000000602082015250565b600061304d602483611d6f565b915061305882612ff1565b604082019050919050565b6000602082019050818103600083015261307c81613040565b9050919050565b600061308e82611e1f565b915061309983611e1f565b9250828210156130ac576130ab612ba6565b5b828203905092915050565b60006130c282611e1f565b91506130cd83611e1f565b9250826130dd576130dc612c69565b5b828204905092915050565b60006130f382611e1f565b91506130fe83611e1f565b9250817fffffffffffffffffffffffffffffffffffffffffffffffffffffffffffffffff048311821515161561313757613136612ba6565b5b828202905092915050565b7f4552433732313a20617070726f766520746f2063616c6c657200000000000000600082015250565b6000613178601983611d6f565b915061318382613142565b602082019050919050565b600060208201905081810360008301526131a78161316b565b9050919050565b7f4552433732313a207472616e7366657220746f206e6f6e20455243373231526560008201527f63656976657220696d706c656d656e7465720000000000000000000000000000602082015250565b600061320a603283611d6f565b9150613215826131ae565b604082019050919050565b60006020820190508181036000830152613239816131fd565b9050919050565b600081519050919050565b600082825260208201905092915050565b600061326782613240565b613271818561324b565b9350613281818560208601611d80565b61328a81611db3565b840191505092915050565b60006080820190506132aa6000830187611eb4565b6132b76020830186611eb4565b6132c46040830185612148565b81810360608301526132d6818461325c565b905095945050505050565b6000815190506132f081611cd5565b92915050565b60006020828403121561330c5761330b611c9f565b5b600061331a848285016132e1565b91505092915050565b7f4552433732313a206d696e7420746f20746865207a65726f2061646472657373600082015250565b6000613359602083611d6f565b915061336482613323565b602082019050919050565b600060208201905081810360008301526133888161334c565b9050919050565b7f4552433732313a20746f6b656e20616c7265616479206d696e74656400000000600082015250565b60006133c5601c83611d6f565b91506133d08261338f565b602082019050919050565b600060208201905081810360008301526133f4816133b8565b905091905056fe4142434445464748494a4b4c4d4e4f505152535455565758595a6162636465666768696a6b6c6d6e6f707172737475767778797a303132333435363738392b2fa2646970667358221220d6754a0647a44e527ed3bb63b30cac152484e48955a8c338cae96f9cc33fcccc64736f6c634300080b0033",
  "libraries": {
    "SwordMaker": "0xe7f1725E7734CE288F8367e1Bb143E90bb3F0512"
  },
  "devdoc": {
    "kind": "dev",
    "methods": {
      "approve(address,uint256)": {
        "details": "See {IERC721-approve}."
      },
      "balanceOf(address)": {
        "details": "See {IERC721-balanceOf}."
      },
      "getApproved(uint256)": {
        "details": "See {IERC721-getApproved}."
      },
      "isApprovedForAll(address,address)": {
        "details": "See {IERC721-isApprovedForAll}."
      },
      "name()": {
        "details": "See {IERC721Metadata-name}."
      },
      "owner()": {
        "details": "Returns the address of the current owner."
      },
      "ownerOf(uint256)": {
        "details": "See {IERC721-ownerOf}."
      },
      "renounceOwnership()": {
        "details": "Leaves the contract without owner. It will not be possible to call `onlyOwner` functions anymore. Can only be called by the current owner. NOTE: Renouncing ownership will leave the contract without an owner, thereby removing any functionality that is only available to the owner."
      },
      "safeTransferFrom(address,address,uint256)": {
        "details": "See {IERC721-safeTransferFrom}."
      },
      "safeTransferFrom(address,address,uint256,bytes)": {
        "details": "See {IERC721-safeTransferFrom}."
      },
      "setApprovalForAll(address,bool)": {
        "details": "See {IERC721-setApprovalForAll}."
      },
      "supportsInterface(bytes4)": {
        "details": "See {IERC165-supportsInterface}."
      },
      "symbol()": {
        "details": "See {IERC721Metadata-symbol}."
      },
      "tokenURI(uint256)": {
        "details": "See {IERC721Metadata-tokenURI}."
      },
      "transferFrom(address,address,uint256)": {
        "details": "See {IERC721-transferFrom}."
      },
      "transferOwnership(address)": {
        "details": "Transfers ownership of the contract to a new account (`newOwner`). Can only be called by the current owner."
      }
    },
    "version": 1
  },
  "userdoc": {
    "kind": "user",
    "methods": {},
    "version": 1
  },
  "storageLayout": {
    "storage": [
      {
        "astId": 176,
        "contract": "contracts/price_nft.sol:Nft",
        "label": "_name",
        "offset": 0,
        "slot": "0",
        "type": "t_string_storage"
      },
      {
        "astId": 178,
        "contract": "contracts/price_nft.sol:Nft",
        "label": "_symbol",
        "offset": 0,
        "slot": "1",
        "type": "t_string_storage"
      },
      {
        "astId": 182,
        "contract": "contracts/price_nft.sol:Nft",
        "label": "_owners",
        "offset": 0,
        "slot": "2",
        "type": "t_mapping(t_uint256,t_address)"
      },
      {
        "astId": 186,
        "contract": "contracts/price_nft.sol:Nft",
        "label": "_balances",
        "offset": 0,
        "slot": "3",
        "type": "t_mapping(t_address,t_uint256)"
      },
      {
        "astId": 190,
        "contract": "contracts/price_nft.sol:Nft",
        "label": "_tokenApprovals",
        "offset": 0,
        "slot": "4",
        "type": "t_mapping(t_uint256,t_address)"
      },
      {
        "astId": 196,
        "contract": "contracts/price_nft.sol:Nft",
        "label": "_operatorApprovals",
        "offset": 0,
        "slot": "5",
        "type": "t_mapping(t_address,t_mapping(t_address,t_bool))"
      },
      {
        "astId": 53,
        "contract": "contracts/price_nft.sol:Nft",
        "label": "_owner",
        "offset": 0,
        "slot": "6",
        "type": "t_address"
      },
      {
        "astId": 1930,
        "contract": "contracts/price_nft.sol:Nft",
        "label": "tokenCounter",
        "offset": 0,
        "slot": "7",
        "type": "t_uint256"
      },
      {
        "astId": 1936,
        "contract": "contracts/price_nft.sol:Nft",
        "label": "priceFeed",
        "offset": 0,
        "slot": "8",
        "type": "t_contract(AggregatorV3Interface)45"
      },
      {
        "astId": 1940,
        "contract": "contracts/price_nft.sol:Nft",
        "label": "tokenIdToValue",
        "offset": 0,
        "slot": "9",
        "type": "t_mapping(t_uint256,t_int256)"
      }
    ],
    "types": {
      "t_address": {
        "encoding": "inplace",
        "label": "address",
        "numberOfBytes": "20"
      },
      "t_bool": {
        "encoding": "inplace",
        "label": "bool",
        "numberOfBytes": "1"
      },
      "t_contract(AggregatorV3Interface)45": {
        "encoding": "inplace",
        "label": "contract AggregatorV3Interface",
        "numberOfBytes": "20"
      },
      "t_int256": {
        "encoding": "inplace",
        "label": "int256",
        "numberOfBytes": "32"
      },
      "t_mapping(t_address,t_bool)": {
        "encoding": "mapping",
        "key": "t_address",
        "label": "mapping(address => bool)",
        "numberOfBytes": "32",
        "value": "t_bool"
      },
      "t_mapping(t_address,t_mapping(t_address,t_bool))": {
        "encoding": "mapping",
        "key": "t_address",
        "label": "mapping(address => mapping(address => bool))",
        "numberOfBytes": "32",
        "value": "t_mapping(t_address,t_bool)"
      },
      "t_mapping(t_address,t_uint256)": {
        "encoding": "mapping",
        "key": "t_address",
        "label": "mapping(address => uint256)",
        "numberOfBytes": "32",
        "value": "t_uint256"
      },
      "t_mapping(t_uint256,t_address)": {
        "encoding": "mapping",
        "key": "t_uint256",
        "label": "mapping(uint256 => address)",
        "numberOfBytes": "32",
        "value": "t_address"
      },
      "t_mapping(t_uint256,t_int256)": {
        "encoding": "mapping",
        "key": "t_uint256",
        "label": "mapping(uint256 => int256)",
        "numberOfBytes": "32",
        "value": "t_int256"
      },
      "t_string_storage": {
        "encoding": "bytes",
        "label": "string",
        "numberOfBytes": "32"
      },
      "t_uint256": {
        "encoding": "inplace",
        "label": "uint256",
        "numberOfBytes": "32"
      }
    }
  }
}